:020000040000FA
:0600000009EF6CF0120094
:0600080016EF63F0120088
:0600180069EF63F0120025
:02002A00AA55D5
:04002C00030088D86D
:100030000000050900000500000086D80000F10C52
:1000400000000200000082D8000012090000040035
:020050000000AE
:0E0052000C016E0501E0B7D00C01716B83CC80
:1000600041F81FEC41F0FF0A68E0FF0A62E0FB0A7A
:1000700053E0F80A51E0FD0A44E0F20A29E00D0AD3
:100080001CE00A0A01E064D0150E0C01695D04E071
:100090001D0E0C01695D03E10C01716B03D00C01B5
:1000A000010E716F1D0E0C01695D07E1030E0C015D
:1000B000835D03E10C01010E716F0001010EE76F1A
:1000C0007ACCE6F00DD9000902E1000E08D141D04A
:1000D000150E0C01695D04E01D0E0C01695D03E164
:1000E0000C01716B03D00C01010E716F1D0E0C0120
:1000F000695D07E1030E0C01835D03E10C01010E54
:10010000716F0001FE0EE76F7ACCE6F0E9D80009C6
:1001100002E1000EE4D01DD0150E0C01695D08E06F
:100120001D0E0C01695D05E1030E0C01835D01E00C
:1001300010D00C01010E716F0CD00801010E6A6F16
:1001400082CC69F80801020E686F04EC59F001D006
:1001500000D00C016B510FE1B7CC84FCB8CC85FC0E
:10016000150E0C01695D03E00C01010E6B6F0C01B3
:10017000010E6B6F0CD083CC4DF8D1EC42F0F3CF75
:1001800084FCF4CF85FC84CCB7FC85CCB8FC020E93
:100190000C01835D18E1090E0C017A5D14E1FEEC9F
:1001A00040F0146E156AFF0E141801E115500BE1B2
:1001B0000801010E6A6F08010B0E696F0801090E34
:1001C000686F04EC59F089D083CC41F81FEC41F002
:1001D000FF0A2CE0FF0A1FE00C0A12E0F20A10E00E
:1001E000F50A03E00A0A01E02CD00001010EE76FD6
:1001F0007ACCE6F075D8000902E10C016E6B22D0D2
:100200000001FE0EE76F7ACCE6F06AD8000902E141
:100210000C016E6B17D00C01710502E113D005D0F3
:100220000C01705102E00C016E6B0CD00801010E44
:100230006A6F82CC69F80801020E686F04EC59F00D
:1002400001D000D00C018651871147E083CC4DF8D6
:10025000D1EC42F0F3CF14F0F4CF15F00C0185513E
:100260001518E8AE02D0153404D01450845D155032
:1002700085591AE383CC4DF8D1EC42F00C01F350D0
:10028000845D146EF4508559156E0C018751151854
:10029000E8AE02D0153404D01450865D155087594D
:1002A00002E20C016E6B19D083CC4DF8D1EC42F018
:1002B0000C018451F35C146E8551F458156E0C01D9
:1002C00087511518E8AE02D0153404D01450865D5D
:1002D0001550875902E20C016E6BCAD800D012008B
:1002E0000001E751146E156AFE0E141801E1155055
:1002F0001CE10001E651040A11E0030A0FE00E0AB6
:100300000DE0020A0BE01D0A09E0010A07E0180AE5
:1003100005E0020A03E00E0A01E004D001010085B5
:10032000000E1ED0020E1CD01BD00001E651050AA3
:1003300011E0030A0FE00E0A0DE0020A0BE01E0AAC
:1003400009E0010A07E01B0A05E0020A03E00E0AC1
:1003500001E004D001010085000E02D0020E00D0A1
:1003600012000001E9510EE10001EA510BE1000E1B
:10037000E66EE66A61EC6AF0E552E552030E83161A
:10038000000E61D00001EA510001E9250D01026F64
:10039000036B000E03230D01FF0ED8800255000EE3
:1003A000035503E20D010269036BFC0E831445E162
:1003B0000001E851010A31E0040A25E0010A19E0D0
:1003C000070A0DE0010A01E032D00801020E9A6F1F
:1003D00023EC60F0030E8316440E83122BD0080129
:1003E000020E9A6F23EC60F0030E8316280E831220
:1003F00021D00801020E9A6F23EC60F0030E8316E1
:10040000700E831217D00801020E9A6F23EC60F071
:10041000030E83168C0E83120DD00801130E9A6FF3
:1004200023EC60F0030E83161C0E831203D0030E20
:10043000831600D0010E07D006D002CD9BF840EC09
:1004400060F0010E00D012000001EB5105E1000147
:10045000EC5102E1829A09D008014F6983EC43F024
:10046000000902E0829A01D0828A000E00D01200B8
:100470000C01812B0C018151640804E20C01816B99
:100480000C01802B0C016E0501E0ADD0010100BB19
:1004900046D00C017A51EA6A700FE96E020EEA2228
:1004A000EFCF7BFC0C017A51EA6A000FE96E030E74
:1004B000EA22EF5012E00C017A51EA6A000FE96E6D
:1004C000030EEA22EFCF14F014C00EF07BCC09F03B
:1004D00019EC6CF009C07DFC03D00C01010E7D6F9E
:1004E0000C017A51EA6A400FE96E030EEA22EF50DE
:1004F00012E00C017A51EA6A400FE96E030EEA221B
:10050000EFCF14F014C00EF07BCC09F019EC6CF0B6
:1005100009C07EFC03D00C01010E7E6F45D00C019A
:100520007A51EA6A900FE96E020EEA22EFCF7BFC65
:100530000C017A51EA6A200FE96E030EEA22EF50AD
:1005400012E00C017A51EA6A200FE96E030EEA22EA
:10055000EFCF14F014C00EF07BCC09F019EC6CF066
:1005600009C07DFC03D00C01010E7D6F0C017A5196
:10057000EA6A600FE96E030EEA22EF5012E00C0106
:100580007A51EA6A600FE96E030EEA22EFCF14F0A7
:1005900014C00EF07BCC09F019EC6CF009C07EFCA5
:1005A00003D00C01010E7E6F0C017A51EA6A500FE4
:1005B000E96E020EEA22EFCF7FFC0C016F6B40EC7C
:1005C00040F000090EE1CCEC44F0020804E30C0119
:1005D0007B6B0C017D6BCCEC44F0010802E3000E58
:1005E000DBD2020ED9D208015069AAEC43F000090F
:1005F00002E0000ED1D208014F6983EC43F00009FC
:1006000002E0000EC9D20C016F51100A01E19FD225
:100610001F0A01E196D2010A01E178D2030A01E141
:1006200015D2010A01E1AED1070A01E11ED10F0A7C
:1006300001E1A5D0070A6FE0010A4DE0030A1CE0C2
:10064000010A01E0A7D20C016E5104E10C010F0E6A
:100650006F6F08D00C01010E796F0C01010E6F6FE6
:100660000C01886B0001E06BE16B0001DC6BDD6B62
:100670000001E46BE56B8ED20C016E5104E10C01BC
:100680000F0E6F6F27D00C01882B0801516BD1EC36
:1006900043F000090AE10C0188510A0805E20C0147
:1006A000020E6F6F0C01886B15D0829A0C01885175
:1006B000140810E20801020E6A6F0801120E696F39
:1006C0000801010E686F04EC59F00C010F0E6F6FFA
:1006D0000C01886B5FD20C016E5109E00801720EAB
:1006E000A36F0C0EA46FBCEC60F0000904E00C01D9
:1006F0000F0E6F6F0FD00801800EA26F0801720EEF
:10070000A06F0C0EA16FA3EC60F00C01030E6F6FD5
:100710000C01886B3FD20C016E5109E00801720E8A
:10072000A36F0C0EA46FBCEC60F0000904E00C0198
:100730000B0E6F6F23D00C017D510C017C250D0138
:10074000036F046B000E04230C017B51146E156AB9
:100750000D011450035D155004590CE37BCC7CFC57
:100760000C01040E6F6F0C01886B0C01816B0C0186
:10077000806B04D00C017D510C017C270BD20C0145
:100780007B5124E008014E6917EC43F0146E156AA2
:10079000FF0E141801E1155019E10C017C6B0C01DE
:1007A000796B0801A26B0801720EA06F0C0EA16F8D
:1007B000A3EC60F0000EE66EE66A61EC6AF0E552CA
:1007C000E552030E8316829A000EE6D1030E0C0149
:1007D000835D04E0020E0C01835D2DE1030E0C012C
:1007E000695D29E0040E0C01695D25E0030E0C0132
:1007F0006C5D21E0040E0C016C5D1DE01A0E0C0115
:10080000695D19E01A0E0C016C5D15E01B0E0C0100
:10081000695D11E01B0E0C016C5D0DE008013B51A0
:100820000AE00C01705107E00C01715104E10C0168
:100830000B0E6F6FAFD108015169D1EC43F00C0181
:100840006E510EE00801720EA36F0C0EA46FBCEC8B
:1008500060F0000905E10C017F510C01805D04E3AB
:100860000C010B0E6F6F96D195D10B0E0C017A5DBA
:100870006CE10801000E0E6F040E0F6F0801300EC0
:100880000C6F020E0D6F0801100E0A6F010E0B6F38
:100890000801040E096F7BEC3BF0F3CFDEF0F4CFE0
:1008A000DFF00001D880DF5104E70C0EDE5DFE0EA4
:1008B000DF5908E30001DF3504E3DE517008FE0E66
:1008C000DF5543E290EC10F0F3CFEFF0F4CFF0F00F
:1008D0000001D880F05104E7FB0EEF5DFF0EF059E8
:1008E00016E2EFC0DCF0F0C0DDF00801800EA86F6A
:1008F0000801040EA76F38EC61F00801A86B08012D
:10090000050EA76F38EC61F00C010C0E6F6F000143
:10091000F03504E2EF510508000EF05516E2EFC085
:10092000DCF0F0C0DDF00801A86B0801040EA76F31
:1009300038EC61F00801800EA86F0801050EA76F62
:1009400038EC61F00C010D0E6F6F0C016E5107E079
:1009500083CC52F8D0EC44F0F3CF7CFC0CD00C01EB
:100960007E510C017C5D03E20C017C6B04D00C0118
:100970007E510C017C5F0C017C5103E10C010E0ED9
:100980006F6F08D190EC10F0F3CFEFF0F4CFF0F0F0
:100990000001D880F05104E7FF0EEF5DFF0EF05923
:1009A00011E30801A86B0801050EA76F38EC61F090
:1009B0000801A86B0801040EA76F38EC61F00C0168
:1009C0000B0E6F6FDCC014F0DDC015F00F0E145E5F
:1009D000000E155A0001F0511518E8AE02D015347A
:1009E00004D01450EF5D1550F05911E20801A86BC6
:1009F0000801050EA76F38EC61F00801A86B08012B
:100A0000040EA76F38EC61F00C010B0E6F6F0C0138
:100A10006E5107E083CC52F8D0EC44F0F3CF7CFC6D
:100A20000CD00C017E510C017C5D03E20C017C6B4F
:100A300004D00C017E510C017C5F0C017C5105E15E
:100A40000C016E6B0C010E0E6F6FA4D090EC10F0C9
:100A5000F3CFEFF0F4CFF0F00001F03504E2EF5106
:100A60000108000EF05511E30801A86B0801050EFE
:100A7000A76F38EC61F00801A86B0801040EA76F9E
:100A800038EC61F00C010B0E6F6F0F0E0001156A50
:100A9000DC25146EDD51152200011550F019E8AE69
:100AA00002D0F03504D0EF51145CF051155811E22A
:100AB0000801A86B0801050EA76F38EC61F008016A
:100AC000A86B0801040EA76F38EC61F00C010B0E47
:100AD0006F6F0C016E5107E083CC52F8D0EC44F0FC
:100AE000F3CF7CFC0CD00C017E510C017C5D03E249
:100AF0000C017C6B04D00C017E510C017C5F0C015D
:100B00007C5103E10C010E0E6F6F44D00801A86BFD
:100B10000801050EA76F38EC61F00801A86B080109
:100B2000040EA76F38EC61F00801A26B0801720E89
:100B3000A06F0C0EA16FA3EC60F00C010F0E6F6F95
:100B400029D00C01886B0C01100E6F6F23D01A0E88
:100B50000C01695D0CE01A0E0C016C5D08E01B0EC7
:100B60000C01695D04E01B0E0C016C5D04E1000EDC
:100B700013D010D00ED00C01882B0C018851050821
:100B800002E20C01796B0C018851070802E2000EA9
:100B900003D000D0020E00D012000C016E0526E139
:100BA0000C016B0515E10001D06BF0D984DA146EED
:100BB000156AFF0E141801E1155002E1000ECAD0AB
:100BC00008013B6B0201B1510C01866F876B0CD0A1
:100BD0000001D051000808E20001D0B105D0020E9A
:100BE0000001D05D0001D06F020EB4D00201B151FE
:100BF0000C01866F876B0D01056B0001D651146ED9
:100C0000156AFD0E141801E1155002E10D01052BC6
:100C10000001D751146E156AFD0E141801E115502C
:100C200002E10D01052B0001D851146E156AFD0E6D
:100C3000141801E1155002E10D01052B0001D951F5
:100C4000146E156AFD0E141801E1155002E10D0134
:100C5000052B0001DA51146E156AFD0E141801E11E
:100C6000155002E10D01052B040E0D01055D03E396
:100C70000C01866B876B0A0E0001D05D02E3000158
:100C8000D06B0001D0B125D016DA146E156AFF0EB4
:100C9000141801E1155002E1000E5CD008013B6B15
:100CA0000C016E5102E1000E55D00C01010E6E6F69
:100CB000010100956ECCF1F04ED8000904E1020E5E
:100CC0000001D02702D00001D02B0C01020E6E6F64
:100CD0000FD06ECCF1F03FD800090AE10001D02B13
:100CE0000C01695102E1000E35D00C01020E6E6F4D
:100CF0000001D651146E156AFD0E141801E115504D
:100D000027E10001D751166E176AFD0E161801E192
:100D100017501EE10001D851186E196AFD0E1818FF
:100D200001E1195015E10001D9511A6E1B6AFD0E3F
:100D30001A1801E11B500CE10001DA511C6E1D6A0A
:100D4000FD0E1C1801E11D5003E1000E03D002D07E
:100D5000020E00D012000001D0417F0B0D01096F7F
:100D60000001F10511E10D010951EA6AD60FE96EA2
:100D7000000EEA22EF50146E156AFD0E141801E100
:100D8000155002E1000E01D10D010951EA6AD10F9F
:100D9000E96E000EEA22EF50030A01E1CBD0010A0E
:100DA00001E19DD0030A49E0010A1AE0070A01E0C7
:100DB000E7D00C01070E836F0C010B0E826F0C0144
:100DC000866B876B0C01706B0C01010E786F0C0148
:100DD000080E726F0C0173690C010C0E7A6FD2D081
:100DE0000C01836B0C01250E826F0C01866B876BE7
:100DF0000C01010E706F0C01010E786F0C0173690C
:100E00000D010951EA6AD60FE96E000EEA22EF5091
:100E1000146E156AFC0E141801E1155007E10C015F
:100E2000030E726F0C01040E7A6F06D00C01020ED5
:100E3000726F0C01050E7A6FA5D00C01010E836F45
:100E40000C01260E826F0C01010E706F0C01010E59
:100E5000786F0C0173690D010951EA6AD60FE96ECA
:100E6000000EEA22EF50020807E10C01010E726F3A
:100E70000C01060E7A6F05D00C01726B0C01070E87
:100E80007A6F0801010E416F1FEC41F0146E156A74
:100E9000FE0E141801E1155021E10801000E0E6F3D
:100EA000040E0F6F0801300E0C6F020E0D6F08015B
:100EB000100E0A6F010E0B6F0801010E096F7BEC1B
:100EC0003BF0F3CF16F0F4CF17F0173404E21650CE
:100ED0000008000E175402E30C016E6B53D00C0196
:100EE000020E836F0C01270E826F0C01010E706FD2
:100EF0000C01010E786F0C0173690D010951EA6A4A
:100F0000D60FE96E000EEA22EF50146E156AFC0E41
:100F1000141801E1155007E10C010E0E726F0C015F
:100F2000090E7A6F06D00C010F0E726F0C01080EBD
:100F30007A6F28D00C01030E836F0C01280E826F8C
:100F40000C01010E706F0C01010E786F0C017369BA
:100F50000D010951EA6AD60FE96E000EEA22EF5040
:100F6000020807E10C01070E726F0C010A0E7A6F7E
:100F700006D00C01060E726F0C010B0E7A6F02D0B8
:100F8000000E03D029EC00F000D012000001070E83
:100F9000D16F0001D26B010101A348D00801000EFE
:100FA0000E6F040E0F6F0801300E0C6F020E0D6FE6
:100FB0000801100E0A6F010E0B6F0801010E096F78
:100FC0007BEC3BF0F3CF14F0F4CF15F0153404E2D2
:100FD00014500008000E15541FE30001010ED36FDA
:100FE0000001020ED46F0001030ED56F0801010E3F
:100FF000416F1FEC41F0146E156AFE0E141801E1EA
:10100000155009E10001030ED36F0001020ED46FE9
:101010000001010ED56F09D00001020ED36F00014F
:10102000010ED46F0001030ED56F44D00801000EED
:101030000E6F040E0F6F0801300E0C6F020E0D6F55
:101040000801100E0A6F010E0B6F0801010E096FE7
:101050007BEC3BF0F3CF14F0F4CF15F00001800EE1
:1010600015141FE10001010ED36F0001030ED46FB0
:101070000001020ED56F0801010E416F1FEC41F017
:10108000146E156AFE0E141801E1155009E10001F5
:10109000020ED36F0001030ED46F0001010ED56F55
:1010A00009D00001030ED36F0001010ED46F0001BF
:1010B000020ED56F12000801020E026F03EC38F029
:1010C000F3CF02FDF4CF03FD0D01006B050E0D0102
:1010D000005D01E3E3D00D010051EA6AD10FE96E32
:1010E000000EEA22EFCF01FD01CD41F81FEC41F0E7
:1010F000030A01E1AFD0010A01E1ACD0030A01E12A
:101100008BD0FA0A52E0070A50E0020A4EE0010AC8
:101110001EE0FF0A01E0B5D00D010051EA6AD60FCA
:10112000E96E000EEA22FD0EEF6E1D0E0C01695DE8
:101130000DE1030E0D01015D09E10D010051EA6AA7
:10114000D60FE96E000EEA22020EEF6EA4D0070E53
:101150000D01015D14E10D010051EA6AD60FE96E3F
:10116000000EEA22FD0EEF6E0801010E6A6F82CCBE
:1011700069F80801020E686F04EC59F015D00801F7
:10118000010E6A6F82CC69F80801020E686F04ECE8
:1011900059F00D010051EA6AD60FE96E000EEA22FD
:1011A000FD0EEF6EFF0E7CD076D01D0E0C01695D3A
:1011B00029E10D01010526E10801000E0E6F040E64
:1011C0000F6F0801300E0C6F020E0D6F0801100E2C
:1011D0000A6F010E0B6F0801010E096F7BEC3BF0EB
:1011E000F3CF14F0F4CF15F00001800E15140AE0CF
:1011F0000D010051EA6AD60FE96E000EEA22FD0EDB
:10120000EF6E49D00D010051EA6AD60FE96E000E6B
:10121000EA22020EEF6E3FD01D0E0C01695D1AE14D
:10122000030E0D01015D0CE0020E0D01015D12E1E6
:101230000D01033504E202510008000E03550AE2D5
:101240000D010051EA6AD60FE96E000EEA22FD0E8A
:10125000EF6E21D00D010051EA6AD60FE96E000E43
:10126000EA22FC0EEF6E070E0D01015D09E10D0192
:101270000051EA6AD60FE96E000EEA22FD0EEF6E0B
:101280000AD00D010051EA6AD60FE96E000EEA227B
:10129000FD0EEF6E00D00D01002B18D7000E00D010
:1012A00012000801020E026F03EC38F0F3CF02FDCA
:1012B000F4CF03FD0D01006B050E0D01005D01E390
:1012C000CAD00D010051EA6AD10FE96E000EEA2280
:1012D000EFCF01FD01CD41F81FEC41F0030A01E120
:1012E00096D0010A01E193D0030A73E0FA0A3AE0CA
:1012F000070A38E0020A36E0010A1EE0FF0A01E0B0
:101300009DD00D010051EA6AD60FE96E000EEA2267
:10131000FD0EEF6E1D0E0C01695D0DE1030E0D015A
:10132000015D09E10D010051EA6AD60FE96E000E78
:10133000EA22020EEF6E8CD00801010E6A6F82CC99
:1013400069F80801020E686F04EC59F00D010051B4
:10135000EA6AD60FE96E000EEA22FD0EEF6EFF0E6E
:101360007CD076D01D0E0C01695D29E10D010105CF
:1013700026E10801000E0E6F040E0F6F0801300EFB
:101380000C6F020E0D6F0801100E0A6F010E0B6F2D
:101390000801010E096F7BEC3BF0F3CF14F0F4CFA2
:1013A00015F00001800E15140AE00D010051EA6AE3
:1013B000D60FE96E000EEA22FD0EEF6E49D00D0148
:1013C0000051EA6AD60FE96E000EEA22020EEF6EB5
:1013D0003FD01D0E0C01695D1AE1030E0D01015D88
:1013E0000CE0020E0D01015D12E10D01033504E276
:1013F00002510008000E03550AE20D010051EA6A8D
:10140000D60FE96E000EEA22FD0EEF6E21D00D011F
:101410000051EA6AD60FE96E000EEA22FC0EEF6E6A
:10142000070E0D01015D09E10D010051EA6AD60FB9
:10143000E96E000EEA22FD0EEF6E0AD00D0100519A
:10144000EA6AD60FE96E000EEA22FD0EEF6E00D0BA
:101450000D01002B31D7000E00D012000C016E05DB
:1014600001E07AD00701006B0001D06B010101A3FC
:1014700011D00001F25107E10001010ED16F00010E
:10148000020ED26F06D00001020ED16F0001010ED4
:10149000D26F10D00001F25107E10001010ED16FAF
:1014A0000001030ED26F06D00001030ED16F0001C0
:1014B000010ED26F0201B1510C01866F876B0C01D6
:1014C000706B0C01010E786F0C0173690801010E3D
:1014D000416F1FEC41F0146E156AFF0E141801E104
:1014E00015500CE00801020E416F1FEC41F0166E22
:1014F000176AFF0E161801E1175002E1000EBBD16A
:101500000001F2050EE10801070E416F1FEC41F0EA
:10151000146E156AFF0E141801E1155002E1000E59
:10152000AAD10001F25116E1FEEC40F0146E156AEA
:10153000FF0E141801E115500DE10801010E6A6F4C
:1015400008010B0E696F0801020E686F04EC59F078
:10155000000E91D1020E8FD10701000507E10001B5
:10156000F25104E1010100850C016E6B040E0001D3
:10157000D05D02E30001D06B0001D0B1F7D00201D1
:10158000B1510C01866F876B010101A331D00001BD
:10159000F25117E10801010E416F1FEC41F0146E8A
:1015A000156AFE0E141801E1155007E00801020E3D
:1015B000416F1FEC41F0010803E10C01866B876B62
:1015C00016D00801010E416F1FEC41F001080CE03C
:1015D0000801020E416F1FEC41F0146E156AFE0EF9
:1015E000141801E1155003E10C01866B876B30D0B4
:1015F0000001F25112E10801010E416F1FEC41F0B0
:10160000010807E00801030E416F1FEC41F00108DB
:1016100003E10C01866B876B1BD00801010E416F43
:101620001FEC41F0146E156AFE0E141801E11550FE
:101630000CE00801030E416F1FEC41F0166E176AB3
:10164000FE0E161801E1175003E10C01866B876B43
:101650000C016E5102E1000E0ED10C01010E6E6FF5
:10166000010100950001D0417F0BEA6AD10FE96EBC
:10167000000EEA22EF50020816E10C01020E836F01
:101680000C01270E826F0001F25107E10C010F0ED1
:10169000726F0C01080E7A6F06D00C010E0E726F7D
:1016A0000C01090E7A6F0001D0417F0BEA6AD10F5D
:1016B000E96E000EEA22EF042AE10C01010E836FAD
:1016C0000C01260E826F86CC86FC87CC87FC0C0131
:1016D000D890873386330001F25105E10101010101
:1016E0000151020B08E10001F2050BE101010101CA
:1016F0000151020B06E10C01726B0C01070E7A6FAF
:1017000006D00C01010E726F0C01060E7A6F0001FB
:10171000D0417F0BEA6AD10FE96E000EEA22EF504A
:10172000030816E10C01030E836F0C01280E826F73
:101730000001F25107E10C01070E726F0C010A0E55
:101740007A6F06D00C01060E726F0C010B0E7A6FC9
:1017500029EC00F0020803E10001D02B03D0020EB7
:101760000001D0270C01020E6E6F85D029EC00F02D
:10177000000901E07ED00001D02B0C01695102E18B
:10178000000E79D00C01020E6E6F0001F2511AE1C9
:10179000010101010151020B15E00801020E416F28
:1017A0001FEC41F001080EE10801010E416F1FEC32
:1017B00041F0146E156AFE0E141801E1155002E195
:1017C000000E59D00001F2051AE101010101015199
:1017D000020B15E00801020E416F1FEC41F0146E80
:1017E000156AFE0E141801E1155009E10801010EF9
:1017F000416F1FEC41F0010802E1000E3CD00001F6
:10180000F25115E1010101010151020B10E1080142
:10181000030E416F1FEC41F0010809E10801010EC0
:10182000416F1FEC41F0010802E1000E24D00001DD
:10183000F2051FE1010101010151020B1AE108014A
:10184000030E416F1FEC41F0146E156AFE0E141862
:1018500001E115500EE10801010E416F1FEC41F04E
:10186000166E176AFE0E161801E1175002E1000EFF
:1018700002D0020E00D012000C016E0515E100012D
:10188000D06BC6EC07F00DDD146E156AFF0E141850
:1018900001E1155002E1000EBBD00201B1510C0173
:1018A000866F876B020EB4D00201B1510C01866FB6
:1018B000876B0D01056B0001D651146E156AFD0E84
:1018C000141801E1155002E10D01052B0001D7515B
:1018D000146E156AFD0E141801E1155002E10D0198
:1018E000052B0001D851146E156AFD0E141801E184
:1018F000155002E10D01052B0001D951146E156A36
:10190000FD0E141801E1155002E10D01052B000137
:10191000DA51146E156AFD0E141801E1155002E13A
:101920000D01052B040E0D01055D03E30C01866B13
:10193000876B0A0E0001D05D02E30001D06B00014D
:10194000D0B123D0AEDC146E156AFF0E141801E17D
:10195000155002E1000E5CD00C016E5102E1000E48
:1019600057D00C01010E6E6F010100956ECCF3F0A3
:1019700050D8000904E1020E0001D02702D0000176
:10198000D02B0C01020E6E6F0FD06ECCF3F041D84D
:1019900000090AE10001D02B0C01695102E1000E9F
:1019A00037D00C01020E6E6F0001D651146E156A0D
:1019B000FD0E141801E1155029E10001D751166EF2
:1019C000176AFD0E161801E1175020E10001D851E9
:1019D000186E196AFD0E181801E1195017E100017F
:1019E000D9511A6E1B6AFD0E1A1801E11B500EE147
:1019F0000001DA511C6E1D6AFD0E1C1801E11D501C
:101A000005E101010085000E03D002D0020E00D0D6
:101A100012000001D0417F0B0D01096F0001F30599
:101A200011E10D010951EA6AD60FE96E000EEA22B2
:101A3000EF50146E156AFD0E141801E1155002E105
:101A4000000EEFD00D010951EA6AD10FE96E000EC8
:101A5000EA22EF50030A01E1CBD0010A01E19DD057
:101A6000030A49E0010A1AE0070A01E0D5D00C0197
:101A7000070E836F0C010B0E826F0C01866B876B58
:101A80000C01706B0C01010E786F0C01080E726F67
:101A90000C0173690C010C0E7A6FC0D00C01836BC2
:101AA0000C01250E826F0C01866B876B0C01010EF9
:101AB000706F0C01010E786F0C0173690D010951F3
:101AC000EA6AD60FE96E000EEA22EF50146E156A2C
:101AD000FC0E141801E1155007E10C01030E726FA2
:101AE0000C01040E7A6F06D00C01020E726F0C010D
:101AF000050E7A6F93D00C01010E836F0C01260E38
:101B0000826F0C01010E706F0C01010E786F0C01D9
:101B100073690D010951EA6AD60FE96E000EEA22D7
:101B2000EF50020807E10C01010E726F0C01060E66
:101B30007A6F05D00C01726B0C01070E7A6F0801E9
:101B4000010E416F1FEC41F0146E156AFE0E141861
:101B500001E1155021E10801000E0E6F040E0F6F18
:101B60000801300E0C6F020E0D6F0801100E0A6F87
:101B7000010E0B6F0801010E096F7BEC3BF0F3CFF8
:101B800016F0F4CF17F0173404E216500008000ED8
:101B9000175402E30C016E6B41D00C01020E836FEF
:101BA0000C01270E826F0C01010E706F0C01010EEB
:101BB000786F0C0173690D010951EA6AD60FE96E5D
:101BC000000EEA22EF50146E156AFC0E141801E1A3
:101BD000155007E10C010E0E726F0C01090E7A6FA1
:101BE00006D00C010F0E726F0C01080E7A6F16D022
:101BF0000C01030E836F0C01280E826F0C01706BB9
:101C00000C01010E786F0C0173690C01070E726FE5
:101C10000C010A0E7A6F02D0000E03D029EC00F0FE
:101C200000D012000C016E0550E10001D06B0C01D8
:101C3000706B0C01010E786F0C0173690001020ECC
:101C4000D16F0001010ED26F0001030ED36F0801A6
:101C5000020E416F1FEC41F0146E156AFF0E14184E
:101C600001E1155018E00801010E416F1FEC41F031
:101C7000166E176AFF0E161801E117500CE00801E6
:101C8000030E416F1FEC41F0186E196AFF0E181811
:101C900001E1195002E1000EE2D0FEEC40F0146EBA
:101CA000156AFF0E141801E115500DE10801010E2F
:101CB0006A6F08010B0E696F0801020E686F04EC71
:101CC00059F0000ECCD0020ECAD0060E0001D05D35
:101CD00002E30001D06B0001D0B195D00201B151F7
:101CE0000C01866F876B0801020E416F1FEC41F0FB
:101CF000146E156AFE0E141801E1155007E1080173
:101D0000010E416F1FEC41F0010821E00801020EB5
:101D1000416F1FEC41F0166E176AFE0E161801E1B6
:101D2000175007E10801030E416F1FEC41F0010855
:101D30000EE00801010E416F1FEC41F001080AE1BD
:101D40000801030E416F1FEC41F0010803E10C0193
:101D5000866B876B0C016E5102E1000E80D00C0186
:101D6000010E6E6F010100950001D0417F0BEA6A00
:101D7000D10FE96E000EEA22EF50010A1FE0020ABD
:101D800010E0010A01E02FD00C01020E836F0C015C
:101D9000270E826F0C010E0E726F0C01090E7A6F06
:101DA00024D00C01030E836F0C01280E826F0C01EE
:101DB000070E726F0C010A0E7A6F17D00C01010E1C
:101DC000836F0C01260E826F0C01010E726F0C01E5
:101DD000060E7A6F86CC86FC87CC87FC0C01D890E7
:101DE0008733863302D0000E3AD029EC00F0020887
:101DF00003E10001D02B03D0020E0001D0270C011B
:101E0000020E6E6F2CD029EC00F0000926E10001D3
:101E1000D02B0C01695102E1000E21D00C01020E01
:101E20006E6F0801020E416F1FEC41F0146E156ACF
:101E3000FE0E141801E1155010E10801010E416F6A
:101E40001FEC41F0010809E10801030E416F1FEC8E
:101E500041F0010802E1000E02D0020E00D0120093
:101E60000001F80517E148EC40F0010809E1010123
:101E700001010151010B04E00001DB6B000EB4D045
:101E80000C01010E786F0C017A6B0001F76B020EEA
:101E9000ABD0AAD00001020EDB6F0001F751040A9B
:101EA00001E19AD0070A73E0010A4DE0030A23E03A
:101EB000010A01E097D048EC40F0010804E100017C
:101EC000040EF76F16D00C01010E6E6F0C010C0E94
:101ED000726F0C0173690C01746938EC02F000092F
:101EE00002E1000E81D00001010EF76F0C01020E1D
:101EF0006E6F020E79D048EC40F0010816E00C013C
:101F0000020E6E6F38EC02F000090EE10801010EBE
:101F10006A6F08010F0E696F0801020E686F04EC0A
:101F200059F00001040EF76F0CD00C016E6B38EC09
:101F300002F0000903E10001040EF76F0C01020E2C
:101F40006E6F020E51D069EC40F0010804E100010F
:101F5000040EF76F1AD00C01010E6E6F0C010C0EFF
:101F6000726F0C01130E736F0C011A0E746F0C015B
:101F7000756938EC02F0000902E1000E35D000016D
:101F8000030EF76F0C01020E6E6F020E2DD069EC7E
:101F900040F0010816E00C01020E6E6F38EC02F002
:101FA00000090EE10801010E6A6F08010F0E696F4A
:101FB0000801020E686F04EC59F00001040EF76F7F
:101FC00009D00C016E6B38EC02F0000903E100014E
:101FD000040EF76F020E08D0010101810001DB6BD6
:101FE000000E02D0000E00D012000001F90527E11A
:101FF00048EC40F000090AE1010101010151010B27
:1020000005E10001010EDB6F000E4CD00C01010E4A
:10201000786F0C01010E7A6F0001F76B0C011B0E3B
:10202000726F0C0173690C01010E6E6F38EC02F0D7
:10203000000902E1000E36D0020E34D033D0010187
:102040000B0ED8802E55080E2F5504E20001040E09
:10205000DB6F03D00001030EDB6F0C01020E6E6F0D
:1020600038EC02F000091CE148EC40F000090BE0FC
:102070000801010E6A6F08010F0E696F0801020E58
:10208000686F04EC59F0010101010151010B02E0FC
:10209000000E01D0010E0001010EDB6F000E02D018
:1020A000020E00D012000001FB51146E156AFE0EE4
:1020B000141801E115501AE10001FA51040A11E067
:1020C000030A0FE00E0A0DE0020A0BE01D0A09E008
:1020D000010A07E0180A05E0020A03E00E0A01E01F
:1020E00002D0000E1CD0020E1AD019D00001FA51F5
:1020F000050A11E0030A0FE00E0A0DE0020A0BE0E8
:102100001E0A09E0010A07E01B0A05E0020A03E0D3
:102110000E0A01E002D0000E02D0020E00D0120022
:1021200008015A0E006F010E016F5AEC37F00801DA
:10213000040E026F03EC38F0F3CF14F0F4CF15F077
:1021400014C0E6FF15C0E6FF0801030E026F03ECA2
:1021500038F0E552E7CF15F0E552E7CF14F0000173
:10216000F350145CFC6FF4501558FD6FFCC0F3FF86
:08217000FDC0F4FF00D01200D5
:0821780001015B3504E25A513C
:102180000808070E5B5509E30101D8805B5104E79D
:10219000F80E5A5DF80E5B5902E2000E87D001017D
:1021A0005D3504E25C510808070E5D5509E3010145
:1021B000D8805D5104E7F80E5C5DF80E5D5902E2CF
:1021C000000E74D001015F3504E25E510808070E6D
:1021D0005F5509E30101D8805F5104E7F80E5E5DA9
:1021E000F80E5F5902E2000E61D00101613504E290
:1021F00060510808070E615509E30101D88061515B
:1022000004E7F80E605DF80E615902E2000E4ED050
:102210004ED808C74AF78CEC1FF008C70FF7A2D9B1
:102220000701096F0701095103E0070109513ED079
:1022300008C740F7B1EC1EF00701096F070109510B
:1022400003E00701095132D008C72EF7B7EC1DF0A3
:102250000701096F0701095103E00701095126D061
:102260000101BE0E901901E191510BE008C712F770
:10227000FDD90701096F0701095103E00701095161
:1022800015D0A10E0101921902E1030E93190CE081
:1022900008C71EF775EC18F00701096F070109510F
:1022A00003E00701095102D0000E00D01200010125
:1022B000B80E946F010E956F820E0101966F976BA9
:1022C00002013D0520E12AC1F6FF2BC1F7FFD8909E
:1022D000F732F632D890F732F632000ED880F65642
:1022E000040EF756010ED890F636F736E806FBE1F5
:1022F000A40EF626950EF7220900F5CF98F10A00F4
:10230000F5CF99F11AD02AC1F6FF2BC1F7FFD8906B
:10231000F732F632D890F732F632010ED890F63610
:10232000F736E806FBE1A40EF626950EF722090023
:10233000F5CF98F10A00F5CF99F10101010198510B
:102340000401A6250101986F0101010199510401C1
:10235000A7210101996F0101800E5B1505E15AC1AA
:102360000CF75BC10DF709D05AC10CF75BC10DF733
:1023700007010C6D0D1F000E0D230CC7F6FF0DC7D6
:10238000F7FF0A0E0D6E0E6AF6CF08F0F7CF09F0D0
:1023900027EC68F008C0F6FF09C0F7FFD890F636C2
:1023A000F736760EF626D60EF7220900F5CF9AF10B
:1023B0000A00F5CF9BF194C10AF795C10BF7010E06
:1023C0000F0B070105E0D8900B330A33E806FBE159
:1023D0000101800E5D1508E15CC10CF75DC10DF7D0
:1023E0000701010E0E6F0BD05CC10CF75DC10DF73C
:1023F00007010C6D0D1F000E0D2307010E6B0CC79E
:10240000F6FF0DC7F7FF0A0E0D6E0E6AF6CF08F045
:10241000F7CF09F027EC68F008C0F6FF09C0F7FF16
:10242000D890F636F736A20EF626C70EF722090028
:10243000F5CF14F00800F5CF15F0070114C0E8FF40
:102440000A03F3CF9CF1F4CF9DF10B03F35001018C
:102450009D2715C0E8FF07010A03F35001019D27DE
:10246000320E0D6E0E6A9CC108F09DC109F027EC7A
:1024700068F008C09CF109C09DF107010E5109E107
:102480009CC19CF19DC19DF101019C6D9D1F000EA1
:102490009D2396C10AF797C10BF7020E0D6E0E6AC7
:1024A0000AC708F00BC709F027EC68F008C00AF764
:1024B00009C00BF70701800E0B1509E00AC70AF7E0
:1024C0000BC70BF707010A6D0B1F000E0B230CC780
:1024D000F6FF0DC7F7FF0A0E0D6E0E6AF6CF08F075
:1024E000F7CF09F027EC68F008C0F6FF09C0F7FF46
:1024F000D890F636F736A20EF626C70EF722090058
:10250000F5CF14F00800F5CF15F0070114C0E8FF6F
:102510000A03F3CF9EF1F4CF9FF10B03F3500101B7
:102520009F2715C0E8FF07010A03F35001019F2709
:10253000320E0D6E0E6A9EC108F09FC109F027ECA5
:1025400068F008C09EF109C09FF107010E0509E17E
:102550009EC19EF19FC19FF101019E6D9F1F000EC4
:102560009F2312000801020E026F03EC38F0F3CF34
:1025700010F7F4CF11F7020E07010F5D1EE10701FE
:1025800011510401A319E8AE02D0A33507D0A2511E
:102590000701105D0401A351070111590EE3FEEC80
:1025A00040F0146E156AFC0E141801E1155005E197
:1025B0000701010E006FFE0E58D0070E07010F5DD8
:1025C00012E1070111510401A319E8AE02D0A335AD
:1025D00007D0A2510701105D0401A3510701115951
:1025E00002E3FE0E42D0150E0C01035D08E0150E4D
:1025F0000C01365D04E0150E0C01695D32E101014C
:10260000D880615104E7A80E605DFD0E615928E293
:10261000010194510701015D010195510701025922
:102620001FE2030E07010F5D04E0040E07010F5DBA
:1026300017E10701055104018C5D070106510401F2
:102640008D590CE30101BE0E901901E1915106E094
:102650000701010E076F800E08D002D0010E05D0D1
:1026600002D00701076B000E00D012000101613596
:1026700004E260510008000E615503E2000E74EFA1
:1026800018F060C113F761C114F70701136D141F2F
:10269000000E142313C7F6FF14C7F7FF0A0E0D6EC2
:1026A0000E6AF6CF08F0F7CF09F027EC68F008C003
:1026B000F6FF09C0F7FFD890F636F736A20EF626D9
:1026C000C70EF7220900F5CF16F00800F5CF17F076
:1026D000020E146E156A90C108F091C109F014C081
:1026E0000DF015C00EF09FEC6BF016C00DF017C08A
:1026F0000EF07AEC68F006C01CF707C01DF7320E2A
:102700000D6E0E6A1CC708F01DC709F09FEC6BF038
:1027100008C01CF709C01DF7070107011C51010182
:102720009C25146E070107011D5101019D21156EA5
:10273000145001019A250701056F155001019B21D5
:102740000701066F070105510101985D0701056F3B
:1027500007010651010199590701066F0101800E19
:10276000611501E1C3D060C113F761C114F707011E
:10277000136D141F000E14230701143504E21351C6
:102780008408030E145558E213C713F714C714F73F
:102790000701840E135F030E145B13C7F6FF14C703
:1027A000F7FF0A0E0D6E0E6AF6CF08F0F7CF09F0AC
:1027B00027EC68F008C0F6FF09C0F7FFD890F6369E
:1027C000F736A20EF626C70EF7220900F5CF16F04F
:1027D0000800F5CF17F0020E146E156A90C108F0CC
:1027E00091C109F014C00DF015C00EF09FEC6BF014
:1027F00016C00DF017C00EF07AEC68F006C001F7B5
:1028000007C002F7320E0D6E0E6A01C708F002C74C
:1028100009F09FEC6BF008C001F709C002F707014F
:1028200001510101945D0701016F0701025101018E
:1028300095590701026F5AD013C713F714C714F73D
:102840000701840ED8801357030E145713C7F6FFE1
:1028500014C7F7FF0A0E0D6E0E6AF6CF08F0F7CF19
:1028600009F027EC68F008C0F6FF09C0F7FFD89020
:10287000F636F736A20EF626C70EF7220900F5CF78
:1028800016F00800F5CF17F0020E146E156A90C10D
:1028900008F091C109F014C00DF015C00EF09FECC6
:1028A0006BF016C00DF017C00EF07AEC68F006C0A1
:1028B00001F707C002F7320E0D6E0E6A01C708F06D
:1028C00002C709F09FEC6BF008C001F709C002F7DE
:1028D000010101019451070101250701016F010167
:1028E00001019551070102210701026F01016051A9
:1028F00061110EE1010101019451010190250701CF
:10290000016F010101019551010191210701026F40
:10291000840E0101601902E1030E611904E194C102
:1029200001F795C102F7070101510401905D07010C
:1029300002510401915901E3C9D0010194510401EC
:10294000901904E1010195510401911916E1010169
:1029500001019C5101019A25146E010101019D5153
:1029600001019B21156E14500101985D07011A6F3A
:1029700015500101995907011B6F04019051010184
:10298000945D040191510101955901E39FD001012A
:1029900094510401905D0701186F010195510401E4
:1029A00091590701196F60C113F761C114F707014D
:1029B000800E141509E013C713F714C714F70701A5
:1029C000136D141F000E142313C7F6FF14C7F7FF6F
:1029D0000A0E0D6E0E6AF6CF08F0F7CF09F027EC5D
:1029E00068F008C0F6FF09C0F7FFD890F636F73652
:1029F000A20EF626C70EF7220800F5CF16F713C76A
:102A000013F714C714F70701840ED8801357030E69
:102A1000145713C7F6FF14C7F7FF0A0E0D6E0E6AA0
:102A2000F6CF08F0F7CF09F027EC68F008C0F6FF02
:102A300009C0F7FFD890F636F736A20EF626C70E75
:102A4000F7220800F5CF17F707011751186E196A1A
:102A500007011651166E176A18C708F019C709F052
:102A600016C00DF017C00EF07AEC68F006C014F036
:102A700007C015F014C008F015C009F018C00DF01B
:102A800019C00EF09FEC6BF008C01AF709C01BF7D5
:102A9000070107011A5101019A25166E0701070166
:102AA0001B5101019B21176E165001019C25146ECC
:102AB000175001019D21156E14500101985D070109
:102AC0001A6F15500101995907011B6F0701015138
:102AD0000401901904E107010251040191191EE15A
:102AE000070107011C5101019A25166E0701070114
:102AF0001D5101019B21176E165001019C25146E7A
:102B0000175001019D21156E14500101985D0701B8
:102B10001A6F15500101995907011B6F90C414F0E9
:102B200091C415F01E0E145E000E155A07011450C4
:102B3000015D1550025904E207011A6B100E1B6F5C
:102B40008CC414F08DC415F0370E145E000E155AA7
:102B500007010551145C0651155801E2A2D0070186
:102B6000D890025104E69E0E015D020E025901E268
:102B700098D001019E0E945D020E955901E291D00C
:102B80005AC113F75BC114F70701800E141509E051
:102B900013C713F714C714F70701136D141F000EA2
:102BA0001423030E0701125D27E113C714F014C7A5
:102BB00015F07A0ED8801456030E1556146C151E97
:102BC000000E1522010115506119E8AE02D06135E1
:102BD00004D06051145C615115580CE20701055195
:102BE0000401925D070106510401935903E2000EAE
:102BF0007BD202D0010E78D2060E0701125D27E1CA
:102C000013C714F014C715F08E0ED8801456030E97
:102C10001556146C151E000E152201011550611970
:102C2000E8AE02D0613504D06051145C6151155892
:102C30000CE2070105510401925D070106510401F0
:102C4000935903E2000E50D202D0010E4DD207017B
:102C5000120527E113C714F014C715F08E0ED880A3
:102C60001456030E1556146C151E000E1522010184
:102C700015506119E8AE02D0613504D06051145C82
:102C8000615115580CE2070105510401925D0701DD
:102C900006510401935903E2000E26D202D0FE0E23
:102CA00023D2040190510701015D040191510701F4
:102CB00002593AE20701023504E20151B308010E5C
:102CC000025532E201C718F702C719F70701B30E20
:102CD000185F010E195B18C718F719C719F7030E0B
:102CE0000F0B070105E0D89019331833E806FBE114
:102CF000070107010551070118250701056F0701A5
:102D000007010651070119210701066F0701070195
:102D10001A510701182507011A6F070107011B51F6
:102D20000701192107011B6F5AC113F75BC114F783
:102D30000701800E141509E013C713F714C714F721
:102D40000701136D141F000E14230701143504E24C
:102D500013511408000E145509E21AC71AF71BC7BD
:102D60001BF70701640E1A5F000E1B5B0701015180
:102D70000401905D07010251040191591EE307010E
:102D80001A5104018C5D07011B5104018D5914E295
:102D90000701055104018C5D0701065104018D599D
:102DA0000BE20701015104018E5D0701025104018C
:102DB0008F5902E2000E98D114D007011A51040174
:102DC0008C5D07011B5104018D590BE20701055170
:102DD0000401925D070106510401935902E2000EBD
:102DE00083D107011251040A01E11FD1070A01E151
:102DF0001CD1060A01E190D0030A52E0070A4EE016
:102E0000010A01E06DD1070101510401905D070144
:102E100002510401915914E304018C5107011A5D18
:102E200004018D5107011B590BE304018C5107016B
:102E3000055D04018D510701065902E3000E54D1CE
:102E4000070101510401905D0701025104019159EC
:102E500014E204018C5107011A5D04018D51070130
:102E60001B590BE3040192510701055D04019351C5
:102E70000701065902E3000E37D10101800E5B15F0
:102E800002E0010E31D101015B3504E25A51000824
:102E9000000E5B5502E2FE0E27D124D1FE0E24D196
:102EA000070101510401905D07010251040191598C
:102EB00014E304018C5107011A5D04018D510701CF
:102EC0001B590BE304018C510701055D04018D5171
:102ED0000701065902E3000E07D107010151040161
:102EE000905D070102510401915914E204018C51D3
:102EF00007011A5D04018D5107011B590BE3040101
:102F000092510701055D040193510701065902E33F
:102F1000000EEAD0010EE8D004018E510701015DD8
:102F200004018F510701025902E2010EDDD090C465
:102F300014F091C415F0140E145E000E155A07011A
:102F40000151145C025115580FE2140E0401176A66
:102F50009025166E9151172207010151165C0251FE
:102F6000175802E3010EC0D0070101510401905D22
:102F700007010251040191590BE207011A510401A2
:102F80008C5D07011B5104018D5902E3010EACD089
:102F9000070101510401905D07010251040191599B
:102FA00013E2070105510401925D07010651040176
:102FB00093590AE301015D3504E25C510008000EFB
:102FC0005D5502E2FE0E90D05CC113F75DC114F7AF
:102FD0000701800E141509E013C713F714C714F77F
:102FE0000701136D141F000E1423140E070114AFF4
:102FF00002D0D89003D0135D000E145902E2000EE7
:1030000073D00701055104018C5D070106510401CD
:103010008D5903E2000E68D008D00101800E5D15C5
:1030200002E0010E61D0FE0E5FD0070101510401E4
:10303000905D07010251040191593DE307010151DF
:1030400004018E5D0701025104018F5902E3010E54
:103050004BD0010194510701015D01019551070118
:10306000025914E20701055104018C5D0701065164
:1030700004018D5909E207011A5104018C5D070111
:103080001B5104018D5902E3FE0E2ED0070105519C
:1030900004018C5D0701065104018D5909E2070105
:1030A0001A5104018C5D07011B5104018D5902E383
:1030B000010E1AD014D0070105510401925D0701D9
:1030C00006510401935909E207011A5104018C5D6C
:1030D00007011B5104018D5902E3010E05D002D0F6
:1030E000000E02D0000E00D0120001015F3504E294
:1030F0005E510008000E5F5503E2000EB6EF1DF0B2
:103100000101800E5F1508E15EC121F75FC122F762
:103110000701010E236F0BD05EC121F75FC122F7BB
:103120000701216D221F000E22230701236B21C7F7
:10313000F6FF22C7F7FF0A0E0D6E0E6AF6CF08F0F3
:10314000F7CF09F027EC68F008C0F6FF09C0F7FFD9
:10315000D890F636F736A20EF626C70EF7220900EB
:10316000F5CF16F00800F5CF17F0020E146E156AB1
:1031700092C108F093C109F014C00DF015C00EF013
:103180009FEC6BF016C00DF017C00EF07AEC68F0F3
:1031900006C02AF707C02BF7320E0D6E0E6A2AC73B
:1031A00008F02BC709F09FEC6BF008C02AF709C0A4
:1031B0002BF70701235109E02AC72AF72BC72BF762
:1031C00007012A6D2B1F000E2B23070107012A512F
:1031D00001019E25146E070107012B5101019F215A
:1031E000156E145001019A2507012C6F155001012D
:1031F0009B2107012D6F07012C510101985D0701EB
:103200002C6F07012D510101995907012D6F010103
:10321000800E5F1501E1C4D05EC121F75FC122F7C6
:103220000701216D221F000E22230701D890225191
:1032300004E6840E215D030E225958E321C721F7CD
:1032400022C722F70701840E215F030E225B21C7EC
:10325000F6FF22C7F7FF0A0E0D6E0E6AF6CF08F0D2
:10326000F7CF09F027EC68F008C0F6FF09C0F7FFB8
:10327000D890F636F736A20EF626C70EF7220900CA
:10328000F5CF16F00800F5CF17F0020E146E156A90
:1032900092C108F093C109F014C00DF015C00EF0F2
:1032A0009FEC6BF016C00DF017C00EF07AEC68F0D2
:1032B00006C003F707C004F7320E0D6E0E6A03C78F
:1032C00008F004C709F09FEC6BF008C003F709C0D1
:1032D00004F7070103510101965D0701036F070120
:1032E0000451010197590701046F5AD021C721F7F2
:1032F00022C722F70701840ED8802157030E2257D8
:1033000021C7F6FF22C7F7FF0A0E0D6E0E6AF6CF31
:1033100008F0F7CF09F027EC68F008C0F6FF09C005
:10332000F7FFD890F636F736A20EF626C70EF7222C
:103330000900F5CF16F00800F5CF17F0020E146E55
:10334000156A92C108F093C109F014C00DF015C0C0
:103350000EF09FEC6BF016C00DF017C00EF07AEC7B
:1033600068F006C003F707C004F7320E0D6E0E6A50
:1033700003C708F004C709F09FEC6BF008C003F71F
:1033800009C004F701010101965107010325070156
:10339000036F010101019751070104210701046F27
:1033A00001015E515F110EE1010101019651010120
:1033B00092250701036F010101019751010193213A
:1033C0000701046F01015F3504E25E510008000E41
:1033D0005F555AE221C721F722C722F70701840E61
:1033E000D8802157030E225721C7F6FF22C7F7FFC7
:1033F0000A0E0D6E0E6AF6CF08F0F7CF09F027EC33
:1034000068F008C0F6FF09C0F7FFD890F636F73627
:10341000A20EF626C70EF7220900F5CF16F0080017
:10342000F5CF17F0020E146E156A92C108F093C121
:1034300009F014C00DF015C00EF09FEC6BF016C033
:103440000DF017C00EF07AEC68F006C003F707C065
:1034500004F7320E0D6E0E6A03C708F004C709F0B8
:103460009FEC6BF008C003F709C004F701010101EC
:103470009651070103250701036F010101019751CF
:10348000070104210701046F070103510401985D3E
:10349000070104510401995901E3D6D00101800EBE
:1034A000971509E096C196F197C197F10101966DC4
:1034B000971F000E9723010196510401981904E10A
:1034C000010197510401991916E1010101019E5171
:1034D00001019A25146E010101019F5101019B21F7
:1034E000156E14500101985D0701286F15500101F8
:1034F00099590701296F040198510101965D040152
:1035000099510101975901E39FD00101965104019E
:10351000985D0701266F0101975104019959070130
:10352000276F5EC121F75FC122F70701800E2215C8
:1035300009E021C721F722C722F70701216D221FC9
:10354000000E222321C7F6FF22C7F7FF0A0E0D6ED9
:103550000E6AF6CF08F0F7CF09F027EC68F008C044
:10356000F6FF09C0F7FFD890F636F736A20EF6261A
:10357000C70EF7220800F5CF24F721C721F722C78D
:1035800022F70701840ED8802157030E225721C746
:10359000F6FF22C7F7FF0A0E0D6E0E6AF6CF08F08F
:1035A000F7CF09F027EC68F008C0F6FF09C0F7FF75
:1035B000D890F636F736A20EF626C70EF722080088
:1035C000F5CF25F707012551186E196A0701245117
:1035D000166E176A26C708F027C709F016C00DF047
:1035E00017C00EF07AEC68F006C014F007C015F0B2
:1035F00014C008F015C009F018C00DF019C00EF085
:103600009FEC6BF008C028F709C029F707010701F4
:10361000285101019A25166E070107012951010160
:103620009B21176E165001019E25146E1750010143
:103630009F21156E14500101985D0701286F1550E8
:10364000010199590701296F010196510401985D03
:10365000010197510401995901E3A1D098C41FF7C2
:1036600099C420F7010E0F0B070105E0D890203315
:103670001F33E806FBE10101800E5D1508E15CC126
:1036800021F75DC122F70701010E236F0BD05CC14A
:1036900021F75DC122F70701216D221F000E2223B1
:1036A0000701236B21C7F6FF22C7F7FF0A0E0D6E35
:1036B0000E6AF6CF08F0F7CF09F027EC68F008C0E3
:1036C000F6FF09C0F7FFD890F636F736A20EF626B9
:1036D000C70EF7220900F5CF14F00800F5CF15F05A
:1036E000070114C0E8FF1F03F3CF28F7F4CF29F731
:1036F0002003F3500701292715C0E8FF07011F0326
:10370000F35007012927320E0D6E0E6A28C708F004
:1037100029C709F027EC68F008C028F709C029F785
:10372000070123511EE1010101019A5101019E256A
:10373000166E010101019B5101019F21176E0701C6
:103740002851165C146E29511758156E145001013A
:10375000985D0701286F1550010199590701296FDC
:103760001ED007010701285101019A25166E070195
:103770000701295101019B21176E165001019E2559
:10378000146E175001019F21156E14500101985DB0
:103790000701286F1550010199590701296F070189
:1037A00003510401981904E1070104510401991916
:1037B0001EE1070107012A5101019A25166E070132
:1037C00007012B5101019B21176E165001019E2507
:1037D000146E175001019F21156E14500101985D60
:1037E0000701286F1550010199590701296F04013C
:1037F00098510701035D040199510701045903E23F
:103800000701286929690801020E026F03EC38F0EC
:10381000F3CF21F7F4CF22F7070103510401985D9C
:1038200007010451040199591EE3070128510401BD
:10383000965D070129510401975914E207012C51A3
:103840000401965D07012D51040197590BE2070110
:1038500003510401945D070104510401955902E2EA
:10386000000E84D114D0070128510401965D070190
:103870002951040197590BE207012C5104019A5D6B
:1038800007012D5104019B5902E2000E6FD107017F
:103890001E51020A01E11BD1070A01E193D0030A7C
:1038A00055E0070A4EE0010A01E05CD1070103512F
:1038B0000401985D070104510401995914E30401BE
:1038C00096510701285D04019751070129590BE31F
:1038D0000401965107012C5D0401975107012D59F0
:1038E00002E3000E43D1070103510401985D070173
:1038F00004510401995914E2040196510701285D0D
:1039000004019751070129590BE304019A5107015A
:103910002C5D04019B5107012D5902E3000E26D1B5
:103920000101800E5B1502E0010E20D101015B3523
:1039300004E25A510008000E5B5502E2FE0E16D159
:1039400013D10701010E006F010E10D107010351C1
:103950000401985D070104510401995914E307011A
:103960002C510401965D07012D51040197590BE27A
:10397000070128510401965D070129510401975957
:1039800002E2000EF3D0070103510401985D070124
:1039900004510401995914E207012C5104019A5D64
:1039A00007012D5104019B590BE207012851040125
:1039B000965D070129510401975902E2000ED6D005
:1039C000010ED4D0040194510701035D0401955107
:1039D0000701045902E2FE0EC9D098C414F099C43C
:1039E00015F00A0E145E000E155A07010351145CFF
:1039F000045115580FE21E0E0401176A9825166E21
:103A00009951172207010351165C0451175802E31C
:103A1000FE0EACD0070103510401985D070104516B
:103A2000040199590BE2070128510401965D070131
:103A300029510401975902E3FE0E98D00701035162
:103A40000401985D07010451040199590FE207012F
:103A50002C5104019A5D07012D5104019B5906E385
:103A60000101800E5D1502E0010E80D05CC121F7DE
:103A70005DC122F70701800E221509E021C721F759
:103A800022C722F70701216D221F000E2223140EE8
:103A9000070122AF02D0D89003D0215D000E225939
:103AA00002E2000E63D007012C510401965D07016C
:103AB0002D510401975903E2000E58D008D001019E
:103AC000800E5D1502E0010E51D0FE0E4FD00701B1
:103AD00003510401985D07010451040199592AE337
:103AE000070103510401945D070104510401955934
:103AF00009E30101800E5F1505E00701010E006F6B
:103B0000010E34D007012C510401965D07012D519F
:103B10000401975909E2070128510401965D070144
:103B200029510401975905E30701010E006F010EA9
:103B30001DD017D007012C5104019A5D07012D51AA
:103B400004019B5909E2070128510401965D070110
:103B500029510401975905E30701010E006F010E79
:103B600005D002D0000E02D0000E00D012005AC1C3
:103B70002FF75BC130F75CC13CF75DC13DF7070132
:103B8000800E30150DE00701010E376F2FC72FF79C
:103B900030C730F707012F6D301F000E302302D0E1
:103BA0000701376B2FC73EF730C73FF70A0E0D6E80
:103BB0000E6A3EC708F03FC709F027EC68F008C05E
:103BC0003EF709C03FF70701140ED8803E55000E9E
:103BD0003F5504E2140E07013E6F3F6B07013705A6
:103BE00029E13EC7F6FF3FC7F7FF010ED890F63632
:103BF000F736E806FBE16A0EF626D70EF722090033
:103C0000F5CF38F70A00F5CF39F73EC7F6FF3FC7C3
:103C1000F7FF010ED890F636F736E806FBE1940E72
:103C2000F626D70EF7220900F5CF3AF70A00F5CFAE
:103C30003BF728D03EC7F6FF3FC7F7FF010ED890ED
:103C4000F636F736E806FBE1E80EF626D70EF72241
:103C50000900F5CF38F70A00F5CF39F73EC7F6FF70
:103C60003FC7F7FF010ED890F636F736E806FBE1BE
:103C7000BE0EF626D70EF7220900F5CF3AF70A0056
:103C8000F5CF3BF70701303504E22F511908000E3C
:103C9000305502E3000E64D007012E0512E1070142
:103CA000395107013D19E8AE02D03D3507D03C51EE
:103CB0000701385D07013D510701395902E3010E43
:103CC0004FD007012E0512E107013D5107013B19B5
:103CD000E8AE02D03B3507D03A5107013C5D070101
:103CE0003B5107013D5902E3FE0E3AD007012E5128
:103CF00019E10701395107013D19E8AE02D03D3500
:103D000007D03C510701385D07013D510701395982
:103D100009E30101800E5B1503E0010E21D002D002
:103D2000FE0E1ED007012E5119E107013D5107017A
:103D30003B19E8AE02D03B3507D03A5107013C5D54
:103D400007013B5107013D5909E30101800E5B1555
:103D500003E0010E05D002D0FE0E02D0000E00D00E
:103D600012005CC147F75DC148F70701800E481596
:103D700009E047C747F748C748F70701476D481F9D
:103D8000000E48230701483504E247518408030E1A
:103D900048550AE247C747F748C748F70701840E66
:103DA000475F030E485B0AD047C747F748C748F745
:103DB0000701840ED8804757030E485747C7F6FFC0
:103DC00048C7F7FF0A0E0D6E0E6AF6CF08F0F7CF60
:103DD00009F027EC68F008C0F6FF09C0F7FFD8909B
:103DE000F636F736A20EF626C70EF7220900F5CFF3
:103DF00014F00800F5CF15F0B90E086E096A14C06A
:103E00000DF015C00EF04DEC68F006C045F707C088
:103E100046F7640E0D6E0E6A45C708F046C709F0F6
:103E200027EC68F008C045F709C046F701019A5130
:103E30000101985D146E995101019B55156E0101A8
:103E400001019E5107014525166E010101019F5197
:103E500007014621176E07011650145C416F175079
:103E60001558426F01019A510101985D146E9951E4
:103E700001019B55156E010101019C51070145256A
:103E8000166E010101019D5107014621176E0701C0
:103E90001650145C436F17501558446F0401965127
:103EA0000701415D04019751070142590BE30401E9
:103EB0008C510701435D04018D510701445902E310
:103EC000000E29D007014051060A21E0030A12E042
:103ED000040A10E0010A01E01CD001015B3504E294
:103EE0005A510008000E5B5503E3010E14D002D0B6
:103EF000FE0E11D001015D3504E25C510008000E98
:103F00005D5503E3010E07D002D0FE0E04D0010E72
:103F100002D0000E00D0120086C44EF787C44FF7BF
:103F20000401885107014E5D0401895107014F5971
:103F300004E288C44EF789C44FF704018A5107018F
:103F40004E5D04018B5107014F5904E28AC44EF7BC
:103F50008BC44FF780C450F781C451F704018251DC
:103F60000701505D040183510701515904E282C4E5
:103F700050F783C451F7040184510701505D0401D7
:103F800085510701515904E284C450F785C451F7A3
:103F900007014B6B0701030E546F22C152F723C177
:103FA00053F774D807014C6F0701040E546F24C1F6
:103FB00052F725C153F76AD807014D6F07014B51DE
:103FC000E96EEA6AD890E936EA36860EE926040EEA
:103FD000EA22EECF92F1EDCF93F10B0E07014C5D8B
:103FE00009E00B0E07014D5D05E007014D5107018A
:103FF0004C5D2FE050C790F151C791F1030E0701BE
:104000004A5D08E0040E07014A5D04E0030E070163
:104010004A5D1EE10B0E07014D5D0BE10801010E2B
:104020006A6F08010A0E696F0801020E686F04ECDE
:1040300059F00B0E07014C5D0BE10801010E6A6F90
:104040000801090E696F0801020E686F04EC59F04F
:104050001CD0050E07014C5D04E0050E07014D5D07
:1040600005E1BE0E0101906F916B0FD007014C511D
:10407000E96EEA6AD890E936EA36800EE926040E3F
:10408000EA22EECF90F1EDCF91F1120007019A0EE6
:10409000D8805255010E535506E20701CF0E525DEE
:1040A0000C0E535902E30B0EA5D007015451040A1C
:1040B00061E0070A31E0010A01E08AD00701990EA8
:1040C000D8805255060E535508E30701F50E525D90
:1040D000050E535902E3000E8DD00701D80ED8808B
:1040E0005255070E535508E30701340E525D070E73
:1040F000535902E3010E7ED00701830ED88052553A
:10410000050E535508E30701DF0E525D040E5359A7
:1041100002E3020E6FD05DD00701990ED880525590
:10412000060E535508E30701F50E525D050E53596F
:1041300002E3010E5FD00701D80ED8805255070E5A
:10414000535508E30701340E525D070E535902E33D
:10415000000E50D00701830ED8805255050E5355DE
:1041600008E30701DF0E525D040E535902E3020E0D
:1041700041D02FD00701990ED8805255060E5355C5
:1041800008E30701F50E525D050E535902E3000ED8
:1041900031D00701D80ED8805255070E535508E389
:1041A0000701340E525D070E535902E3010E22D06F
:1041B0000701830ED8805255050E535508E30701B9
:1041C000DF0E525D040E535902E3020E13D001D0EC
:1041D00000D00701890ED88052550A0E535508E3C6
:1041E0000701E50E525D090E535902E3050E02D098
:0641F0000B0E00D01200CE
:0A41F6000001612B040E0001615D61
:1042000004E30001602B0001616B000160B143D049
:104210000001626B00017F0E636F86868698000145
:10422000C16B81D8010804E1000162810001639142
:104230000001010EC16F77D8010804E1000162831B
:10424000000163930001020EC16F6DD8010804E103
:1042500000016285000163950001030EC16F63D800
:10426000010804E100016287000163970001040E68
:10427000C16F59D8010804E1000162890001639906
:104280000001050EC16F4FD8010804E10001628BE7
:104290000001639B43D00001626B00017F0E636FDE
:1042A000869686880001060EC16F3DD8010804E19C
:1042B00000016281000163910001070EC16F33D8D4
:1042C000010804E100016283000163930001080E0C
:1042D000C16F29D8010804E10001628500016395DE
:1042E0000001090EC16F1FD8010804E100016287B7
:1042F0000001639700010A0EC16F15D8010804E19F
:10430000000162890001639900010B0EC16F0BD897
:10431000010804E10001628B0001639B62C085FF1C
:1043200063C097FF12000001C151EA6A780FE96E7D
:10433000010EEA22EF50100A27E0300A1DE0600A61
:1043400013E0C00A09E07F0A05E0FF0A01E024D07B
:10435000000E2BD0010E29D0000160BF03D0000E4B
:1043600024D002D0010E21D0000160BD03D0000E88
:104370001CD002D0010E19D0000160BB03D0000E8A
:1043800014D002D0010E11D0000160B903D0000E8C
:104390000CD002D0010E09D0080E0001605D03E2CE
:1043A000010E03D002D0000E00D01200869686982F
:1043B000976A856A050EE66E27EC6CF0E5520001FF
:1043C000B851060A01E147D1030A01E1F7D0010A19
:1043D00001E1C5D0070A01E193D0010A62E0030AB6
:1043E00031E0010A01E09DD17E0E976E010E856ECF
:1043F000280EE66E27EC6CF0E5520001C36B00015D
:10440000020EC26F99D90001010EC36F0001040EA4
:10441000C26F92D90001020EC36F0001080EC26F75
:104420008BD90001030EC36F0001100EC26F84D937
:104430000001040EC36F0001200EC26F7DD9000180
:10444000B82B72D17D0E976E020E856E280EE66E29
:1044500027EC6CF0E5520001050EC36F0001010E60
:10446000C26F6AD90001060EC36F0001040EC26F4D
:1044700063D90001070EC36F0001080EC26F5CD93B
:104480000001080EC36F0001100EC26F55D9000164
:10449000090EC36F0001200EC26F4ED90001B82B68
:1044A00043D17B0E976E040E856E280EE66E27ECC8
:1044B0006CF0E55200010A0EC36F0001010EC26FDD
:1044C0003BD900010B0EC36F0001020EC26F34D93D
:1044D00000010C0EC36F0001080EC26F2DD9000140
:1044E0000D0EC36F0001100EC26F26D900010E0E13
:1044F000C36F0001200EC26F1FD90001B82B14D169
:10450000770E976E080E856E280EE66E27EC6CF01F
:10451000E55200010F0EC36F0001010EC26F0CD9EE
:104520000001100EC36F0001020EC26F05D9000119
:10453000110EC36F0001040EC26FFED80001120EEF
:10454000C36F0001100EC26FF7D80001130EC36FC6
:104550000001200EC26FF0D80001B82BE5D06F0E1D
:10456000976E100E856E280EE66E27EC6CF0E55205
:104570000001140EC36F0001010EC26FDDD80001EF
:10458000150EC36F0001020EC26FD6D80001160EC1
:10459000C36F0001040EC26FCFD80001170EC36FA6
:1045A0000001080EC26FC8D80001180EC36F0001C9
:1045B000200EC26FC1D80001B82BB6D03F0E976E47
:1045C000400E856E280EE66E27EC6CF0E552000179
:1045D000270EC36F0001010EC26FAED80001250E79
:1045E000C36F0001020EC26FA7D80001230EC36F74
:1045F0000001040EC26FA0D80001210EC36F00019C
:10460000080EC26F99D83F0E976E800E856E280EE9
:10461000E66E27EC6CF0E5520001260EC56F000136
:10462000010EC46FDDD80001240EC56F0001020E1B
:10463000C46FD6D80001220EC56F0001040EC46FEE
:10464000CFD80001200EC56F0001080EC46FC8D876
:104650000001B82B69D07F0E976E856A280EE66E32
:1046600027EC6CF0E55285A003D00001010EC06F6D
:1046700085A203D00001010EC06F85A403D0000104
:10468000010EC06F85A603D00001010EC06F85A882
:1046900003D00001010EC06F85AA03D00001010EF6
:1046A000C06F85AC03D00001010EC06F800E856E17
:1046B000280EE66E27EC6CF0E55285B003D00001C1
:1046C000010EC06F85B203D00001010EC06F85B42A
:1046D00003D00001010EC06F85B603D00001010EAA
:1046E000C06F85B803D00001010EC06F85BA03D03A
:1046F0000001010EC06F85BC03D00001010EC06F28
:104700000001B86B0001BF51146E156AD8901550A6
:1047100004E6FF0E145C000E155802E20001BF2BE8
:1047200003D00001B86B00D0976A856A050EE66E6B
:1047300027EC6CF0E55212000001C25185142AE00A
:104740000001C351EA6A640FE96E000EEA22EFCF5E
:1047500014F0080E145C08E20001C351EA6A640F09
:10476000E96E000EEA22EF2A0001C351EA6A640FE3
:10477000E96E000EEA22EFCF14F0080E145C09E394
:104780000001C351EA6A8E0FE96E000EEA22800E24
:10479000EF6E25D00001C351EA6A640FE96E000E86
:1047A000EA22EFCF14F0010E145C08E30001C351BC
:1047B000EA6A640FE96E000EEA22EF060001C351B7
:1047C000EA6A640FE96E000EEA22EF5008E1000188
:1047D000C351EA6A8E0FE96E000EEA22EF6A1200F8
:1047E0000001C45185142AE10001C551EA6A640F31
:1047F000E96E000EEA22EFCF14F0080E145C08E216
:104800000001C551EA6A640FE96E000EEA22EF2A40
:104810000001C551EA6A640FE96E000EEA22EFCF8B
:1048200014F0080E145C09E30001C551EA6A8E0F0A
:10483000E96E000EEA22800EEF6E25D00001C55110
:10484000EA6A640FE96E000EEA22EFCF14F0010E5F
:10485000145C08E30001C551EA6A640FE96E000EBA
:10486000EA22EF060001C551EA6A640FE96E000E04
:10487000EA22EF5008E10001C551EA6A8E0FE96EA5
:10488000000EEA22EF6A12000D01016B0D01026BAE
:104890000D01036B0D01046B0D01006B2A0E0D0160
:1048A000005D26E20D010051EA6A8E0FE96E000EEE
:1048B000EA22EF50800819E10D01012B0D010105DD
:1048C00004E10D0100290D01026F020E0D01015DD1
:1048D00004E10D0100290D01036F030E0D01015DBF
:1048E00004E10D0100290D01046F0D01002BD6D745
:1048F0000001C6510D01015D08E1040E0001BF5D1C
:1049000003E2FF0E45EF2CF007D00001BF6B01CD95
:10491000C6F0FF0E45EF2CF0030E0D01015D02E025
:1049200067EF2BF00D010251140A02E159EF2BF051
:10493000060A02E10AEF2BF0030A02E1BBEF2AF0BC
:10494000010A02E16CEF2AF01F0A02E150EF2AF09F
:10495000010A02E143EF2AF0030A02E1D9EF29F04C
:10496000010A02E169EF29F0070A02E1F9EF28F0F4
:10497000010A02E1D4EF28F0030A02E1BBEF28F0BC
:10498000010A01E182D30F0A01E1E8D2010A01E143
:1049900054D2030A01E11FD2010A01E1F6D1070A4C
:1049A00001E170D1010A01E1C9D0030A02E066EF1A
:1049B0002BF0020E0D01035D0EE10C0E0D01045DE6
:1049C0000AE10D01020E026F0D010C0E036F0D01C5
:1049D000046B0D010107020E0D01035D0BE1070ED3
:1049E0000D01045D07E10D01070E036F0D01046B5E
:1049F0000D010107030E0D01035D0BE1080E0D0112
:104A0000045D07E10D01080E036F0D01046B0D013C
:104A10000107030E0D01035D0EE1110E0D01045D92
:104A20000AE10D01030E026F0D01110E036F0D015E
:104A3000046B0D010107040E0D01035D0BE1090E6E
:104A40000D01045D07E10D01090E036F0D01046BFB
:104A50000D010107040E0D01035D0EE1160E0D019F
:104A6000045D0AE10D01040E026F0D01160E036FC5
:104A70000D01046B0D010107050E0D01035D0BE136
:104A80000A0E0D01045D07E10D010A0E036F0D0111
:104A9000046B0D0101070B0E0D01035D08E10C0E07
:104AA0000D01045D04E10D01046B0D010107100E01
:104AB0000D01035D08E1110E0D01045D04E10D011E
:104AC000046B0D010107150E0D01035D08E1160EC3
:104AD0000D01045D04E10D01046B0D010107250EBC
:104AE0000D01035D08E1270E0D01045D04E10D01D8
:104AF000046B0D010107260E0D01035D0BE1280E6D
:104B00000D01045D07E10D01280E036F0D01046B1B
:104B10000D010107260E0D01035D0EE1270E0D01AB
:104B2000045D0AE10D01260E026F0D01270E036FD1
:104B30000D01046B0D01010767EF2BF0030E0D0152
:104B4000035D0BE10D0E0D01045D07E10D010D0E7E
:104B5000036F0D01046B0D010107030E0D01035DD1
:104B60000EE1120E0D01045D0AE10D01030E026F4C
:104B70000D01120E036F0D01046B0D010107040EF0
:104B80000D01035D0BE10E0E0D01045D07E10D014A
:104B90000E0E036F0D01046B0D010107040E0D01D4
:104BA000035D0EE1170E0D01045D0AE10D01040E17
:104BB000026F0D01170E036F0D01046B0D0101074C
:104BC000050E0D01035D0BE10F0E0D01045D07E104
:104BD0000D010F0E036F0D01046B0D010107060E91
:104BE0000D01035D08E1070E0D01045D04E10D01F7
:104BF000046B0D010107100E0D01035D08E1120E9B
:104C00000D01045D04E10D01046B0D010107150E9A
:104C10000D01035D08E1170E0D01045D04E10D01B6
:104C2000046B0D010107230E0D01035D08E1270E42
:104C30000D01045D04E10D01046B0D010107240E5B
:104C40000D01035D0BE1280E0D01045D07E10D016F
:104C5000280E036F0D01046B0D010107240E0D01D9
:104C6000035D0EE1270E0D01045D0AE10D01240E26
:104C7000026F0D01270E036F0D01046B0D0101077B
:104C800067EF2BF0040E0D01035D0BE1130E0D0118
:104C9000045D07E10D01130E036F0D01046B0D019F
:104CA0000107040E0D01035D0EE1180E0D01045DF8
:104CB0000AE10D01040E026F0D01180E036F0D01C4
:104CC000046B0D010107050E0D01035D0BE1140ED0
:104CD0000D01045D07E10D01140E036F0D01046B5E
:104CE0000D010107060E0D01035D08E1080E0D011F
:104CF000045D04E10D01046B0D0101070B0E0D01B4
:104D0000035D08E10D0E0D01045D04E10D01046B6E
:104D10000D010107150E0D01035D08E1180E0D01CF
:104D2000045D04E10D01046B0D010107210E0D016D
:104D3000035D08E1270E0D01045D04E10D01046B24
:104D40000D010107220E0D01035D0BE1280E0D017F
:104D5000045D07E10D01280E036F0D01046B0D01C9
:104D60000107220E0D01035D0EE1270E0D01045D0A
:104D70000AE10D01220E026F0D01270E036F0D01D6
:104D8000046B0D01010767EF2BF0060E0D01035DAB
:104D900008E1090E0D01045D04E10D01046B0D0134
:104DA00001070B0E0D01035D08E10E0E0D01045D00
:104DB00004E10D01046B0D010107100E0D01035DEF
:104DC00008E1130E0D01045D04E10D01046B0D01FA
:104DD000010767EF2BF0060E0D01035D08E10A0ED7
:104DE0000D01045D04E10D01046B0D0101070B0EC3
:104DF0000D01035D08E10F0E0D01045D04E10D01DD
:104E0000046B0D010107100E0D01035D08E1140E86
:104E10000D01045D04E10D01046B0D010107150E88
:104E20000D01035D08E1190E0D01045D04E10D01A2
:104E3000046B0D01010767EF2BF0070E0D01035DF9
:104E40000EE10B0E0D01045D0AE10D01070E026F6C
:104E50000D010B0E036F0D01046B0D010107080E10
:104E60000D01035D0EE1100E0D01045D0AE10D015F
:104E7000080E026F0D01100E036F0D01046B0D0182
:104E80000107090E0D01035D0EE1150E0D01045D14
:104E90000AE10D01090E026F0D01150E036F0D01E0
:104EA000046B0D010107100E0D01035D0BE1110EE6
:104EB0000D01045D07E10D01110E036F0D01046B7F
:104EC0000D010107150E0D01035D0BE1160E0D011D
:104ED000045D07E10D01160E036F0D01046B0D015A
:104EE00001070B0E0D01035D0BE10C0E0D01045DBE
:104EF00007E10D010C0E036F0D01046B0D0101079D
:104F0000260E0D01035D08E1280E0D01045D04E18C
:104F10000D01046B0D010107250E0D01035D0BE171
:104F2000270E0D01045D07E10D01270E036F0D0132
:104F3000046B0D010107250E0D01035D0EE1280E26
:104F40000D01045D0AE10D01250E026F0D01280E11
:104F5000036F0D01046B0D010107B9D3080E0D019C
:104F6000035D0BE10D0E0D01045D07E10D010D0E5A
:104F7000036F0D01046B0D010107080E0D01035DA8
:104F80000EE1120E0D01045D0AE10D01080E026F23
:104F90000D01120E036F0D01046B0D010107090EC7
:104FA0000D01035D0BE10E0E0D01045D07E10D0126
:104FB0000E0E036F0D01046B0D010107090E0D01AB
:104FC000035D0EE1170E0D01045D0AE10D01090EEE
:104FD000026F0D01170E036F0D01046B0D01010728
:104FE0000A0E0D01035D0BE10F0E0D01045D07E1DB
:104FF0000D010F0E036F0D01046B0D010107110E62
:105000000D01035D08E1120E0D01045D04E10D01C7
:10501000046B0D010107160E0D01035D08E1170E6B
:105020000D01045D04E10D01046B0D010107230E68
:105030000D01035D08E1250E0D01045D04E10D0184
:10504000046B0D010107240E0D01035D0BE1260E1B
:105050000D01045D07E10D01260E036F0D01046BC8
:105060000D010107240E0D01035D0EE1250E0D015A
:10507000045D0AE10D01240E026F0D01250E036F80
:105080000D01046B0D01010722D3090E0D01035D13
:105090000BE1130E0D01045D07E10D01130E036F0B
:1050A0000D01046B0D010107090E0D01035D0EE1F9
:1050B000180E0D01045D0AE10D01090E026F0D01CC
:1050C000180E036F0D01046B0D0101070A0E0D018F
:1050D000035D0BE1140E0D01045D07E10D01140EDB
:1050E000036F0D01046B0D0101070C0E0D01035D33
:1050F00008E10D0E0D01045D04E10D01046B0D01CD
:105100000107160E0D01035D08E1180E0D01045D87
:1051100004E10D01046B0D010107210E0D01035D7A
:1051200008E1250E0D01045D04E10D01046B0D0184
:105130000107220E0D01035D0BE1260E0D01045D3A
:1051400007E10D01260E036F0D01046B0D01010730
:10515000220E0D01035D0EE1250E0D01045D0AE135
:105160000D01220E026F0D01250E036F0D01046B60
:105170000D010107ACD20C0E0D01035D08E10E0E0E
:105180000D01045D04E10D01046B0D010107110E19
:105190000D01035D08E1130E0D01045D04E10D0135
:1051A000046B0D01010793D20C0E0D01035D08E1A4
:1051B0000F0E0D01045D04E10D01046B0D010107EB
:1051C000110E0D01035D08E1140E0D01045D04E1F3
:1051D0000D01046B0D010107160E0D01035D08E1C1
:1051E000190E0D01045D04E10D01046B0D010107B1
:1051F0006ED20D0E0D01035D0EE1100E0D01045D6A
:105200000AE10D010D0E026F0D01100E036F0D016D
:10521000046B0D0101070E0E0D01035D0EE1150E6D
:105220000D01045D0AE10D010E0E026F0D01150E58
:10523000036F0D01046B0D010107100E0D01035DDD
:105240000BE1120E0D01045D07E10D01120E036F5B
:105250000D01046B0D010107150E0D01035D0BE13E
:10526000170E0D01045D07E10D01170E036F0D010F
:10527000046B0D010107240E0D01035D08E1280EEA
:105280000D01045D04E10D01046B0D010107230E06
:105290000D01035D0BE1270E0D01045D07E10D011A
:1052A000270E036F0D01046B0D010107230E0D0185
:1052B000035D0EE1280E0D01045D0AE10D01230ED0
:1052C000026F0D01280E036F0D01046B0D01010724
:1052D000FED10D0E0D01035D0EE1110E0D01045DF9
:1052E0000AE10D010D0E026F0D01110E036F0D018C
:1052F000046B0D0101070E0E0D01035D0EE1160E8C
:105300000D01045D0AE10D010E0E026F0D01160E76
:10531000036F0D01046B0D010107110E0D01035DFB
:105320000BE1120E0D01045D07E10D01120E036F7A
:105330000D01046B0D010107160E0D01035D0BE15C
:10534000170E0D01045D07E10D01170E036F0D012E
:10535000046B0D010107240E0D01035D08E1260E0B
:105360000D01045D04E10D01046B0D010107230E25
:105370000D01035D0BE1250E0D01045D07E10D013B
:10538000250E036F0D01046B0D010107230E0D01A6
:10539000035D0EE1260E0D01045D0AE10D01230EF1
:1053A000026F0D01260E036F0D01046B0D01010745
:1053B0008ED10E0E0D01035D0BE1130E0D01045D88
:1053C00007E10D01130E036F0D01046B0D010107C1
:1053D0000E0E0D01035D0EE1180E0D01045D0AE1D4
:1053E0000D010E0E026F0D01180E036F0D01046BFF
:1053F0000D0101070F0E0D01035D0BE1140E0D01F0
:10540000045D07E10D01140E036F0D01046B0D0126
:105410000107170E0D01035D08E1180E0D01045D73
:1054200004E10D01046B0D010107210E0D01035D67
:1054300008E1230E0D01045D04E10D01046B0D0173
:105440000107220E0D01035D0BE1240E0D01045D29
:1054500007E10D01240E036F0D01046B0D0101071F
:10546000220E0D01035D0EE1230E0D01045D0AE124
:105470000D01220E026F0D01230E036F0D01046B4F
:105480000D01010724D1120E0D01035D08E1130E79
:105490000D01045D04E10D01046B0D01010717D13D
:1054A000120E0D01035D0BE1140E0D01045D07E109
:1054B0000D01120E036F0D01046B0D010107170E94
:1054C0000D01035D08E1190E0D01045D04E10D01FC
:1054D000046B0D010107FBD0130E0D01035D0EE1FE
:1054E000150E0D01045D0AE10D01130E026F0D0191
:1054F000150E036F0D01046B0D010107150E0D0153
:10550000035D0BE1180E0D01045D07E10D01180E9E
:10551000036F0D01046B0D010107220E0D01035DE8
:1055200008E1280E0D01045D04E10D01046B0D017D
:105530000107210E0D01035D0BE1270E0D01045D36
:1055400007E10D01270E036F0D01046B0D0101072B
:10555000210E0D01035D0EE1280E0D01045D0AE12F
:105560000D01210E026F0D01280E036F0D01046B5A
:105570000D010107ACD0130E0D01035D0EE1160EF7
:105580000D01045D0AE10D01130E026F0D01160EEF
:10559000036F0D01046B0D010107160E0D01035D74
:1055A0000BE1180E0D01045D07E10D01180E036FEC
:1055B0000D01046B0D010107220E0D01035D08E1D1
:1055C000260E0D01045D04E10D01046B0D010107C0
:1055D000210E0D01035D0BE1250E0D01045D07E1B8
:1055E0000D01250E036F0D01046B0D010107210E46
:1055F0000D01035D0EE1260E0D01045D0AE10D01B2
:10560000210E026F0D01260E036F0D01046B0D01BB
:1056100001075DD0130E0D01035D0EE1170E0D01A4
:10562000045D0AE10D01130E026F0D01170E036FE9
:105630000D01046B0D010107170E0D01035D0BE158
:10564000180E0D01045D07E10D01180E036F0D0129
:10565000046B0D010107220E0D01035D08E1240E0C
:105660000D01045D04E10D01046B0D010107210E24
:105670000D01035D0BE1230E0D01045D07E10D013A
:10568000230E036F0D01046B0D010107210E0D01A7
:10569000035D0EE1240E0D01045D0AE10D01210EF2
:1056A000026F0D01240E036F0D01046B0D01010744
:1056B0000ED0180E0D01035D08E1190E0D01045DF9
:1056C00004E10D01046B0D01010701D000D0030EB0
:1056D0000D01015D11E3020EC7C0E9FFC8C0EAFF7A
:1056E000EF6E010E0001EA6AC725E96EC851EA2291
:1056F000020EEF6E010EC9D00D0101510FE1C7C0BE
:10570000E9FFC8C0EAFFEF6A010E0001EA6AC72597
:10571000E96EC851EA22EF6A000EB7D00D010251BE
:10572000210A07E0020A05E0060A03E0020A01E096
:105730001DD00001C05119E0C7C0E9FFC8C0EAFF91
:10574000EF6A0001C06B0001846B0001AE6B0001C9
:10575000866B0001B06B0001886B0001B26B000129
:105760008A6B0001B46B000E90D001D000D00D0107
:105770000351210A07E0020A05E0060A03E0020AD3
:1057800001E020D00001C0511CE0010E0001EA6AD6
:10579000C725E96EC851EA22EF6A0001C06B00011B
:1057A000846B0001AE6B0001866B0001B06B0001E1
:1057B000886B0001B26B00018A6B0001B46B000EB4
:1057C00064D001D000D0C7C0E9FFC8C0EAFFEF50E5
:1057D0000D01025D0CE1010E0001EA6AC725E96EC8
:1057E000C851EA2203CDEFFF0D0101514ED0010E49
:1057F0000001EA6AC725E96EC851EA22EF500D019F
:10580000035D09E1C7C0E9FFC8C0EAFF02CDEFFFB1
:105810000D0101513AD0C7C0E9FFC8C0EAFFEF50FF
:105820000D01035D0CE1010E0001EA6AC725E96E76
:10583000C851EA2202CDEFFF0D01015126D0010E21
:105840000001EA6AC725E96EC851EA22EF500D014E
:10585000025D09E1C7C0E9FFC8C0EAFF03CDEFFF61
:105860000D01015112D0C7C0E9FFC8C0EAFF02CD47
:10587000EFFF010E0001EA6AC725E96EC851EA226E
:1058800003CDEFFF0D01015100D01200C9C0C7F0D8
:10589000CAC0C8F044EC24F00D01066FC9C0E9FF8E
:1058A000CAC0EAFFEF500001BC5D0BE0C9C0E9FFD0
:1058B000CAC0EAFFEFCFBCF0C9C0E9FFCAC0EAFF27
:1058C000EF8E010E0001EA6AC925E96ECA51EA228B
:1058D000EF500001BD5D11E0010E0001EA6AC9252B
:1058E000E96ECA51EA22EFCFBDF0010E0001EA6A6B
:1058F000C925E96ECA51EA22EF8E0D01065100D08A
:105900001200CBC0C7F0CCC0C8F044EC24F00D01AD
:10591000056F0001CD510001EA6ACB25E96ECC513B
:10592000EA22EFCF14F00001CD51EA6ABC0FE96E14
:10593000000EEA22EF50145C1DE00001CD51000181
:10594000EA6ACB25E96ECC51EA22EF50E66E0001FF
:10595000CD51EA6ABC0FE96E000EEA22E552E7502B
:10596000EF6E0001CD510001EA6ACB25E96ECC5102
:10597000EA22EF8E0D01055100D012000001CE0584
:10598000EA6A8E0FE96E000EEA22EF5000D0120094
:105990000D01006B0C0E0D01005D0CE20D010051BC
:1059A000EA6A780FE96E010EEA22CFC0EFFF0D011F
:1059B000002BF0D71200010100A919D00101400EFF
:1059C000836F0101806B01017F6B0101796B010124
:1059D0007B6B01017E6B01017D6B0101826B01011B
:1059E0007C6B0101786B0101816B9ED004D00101B9
:1059F000836B01018069010101010051080B14E171
:105A0000010101010151010B0FE11A0E0C01695D49
:105A100004E01B0E0C01695D04E10101400E7E6F84
:105A200002D001017E6902D001017E6B010101A358
:105A300003D001017B6B02D001017B69CCEC44F007
:105A40000D01006F0D010051040A1DE0070A14E06A
:105A5000010A0BE0030A01E01DD00101400E7C6F3A
:105A600001017D6B0101826B1FD001017C69010185
:105A70007D6B0101826B18D001017C6B01017D6B94
:105A80000101826911D001017C6B01017D69010175
:105A9000826B0AD00101400E7C6F0101400E7D6FC8
:105AA0000101400E826F00D00001DB51030A1FE0AC
:105AB000010A17E0030A10E0050A08E0040A01E001
:105AC0001CD00101796901017F6B17D00101796B4D
:105AD0000101200E7F6F11D00101796B01017F69F7
:105AE0000CD00101400E796F01017F6B06D00101DE
:105AF000400E7F6F0101796B00D00101025103E17B
:105B00000101786B03D00101400E786F0701075146
:105B100002E001010085010100B503D00101816BA4
:0A5B200003D00101400E816F120056
:065B2A00F2EC43F046CC52
:105B3000ECF013CCEBF024EC02F049CCEAF016CCFC
:105B4000E9F078CCE8F0B1EC01F0DEEC5FF05A0E51
:105B50000C01035D04E05A0E0C01365D05E1000105
:105B6000CF69C8EC2CF002D0DBEC2CF0010188519D
:105B700007E10101895104E10101816B0701076B14
:105B8000000E00D012000C01CC5169E100CC66FC83
:105B900001CC67FC02CC68FC03CC69FC04CC6AFC39
:105BA00005CC6BFC06CC6CFC07CC6DFC08CC6EFC09
:105BB00009CC6FFC0ACC70FC0BCC71FC0CCC72FCD9
:105BC0000DCC73FC0ECC74FC0FCC75FC10CC76FCA9
:105BD00011CC77FC12CC78FC13CC79FC14CC7AFC79
:105BE00015CC7BFC16CC7CFC17CC7DFC18CC7EFC49
:105BF00019CC7FFC1ACC80FC1BCC81FC1CCC82FC19
:105C00001DCC83FC1ECC84FC1FCC85FC20CC86FCE8
:105C100021CC87FC22CC88FC23CC89FC24CC8AFCB8
:105C200025CC8BFC26CC8CFC27CC8DFC28CC8EFC88
:105C300029CC8FFC2ACC90FC2BCC91FC2CCC92FC58
:105C40002DCC93FC2ECC94FC2FCC95FC30CC96FC28
:105C500031CC97FC32CC98FC0C01666B69D033CC0C
:105C600066FC34CC67FC35CC68FC36CC69FC37CCA0
:105C70006AFC38CC6BFC39CC6CFC3ACC6DFC3BCC70
:105C80006EFC3CCC6FFC3DCC70FC3ECC71FC3FCC40
:105C900072FC40CC73FC41CC74FC42CC75FC43CC10
:105CA00076FC44CC77FC45CC78FC46CC79FC47CCE0
:105CB0007AFC48CC7BFC49CC7CFC4ACC7DFC4BCCB0
:105CC0007EFC4CCC7FFC4DCC80FC4ECC81FC4FCC80
:105CD00082FC50CC83FC51CC84FC52CC85FC53CC50
:105CE00086FC54CC87FC55CC88FC56CC89FC57CC20
:105CF0008AFC58CC8BFC59CC8CFC5ACC8DFC5BCCF0
:105D00008EFC5CCC8FFC5DCC90FC5ECC91FC5FCCBF
:105D100092FC60CC93FC61CC94FC62CC95FC63CC8F
:105D200096FC64CC97FC65CC98FC0C01010E666F68
:105D3000CCCCCDF00001880ECB6F010ECC6F81EC86
:105D40002CF07F0E01018815020805E07F0E01018D
:105D50008915020803E1FFEC68F0FF0022EC40F037
:105D6000000922E00C01676B0C016E6B0C01796B72
:105D70000C017C6B0C01696B0C016C6B0C01CC5140
:105D8000EA6A040FE96E010EEA22EF6ACCCCCDF08C
:105D90000001880ECB6F010ECC6F81EC2CF0080156
:105DA000A56B26EC61F0819C0C016751010A01E1B1
:105DB000BFD0010A01E004D102011E511F110CE005
:105DC00002011E510801BF5D02011F510801C059A7
:105DD00003E3FFEC68F0FF000201205121110AE00B
:105DE000020120510801C15D020121510801C2597F
:105DF00001E3819C0C01CC51EA6A880FE96E010E27
:105E0000EA22EF50800B2FE00C01CC51EA6A880F98
:105E1000E96E010EEA22EF507F0B146E210E145C26
:105E20000FE30C01CC51EA6A880FE96E010EEA22F9
:105E3000EF507F0B280804E30C01020E686F03D0BB
:105E40000C01010E686F0C01CC51EA6A880FE96EF3
:105E5000010EEA22EF507F0B0C01CF6F17EC34F0EC
:105E60000C01696F15D00C01CC51EA6A040FE96E80
:105E7000010EEA22EF500CE00C01030E686F0C01DA
:105E8000CC51EA6A040FE96E010EEA22EFCF69FCF9
:105E90000C01695101E195D00C01CC5107E169CCAD
:105EA000CDFC36CCCEFC68CC02FC06D003CCCDFCBD
:105EB00069CCCEFC68CC35FCCECCD1FCCDCCD0FCB2
:105EC0009BEC34F0000903E00C01696B7AD0080107
:105ED000BF6BC06B0801C16BC26B010100B900D080
:105EE0000C019C510C01695D03E10C016B6B03D04B
:105EF0000C01010E6B6F69CC9CFC0C01010E6E6FE6
:105F000033D9000905E10C016E6B0C01696B59D0A6
:105F10000C01CC51EA6A040FE96E010EEA2269CC49
:105F2000EFFF0C01020E6E6F0C01010E676F49D07E
:105F30000C016851030A14E0020A03E0030A01E0BD
:105F400025D00C01CC51EA6A880FE96E010EEA22D5
:105F5000EF507F0B04E10C016E6B0C01696B17D0E5
:105F60000C01CC51EA6A040FE96E010EEA22EF50EF
:105F70000C016C5D06E102011D510801D880C3557A
:105F800004E20C016E6B0C01696B01D000D0ECD8FF
:105F900000090FE10C01CC51EA6A040FE96E010E11
:105FA000EA22EF6A0C01696B0C016E6B0C01676BE6
:105FB00008D00801BF6BC06B0801C16BC26B01D078
:105FC00000D00C01CC5167E166CC00FC67CC01FC31
:105FD00068CC02FC69CC03FC6ACC04FC6BCC05FCED
:105FE0006CCC06FC6DCC07FC6ECC08FC6FCC09FCBD
:105FF00070CC0AFC71CC0BFC72CC0CFC73CC0DFC8D
:1060000074CC0EFC75CC0FFC76CC10FC77CC11FC5C
:1060100078CC12FC79CC13FC7ACC14FC7BCC15FC2C
:106020007CCC16FC7DCC17FC7ECC18FC7FCC19FCFC
:1060300080CC1AFC81CC1BFC82CC1CFC83CC1DFCCC
:1060400084CC1EFC85CC1FFC86CC20FC87CC21FC9C
:1060500088CC22FC89CC23FC8ACC24FC8BCC25FC6C
:106060008CCC26FC8DCC27FC8ECC28FC8FCC29FC3C
:1060700090CC2AFC91CC2BFC92CC2CFC93CC2DFC0C
:1060800094CC2EFC95CC2FFC96CC30FC97CC31FCDC
:1060900098CC32FC66D066CC33FC67CC34FC68CC40
:1060A00035FC69CC36FC6ACC37FC6BCC38FC6CCC4C
:1060B00039FC6DCC3AFC6ECC3BFC6FCC3CFC70CC1C
:1060C0003DFC71CC3EFC72CC3FFC73CC40FC74CCEC
:1060D00041FC75CC42FC76CC43FC77CC44FC78CCBC
:1060E00045FC79CC46FC7ACC47FC7BCC48FC7CCC8C
:1060F00049FC7DCC4AFC7ECC4BFC7FCC4CFC80CC5C
:106100004DFC81CC4EFC82CC4FFC83CC50FC84CC2B
:1061100051FC85CC52FC86CC53FC87CC54FC88CCFB
:1061200055FC89CC56FC8ACC57FC8BCC58FC8CCCCB
:1061300059FC8DCC5AFC8ECC5BFC8FCC5CFC90CC9B
:106140005DFC91CC5EFC92CC5FFC93CC60FC94CC6B
:1061500061FC95CC62FC96CC63FC97CC64FC98CC3B
:1061600065FC000E00D012000C016E050CE1080168
:106170006A6B0801696B0801686B04EC59F069CC23
:106180006DFC01010095010101B144D00C016D517C
:10619000090A23E0030A21E01C0A1FE0010A1DE0AE
:1061A0000E0A1BE0010A19E0130A17E0070A15E0BE
:1061B000010A13E0030A11E0010A0FE01F0A0DE0D3
:1061C000010A0BE0030A09E0010A07E0070A05E0FB
:1061D000090A03E0080A01E01CD06ECCF8F030ECAC
:1061E0000FF0000906E00C01020E6E6F020E14D0D3
:1061F0000FD00C01010E6E6F6DCC69FC0ED800093A
:1062000002E1000E09D00C01020E6E6F020E04D0E6
:1062100001D000D002D800D012000C016E050CE1B4
:1062200008016A6B0801696B0801686B04EC59F09E
:1062300069CC6CFC010100950C016C51230A01E151
:10624000EED2010A01E1E9D2030A01E1E4D2010A36
:1062500001E1DFD27A0A01E1D9D25A0A01E1D4D2AE
:10626000020A01E1CFD2030A01E1C7D21A0A01E111
:10627000BBD2010A01E1B0D21E0A01E1A5D2070A90
:1062800001E19AD2060A01E193D2030A01E18CD21C
:10629000190A01E17CD2010A01E16BD2030A01E192
:1062A00063D2080A01E15DD2010A01E154D2070A72
:1062B00001E14CD20F0A01E146D2040A01E12FD2DA
:1062C000010A01E118D20E0A01E1FED1010A01E141
:1062D000E4D11C0A01E1CAD1030A01E1B0D11B0AD1
:1062E00001E179D1030A01E142D1010A01E10BD1B7
:1062F0001F0A01E1D4D0010A01E19ED0030A69E03E
:10630000010A35E0070A01E08CD2010101A318D08F
:106310000C01836B0C01250E826F0C01866B876B61
:106320000C01010E706F0C01010E786F0C01030E51
:10633000726F0C0173690C01040E7A6F74D217D05E
:106340000C01836B0C01250E826F0C01866B876B31
:106350000C01010E706F0C01010E786F0C01020E22
:10636000726F0C0173690C01050E7A6F5CD201012A
:1063700001A318D00C01836B0C01250E826F0C0158
:10638000866B876B0C01010E706F0C01010E786F2C
:106390000C01020E726F0C0173690C01050E7A6F0D
:1063A00042D217D00C01836B0C01250E826F0C01B9
:1063B000866B876B0C01010E706F0C01010E786FFC
:1063C0000C01030E726F0C0173690C01040E7A6FDD
:1063D0002AD2010101A319D00C01010E836F0C0117
:1063E000260E826F0C01866B876B0C01010E706F9D
:1063F0000C01010E786F0C01010E726F0C017369B4
:106400000C01060E7A6F0FD217D00C01010E836FAC
:106410000C01260E826F0C01866B876B0C01010E3E
:10642000706F0C01010E786F0C01726B0C017369B7
:106430000C01070E7A6FF7D1010101A318D00C01EE
:10644000010E836F0C01260E826F0C01866B876B29
:106450000C01010E706F0C01010E786F0C01726B54
:106460000C0173690C01070E7A6FDDD118D00C0195
:10647000010E836F0C01260E826F0C01866B876BF9
:106480000C01010E706F0C01010E786F0C01010EF2
:10649000726F0C0173690C01060E7A6FC4D1010191
:1064A00001A319D00C01020E836F0C01270E826F1D
:1064B0000C01866B876B0C01010E706F0C01010ED5
:1064C000786F0C010F0E726F0C0173690C01080ECE
:1064D0007A6FA9D118D00C01030E836F0C01280E1E
:1064E000826F0C01866B876B0C01010E706F0C01C3
:1064F000010E786F0C01070E726F0C0173690C01AD
:106500000A0E7A6F90D1010101A319D00C01020E7D
:10651000836F0C01270E826F0C01866B876B0C0159
:10652000010E706F0C01010E786F0C010E0E726F70
:106530000C0173690C01090E7A6F75D118D00C012A
:10654000030E836F0C01280E826F0C01866B876B24
:106550000C01010E706F0C01010E786F0C01060E1C
:10656000726F0C0173690C010B0E7A6F5CD1010123
:1065700001A319D00C01030E836F0C01280E826F4A
:106580000C01866B876B0C01010E706F0C01010E04
:10659000786F0C01070E726F0C0173690C010A0E03
:1065A0007A6F41D118D00C01020E836F0C01270EB7
:1065B000826F0C01866B876B0C01010E706F0C01F2
:1065C000010E786F0C010F0E726F0C0173690C01D4
:1065D000080E7A6F28D1010101A319D00C01030E16
:1065E000836F0C01280E826F0C01866B876B0C0188
:1065F000010E706F0C01010E786F0C01060E726FA8
:106600000C0173690C010B0E7A6F0DD118D00C01BF
:10661000020E836F0C01270E826F0C01866B876B55
:106620000C01010E706F0C01010E786F0C010E0E43
:10663000726F0C0173690C01090E7A6FF4D00C01B2
:10664000060E836F0C012B0E826F0C01866B876B1D
:106650000C01706B0C01010E786F0C010A0E726F49
:106660000C0173690C01020E7A6FDDD00C01060E6D
:10667000836F0C012B0E826F0C01866B876B0C01F4
:10668000706B0C01010E786F0C010B0E726F0C0118
:1066900073690C01030E7A6FC6D00C01070E836F6D
:1066A0000C010B0E826F0C01866B876B0C01706BFB
:1066B0000C01010E786F0C01080E726F0C017369EA
:1066C0000C010C0E7A6FAFD00C01070E836F0C011A
:1066D0000B0E826F0C01866B876B0C01706B0C01CB
:1066E000010E786F0C01090E726F0C0173690C01B9
:1066F0000D0E7A6F98D00C01050E836F0C012A0ED7
:10670000826F0C01866B876B0C01706B0C01050EA0
:10671000786F0C0172690C010F0E7A6F84D00C0136
:10672000050E836F0C012A0E826F0C01866B876B3E
:106730000C01706B0C01040E786F0C0172690C0176
:106740000E0E7A6F70D012EC0EF070D00001F26B6A
:106750002EEC0AF06BD00001010EF26F2EEC0AF065
:1067600065D0CDEC05F062D03CEC0CF05FD0000EB3
:106770005DD00101008B0C01010ED96F0C01E00E00
:10678000D76F030ED86F34EC5CF0000E4FD00101D0
:10679000009B0C01D96B0C01E00ED76F030ED86F74
:1067A00034EC5CF0000E42D001010193000E3ED0AB
:1067B00001010183000E3AD00C01090E836F6ECCEB
:1067C000F8F030EC0FF032D00C01090E836F6ECC74
:1067D000F9F0F5EC0FF02AD00C01090E836F0901D6
:1067E000116BE2EC5EF022D00C01090E836F0901FF
:1067F000010E116FE2EC5EF019D0FFEC68F0FF00C3
:10680000000E14D0000E12D0000E10D02AEC6AF048
:106810000DD0000E0BD0000E09D0000E07D0000ED8
:1068200005D0000E03D029EC00F000D012000C01BE
:10683000CF51280A01E17AD00F0A01E175D0010A8F
:1068400071E0030A6DE0010A69E0070A65E0010AE8
:1068500061E0030A5DE02D0A59E01A0A55E0190AC1
:1068600051E01C0A4DE0150A49E00B0A45E0060A12
:1068700041E0190A3DE0150A39E00E0A35E0190A2F
:1068800031E0040A2DE0110A29E00D0A25E0190A79
:1068900021E0120A17E0070A13E0110A0FE0140AB8
:1068A00005E0030A01E044D0010E44D0010101B12A
:1068B00003D0030E3FD002D0040E3CD01B0E3AD0C2
:1068C0001A0E38D0010101A303D0060E33D002D036
:1068D000050E30D0100E2ED00F0E2CD0090E2AD05F
:1068E0000A0E28D0120E26D0110E24D00D0E22D062
:1068F0000E0E20D00B0E1ED00C0E1CD0170E1AD070
:10690000160E18D0130E16D0140E14D0150E12D069
:106910000A0E10D0090E0ED00B0E0CD00C0E0AD0A1
:106920000D0E08D00E0E06D0180E04D0190E02D08F
:10693000000E00D01200D0CC00FDD1CC01FD0D0125
:10694000066B020E0D01065D01E369D20D010651D1
:10695000EA6A000FE96E0D0EEA22EF505A0A01E1D1
:1069600036D24F0A01E120D2080A01E10AD2010A17
:1069700001E1F4D1080A01E1DED1070A01E1C8D141
:10698000050A01E1B2D1010A01E19CD11B0A01E132
:1069900086D1070A01E170D1120A01E15AD1010A38
:1069A00001E144D1160A01E12ED1030A01E118D117
:1069B0001C0A01E102D1030A01E1ECD0180A01E14D
:1069C000D6D0030A01E1C0D0060A01E1AAD01F0A0D
:1069D00001E194D00A0A01E17ED0010A69E0040ACB
:1069E00054E0010A3FE01A0A2AE0070A15E0020A09
:1069F00001E000D20D010651EA6A020FE96E0D0EA8
:106A0000EA22010EEF6E0D010651EA6A040FE96EEB
:106A10000D0EEA22EF6800D20D010651EA6A020F5C
:106A2000E96E0D0EEA22010EEF6E0D010651EA6AC3
:106A3000040FE96E0D0EEA22FE0EEF6EEDD10D0190
:106A40000651EA6A020FE96E0D0EEA22010EEF6EA0
:106A50000D010651EA6A040FE96E0D0EEA22FE0EE0
:106A6000EF6EDAD10D010651EA6A020FE96E0D0EE2
:106A7000EA22FB0EEF6E0D010651EA6A040FE96E81
:106A80000D0EEA22FE0EEF6EC7D10D010651EA6A25
:106A9000020FE96E0D0EEA22FB0EEF6E0D0106519C
:106AA000EA6A040FE96E0D0EEA22FE0EEF6EB4D113
:106AB0000D010651EA6A020FE96E0D0EEA22FB0E85
:106AC000EF6E0D010651EA6A040FE96E0D0EEA221F
:106AD000050EEF6EA1D10D010651EA6A020FE96EB3
:106AE0000D0EEA22FB0EEF6E0D010651EA6A040F4D
:106AF000E96E0D0EEA22050EEF6E8ED10D010651E4
:106B0000EA6A020FE96E0D0EEA22010EEF6E0D0128
:106B10000651EA6A040FE96E0D0EEA22010EEF6ECD
:106B20007BD10D010651EA6A020FE96E0D0EEA22D1
:106B3000010EEF6E0D010651EA6A040FE96E0D0EAB
:106B4000EA22010EEF6E68D10D010651EA6A020FCA
:106B5000E96E0D0EEA22010EEF6E0D010651EA6A92
:106B6000040FE96E0D0EEA22020EEF6E55D10D01F3
:106B70000651EA6A020FE96E0D0EEA22010EEF6E6F
:106B80000D010651EA6A040FE96E0D0EEA22020EAB
:106B9000EF6E42D10D010651EA6A020FE96E0D0E49
:106BA000EA22010EEF6E0D010651EA6A040FE96E4A
:106BB0000D0EEA22080EEF6E2FD10D010651EA6A82
:106BC000020FE96E0D0EEA22010EEF6E0D01065165
:106BD000EA6A040FE96E0D0EEA22080EEF6E1CD170
:106BE0000D010651EA6A020FE96E0D0EEA22010E4E
:106BF000EF6E0D010651EA6A040FE96E0D0EEA22EE
:106C0000070EEF6E09D10D010651EA6A020FE96E17
:106C10000D0EEA22010EEF6E0D010651EA6A040F15
:106C2000E96E0D0EEA22070EEF6EF6D00D01065149
:106C3000EA6A020FE96E0D0EEA22FC0EEF6E0D01FC
:106C40000651EA6A040FE96E0D0EEA22060EEF6E97
:106C5000E3D00D010651EA6A020FE96E0D0EEA2239
:106C6000FC0EEF6E0D010651EA6A040FE96E0D0E7F
:106C7000EA22060EEF6ED0D00D010651EA6A020F2D
:106C8000E96E0D0EEA22010EEF6E0D010651EA6A61
:106C9000040FE96E0D0EEA22030EEF6EBDD00D015A
:106CA0000651EA6A020FE96E0D0EEA22010EEF6E3E
:106CB0000D010651EA6A040FE96E0D0EEA22030E79
:106CC000EF6EAAD00D010651EA6A020FE96E0D0EB1
:106CD000EA22010EEF6E0D010651EA6A040FE96E19
:106CE0000D0EEA22040EEF6E97D00D010651EA6AEE
:106CF000020FE96E0D0EEA22010EEF6E0D01065134
:106D0000EA6A040FE96E0D0EEA22040EEF6E84D0DB
:106D10000D010651EA6A020FE96E0D0EEA22010E1C
:106D2000EF6E0D010651EA6A040FE96E0D0EEA22BC
:106D3000FE0EEF6E71D00D010651EA6A020FE96E88
:106D40000D0EEA22010EEF6E0D010651EA6A040FE4
:106D5000E96E0D0EEA22FE0EEF6E5ED00D010651B9
:106D6000EA6A020FE96E0D0EEA22010EEF6E0D01C6
:106D70000651EA6A040FE96E0D0EEA22FE0EEF6E6E
:106D80004BD00D010651EA6A020FE96E0D0EEA22A0
:106D9000010EEF6E0D010651EA6A040FE96E0D0E49
:106DA000EA22FE0EEF6E38D00D010651EA6A020F9C
:106DB000E96E0D0EEA22010EEF6E0D010651EA6A30
:106DC000040FE96E0D0EEA22FE0EEF6E25D00D01C6
:106DD0000651EA6A020FE96E0D0EEA22010EEF6E0D
:106DE0000D010651EA6A040FE96E0D0EEA22FE0E4D
:106DF000EF6E12D00D010651EA6A020FE96E0D0E18
:106E0000EA22010EEF6E0D010651EA6A040FE96EE7
:106E10000D0EEA22EF6800D00D01062B92D50D0170
:106E2000005145E00D01015142E00D0103510D01FA
:106E3000025D02E0FF0E3DD00D0105510D01045D24
:106E400002E1FF0E36D00D010451146E156AFE0EDC
:106E5000141801E1155009E00D010551166E176A6D
:106E6000FE0E161801E1175002E1FF0E22D00101BB
:106E700001B102D0FF0E1DD00C0135510C01025D95
:106E800002E0FF0E16D0050E0D01005D04E0050EB8
:106E90000D01015D02E1FF0E0CD0060E0D01005D3B
:106EA00004E0060E0D01015D02E1FF0E02D0000EAE
:046EB00000D01200FC
:0C6EB4000801000E0E6F040E0F6F0801A5
:106EC000300E0C6F020E0D6F0801100E0A6F010ECE
:106ED0000B6F0801096B7BEC3BF0F3CF14F0F4CFA0
:106EE00015F000C8E9FF01C8EAFF14C0EEFF15C0A5
:106EF000EDFF0801000E0E6F040E0F6F0801300E3B
:106F00000C6F020E0D6F0801100E0A6F010E0B6F51
:106F10000801010E096F7BEC3BF0F3CF14F0F4CFC6
:106F200015F0020E0801EA6A0025E96E0151EA2215
:106F300014C0EEFF15C0EDFF0801000E0E6F040E29
:106F40000F6F0801300E0C6F020E0D6F0801100E4E
:106F50000A6F010E0B6F0801020E096FCCDBF3CF35
:106F600014F0F4CF15F0040E0801EA6A0025E96E6A
:106F70000151EA2214C0EEFF15C0EDFF0801000E1A
:106F80000E6F040E0F6F0801300E0C6F020E0D6FA6
:106F90000801100E0A6F010E0B6F0801030E096F36
:106FA000AADBF3CF14F0F4CF15F0060E0801EA6A5D
:106FB0000025E96E0151EA2214C0EEFF15C0EDFF75
:106FC0000801000E0E6F040E0F6F0801300E0C6FDB
:106FD000020E0D6F0801100E0A6F010E0B6F0801F3
:106FE000040E096F88DBF3CF14F0F4CF15F0080E10
:106FF0000801EA6A0025E96E0151EA2214C0EEFF99
:1070000015C0EDFF120008010251030A01E159D237
:10701000070A01E146D1060A01E063D30801000E28
:107020000E6F040E0F6F0801300E0C6F020E0D6F05
:107030000801100E0A6F010E0B6F0801020E096F96
:107040005ADBF3CF03F8F4CF04F80801000E0E6FFB
:10705000040E0F6F0801300E0C6F020E0D6F080149
:10706000100E0A6F010E0B6F0801010E096F43DB52
:10707000F3CF05F8F4CF06F8FF0E0801031902E17B
:107080007F0E041907E0FF0E0801051902E17F0ECB
:10709000061904E1F3687F0EF46E2CD30801055144
:1070A0000801031904E1080106510801041903E16C
:1070B000F36AF46A1FD30801035104110DE105C8F6
:1070C00014F006C815F0146C151E000E152214C01D
:1070D000F3FF15C0F4FF0ED308010551061101E1BD
:1070E000DBD00801800E041514E00801063504E227
:1070F00005510008000E06550CE208010551080173
:10710000035D0801076F08010651080104590801D1
:10711000086F0801043504E203510008000E04550D
:1071200029E20801063504E205510008000E065563
:1071300021E20801045108010619E8AE02D0063523
:1071400007D005510801035D0801065108010459E3
:1071500011E2080103510801055D0801076F0801EC
:107160000451080106590801086F0801076D081F3E
:10717000000E08230801043504E203510008000E44
:10718000045524E20801063504E205510008000E0A
:1071900006551CE20801065108010419E8AE02D0A8
:1071A000043507D003510801055D080104510801A9
:1071B00006590CE2080105510801035D0801076F3B
:1071C00008010651080104590801086F0801043537
:1071D00004E203510008000E045510E20801800E7D
:1071E00006150CE0080105510801035D0801076F51
:1071F00008010651080104590801086F0801800EB2
:10720000041525E00801800E061521E0080106514D
:1072100008010419E8AE02D0043507D00351080173
:10722000055D080104510801065911E208010351E6
:107230000801055D0801076F08010451080106599E
:107240000801086F0801076D081F000E08230801D8
:10725000800E041520E00801800E06151CE00801D0
:10726000045108010619E8AE02D0063507D00551D1
:107270000801035D08010651080104590CE20801E8
:1072800005510801035D0801076F08010651080157
:1072900004590801086F04D003C807F804C808F8A7
:1072A00024D20801000E0E6F040E0F6F0801300E7D
:1072B0000C6F020E0D6F0801100E0A6F010E0B6F9E
:1072C0000801040E096F17DAF3CF03F8F4CF04F8BE
:1072D0000801000E0E6F040E0F6F0801300E0C6FC8
:1072E000020E0D6F0801100E0A6F010E0B6F0801E0
:1072F000010E096F00DAF3CF05F8F4CF06F8FF0EA0
:107300000801031902E17F0E041907E0FF0E0801CE
:10731000051902E17F0E061904E1F3687F0EF46E91
:10732000E9D105C814F006C815F0146C151E000E3E
:10733000152214500801031902E11550041903E144
:10734000F36AF46AD7D108010351041105E105C8B5
:10735000F3FF06C8F4FFCED108010551061101E183
:10736000ABD00801800E041512E00801800E06154E
:107370000EE0080108010351080105250801076F07
:10738000080108010451080106210801086F0801DD
:10739000043504E203510008000E045512E208010E
:1073A000800E06150EE008010801055108010325AD
:1073B0000801076F080108010651080104210801AE
:1073C000086F0801043504E203510008000E04555B
:1073D00016E20801063504E205510008000E0655C4
:1073E0000EE2080108010351080105250801076F95
:1073F000080108010451080106210801086F08016D
:10740000800E04152AE00801063504E20551000843
:10741000000E065522E203C814F004C815F0146CDF
:10742000151E000E1522080115500619E8AE02D0EF
:10743000063504D00551145C065115580EE20801BA
:1074400008010551080103250801076F080108011B
:107450000651080104210801086F0801800E041577
:107460002AE00801063504E205510008000E065521
:1074700022E203C814F004C815F0146C151E000EA7
:107480001522080106511518E8AE02D0153404D0B3
:107490001450055D155006590EE20801080103510C
:1074A000080105250801076F0801080104510801BA
:1074B00006210801086F04D003C807F804C808F8BB
:1074C00014D10801000E0E6F040E0F6F0801300E6C
:1074D0000C6F020E0D6F0801100E0A6F010E0B6F7C
:1074E0000801030E096F07D9F3CF03F8F4CF04F8AE
:1074F0000801000E0E6F040E0F6F0801300E0C6FA6
:10750000020E0D6F0801100E0A6F010E0B6F0801BD
:10751000010E096FF0D8F3CF05F8F4CF06F8FF0E8F
:107520000801031902E17F0E041907E0FF0E0801AC
:10753000051902E17F0E061904E1F3687F0EF46E6F
:10754000D9D005C814F006C815F0146C151E000E2D
:10755000152214500801031902E11550041903E122
:10756000F36AF46AC7D008010351041105E105C8A4
:10757000F3FF06C8F4FFBED008010551061101E172
:10758000ABD00801800E041512E00801800E06152C
:107590000EE0080108010351080105250801076FE5
:1075A000080108010451080106210801086F0801BB
:1075B000043504E203510008000E045512E20801EC
:1075C000800E06150EE0080108010551080103258B
:1075D0000801076F0801080106510801042108018C
:1075E000086F0801043504E203510008000E045539
:1075F00016E20801063504E205510008000E0655A2
:107600000EE2080108010351080105250801076F72
:10761000080108010451080106210801086F08014A
:10762000800E04152AE00801063504E20551000821
:10763000000E065522E203C814F004C815F0146CBD
:10764000151E000E1522080115500619E8AE02D0CD
:10765000063504D00551145C065115580EE2080198
:1076600008010551080103250801076F08010801F9
:107670000651080104210801086F0801800E041555
:107680002AE00801063504E205510008000E0655FF
:1076900022E203C814F004C815F0146C151E000E85
:1076A0001522080106511518E8AE02D0153404D091
:1076B0001450055D155006590EE2080108010351EA
:1076C000080105250801076F080108010451080198
:1076D00006210801086F04D003C807F804C808F899
:1076E00004D00801076B086B00D007C8F3FF08C877
:1076F000F4FF00D0120008010951040A01E1AFD0E3
:10770000070A75E0010A3BE0030A15E0010A01E0FF
:10771000DED00EC828F80FC829F80CC826F80DC806
:1077200027F80AC824F80BC825F800DAF3CF10F8B8
:10773000F4CF11F8D0D0020E08010E250801286FF1
:10774000000E08010F210801296F010E08010C2508
:107750000801266F000E08010D210801276F020E97
:1077600008010A250801246F000E08010B210801F9
:10777000256FDCD9F3CF10F8F4CF11F8ACD0030E9D
:1077800008010C2508011A6F000E08010D210801DF
:107790001B6F020E08010C250801186F000E08016E
:1077A0000D210801196F040E08010E250801166F3E
:1077B000000E08010F210801176F060E08010A25A7
:1077C0000801146F000E08010B210801156F040E4B
:1077D00008010A250801126F000E08010B2108019B
:1077E000136F7FD8F3CF10F8F4CF11F874D0050ED3
:1077F00008010C2508011A6F000E08010D2108016F
:107800001B6F040E08010C250801186F000E0801FB
:107810000D210801196F060E08010E250801166FCB
:10782000000E08010F210801176F0A0E08010A2532
:107830000801146F000E08010B210801156F080ED6
:1078400008010A250801126F000E08010B2108012A
:10785000136F47D8F3CF10F8F4CF11F83CD0070ED0
:1078600008010C2508011A6F000E08010D210801FE
:107870001B6F060E08010C250801186F000E080189
:107880000D210801196F080E08010E250801166F59
:10789000000E08010F210801176F0E0E08010A25BE
:1078A0000801146F000E08010B210801156F0C0E62
:1078B00008010A250801126F000E08010B210801BA
:1078C000136F0FD8F3CF10F8F4CF11F804D00801DC
:1078D000106B116B00D010C8F3FF11C8F4FF00D07B
:1078E000120008011E6B1F6B12C8E9FF13C8EAFFE4
:1078F000EECF20F8EDCF21F814C8E9FF15C8EAFF54
:10790000EECF22F8EDCF23F80801F60E205D000E31
:10791000215907E308010C0ED88020550F0E215580
:1079200004E2F3687F0EF46E00D10801F60E225DCA
:10793000000E235907E308010C0ED88022550F0EC4
:10794000235504E2F3687F0EF46EEFD00801000EB9
:10795000D8802055080E21550AE220C820F821C8F9
:1079600021F80801000E205F080E215B0AD020C814
:1079700020F821C821F80801000ED8802057080EF1
:1079800021570801000ED8802255080E23550AE21F
:1079900022C822F823C823F80801000E225F080E2F
:1079A000235B0AD022C822F823C823F80801000E5E
:1079B000D8802257080E2357080122510801205D64
:1079C00008012351080121591EE208011E0E286FEB
:1079D000080E296F18C826F819C827F812C824F805
:1079E00013C825F8A3D8F3CF1CF8F4CF1DF8FF0E69
:1079F00008011C1902E17F0E1D1904E1F3687F0ED6
:107A0000F46E93D07DD012C8E9FF13C8EAFFEECF21
:107A100014F0EFCF15F0000E145C080E15583BE281
:107A200008011E0E286F080E296F1AC826F81BC8F9
:107A300027F814C824F815C825F878D8F3CF1CF80F
:107A4000F4CF1DF8FF0E08011C1902E17F0E1D196D
:107A500004E1F3687F0EF46E68D008011E0E286FF3
:107A6000080E296F1AC826F81BC827F814C824F86E
:107A700015C825F85BD8F3CF1CF8F4CF1DF8080122
:107A8000840ED8801C57030E1D5708011C6D1D1F46
:107A9000000E1D2335D008011E0E286F080E296F19
:107AA0001AC826F81BC827F814C824F815C825F8E2
:107AB0003DD8F3CF1CF8F4CF1DF8FF0E08011C19B8
:107AC00002E17F0E1D1904E1F3687F0EF46E2DD0E4
:107AD00008011E0E286F080E296F1AC826F81BC849
:107AE00027F814C824F815C825F820D8F3CF1CF8B7
:107AF000F4CF1DF80801840ED8801C57030E1D57C3
:107B000016C8E9FF17C8EAFF080108011C51EE2456
:107B100008011C6F080108011D51EE2008011D6FAE
:107B20001CC8F3FF1DC8F4FF00D0120024C8E9FFF1
:107B300025C8EAFFEECF14F0EFCF15F0200EF66E59
:107B4000D50EF76E0900F5CF16F00800F5CF17F047
:107B50001450165C1550175817E324C8E9FF25C8C0
:107B6000EAFFEECF18F0EFCF19F0680EF66ED50EE3
:107B7000F76E0900F5CF1AF00800F5CF1BF01A5088
:107B8000185C1B50195804E2F3687F0EF46E43D260
:107B900008012A6B2B6B24C8E9FF25C8EAFFEECF4A
:107BA00014F0EFCF15F0010E0801F76A2A25F66EE2
:107BB0002B51F722D890F636F736200EF626D50E42
:107BC000F7220900F5CF16F00800F5CF17F0165090
:107BD000145C175015581FE324C8E9FF25C8EAFFB5
:107BE000EECF18F0EFCF19F02AC8F6FF2BC8F7FF39
:107BF000D890F636F736200EF626D50EF722090075
:107C0000F5CF1AF00800F5CF1BF018501A5C195088
:107C10001B5801E30AD008012A2B000E2B23080170
:107C2000240E2A1901E12B51B6E12AC8F6FF2BC810
:107C3000F7FFD890F636F7366A0EF626D50EF722FD
:107C40000900F5CF2EF80A00F5CF2FF824C8E9FF78
:107C500025C8EAFFEECF14F0EFCF15F0010E0801B2
:107C6000F76A2A25F66E2B51F722D890F636F736AA
:107C7000200EF626D50EF7220900F5CF16F00800E3
:107C8000F5CF17F01650141802E11750151814E12B
:107C9000010E0801F76A2A25F66E2B51F722D890BB
:107CA000F636F7366A0EF626D50EF7220900F5CF1E
:107CB0002EF80A00F5CF2FF824C8E9FF25C8EAFFFF
:107CC000EECF14F0EFCF15F0010E0801F76A2A2568
:107CD000F66E2B51F722D890F636F736200EF626A0
:107CE000D50EF7220900F5CF16F00800F5CF17F0F2
:107CF0001650141802E11750151801E168D124C874
:107D0000E9FF25C8EAFFEECF18F0EFCF19F02AC837
:107D1000F6FF2BC8F7FFD890F636F736200EF6267A
:107D2000D50EF7220900F5CF1AF00800F5CF1BF0A9
:107D30001A50181802E11B50191801E148D12AC83D
:107D4000F6FF2BC8F7FFD890F636F736200EF6264A
:107D5000D50EF7220900F5CF14F00800F5CF15F085
:107D6000000ED8801454080E155401E38AD0010E79
:107D70000801F76A2A25F66E2B51F722D890F636BD
:107D8000F7366A0EF626D50EF7220900F5CF2CF845
:107D90000A00F5CF2DF82AC8F6FF2BC8F7FFD890B8
:107DA000F636F7366A0EF626D50EF7220900F5CF1D
:107DB0002AF80A00F5CF2BF82CC82EF82DC82FF87A
:107DC0002CC8F6FF2DC8F7FFD890F636F736A40E6C
:107DD000F6269D0EF7220900F5CF30F80A00F5CF00
:107DE00031F8010E0801F76A2C25F66E2D51F722A5
:107DF000D890F636F736A40EF6269D0EF722090027
:107E0000F5CF32F80A00F5CF33F824C8E9FF25C8CA
:107E1000EAFFEECF14F0EFCF15F008013051145CFB
:107E2000315115580FE324C8E9FF25C8EAFFEECF0A
:107E300016F0EFCF17F008011650325D1750335986
:107E400001E31ED0010E08012C2508012C6F000E45
:107E500008012D2108012D6F010E08012E250801B2
:107E60002E6F000E08012F2108012F6F08012A51E3
:107E700008012C1904E108012B5108012D19A0E17A
:107E8000A6D02AC8F6FF2BC8F7FFD890F636F736EB
:107E90006A0EF626D50EF7220900F5CF2CF80A0057
:107EA000F5CF2DF8010E0801F76A2A25F66E2B5141
:107EB000F722D890F636F7366A0EF626D50EF72258
:107EC0000900F5CF2AF80A00F5CF2BF82CC82EF8B8
:107ED0002DC82FF82CC82CF82DC82DF808012C6DB2
:107EE0002D1F000E2D232AC82AF82BC82BF80801B5
:107EF0002A6D2B1F000E2B232CC8F6FF2DC8F7FF71
:107F0000D890F636F736A40EF6269D0EF722090015
:107F1000F5CF30F80800F5CF31F80801000ED88011
:107F20003057100E3157010E0801F76A2C25F66EF6
:107F30002D51F722D890F636F736A40EF6269D0E70
:107F4000F7220900F5CF32F80800F5CF33F8080121
:107F5000000ED8803257100E335724C8E9FF25C8C9
:107F6000EAFFEECF14F0EFCF15F008013251145CA8
:107F7000335115580FE324C8E9FF25C8EAFFEECFB7
:107F800016F0EFCF17F008011650305D1750315939
:107F900001E31DD0010E08012C2508012C6F000EF5
:107FA00008012D2108012D6F2EC82EF82FC82FF89B
:107FB0000801010E2E5F000E2F5B08012A510801F7
:107FC0002C1904E108012B5108012D1995E128C84D
:107FD000E9FF29C8EAFF080108012E51EE24080133
:107FE0002E6F080108012F51EE2008012F6F26C8BF
:107FF000E9FF27C8EAFFEF0409E12EC82EF82FC8D1
:108000002FF808012E6D2F1F000E2F232EC8F3FF0F
:088010002FC8F4FF00D012009C
:0880180080B80AD0010E080136
:10802000345D03E30801340702D00101008909D05F
:108030000A0E0801345D03E20801342B02D001016D
:1080400000991200010100B902D0000E02D0010E09
:1080500000D0120081BE0AD0010E08013A5D03E390
:1080600008013A0702D00101009709D00A0E080161
:108070003A5D03E208013A2B02D0010100871200A9
:10808000010100B702D0000E02D0010E00D0120094
:108090000101990E2E5D010E2F5907E30101680EB3
:1080A000D8802E550E0E2F5502E2FF0E11D0010181
:1080B000670ED8802E55060E2F5508E201019B0E43
:1080C0002E5D090E2F5902E2010E02D0000E00D0E3
:1080D00012000101990E2E5D010E2F5907E30101D7
:1080E000680ED8802E550E0E2F5502E2FF0E11D0CD
:1080F0000101670ED8802E55060E2F5508E20101AA
:108100009B0E2E5D090E2F5902E2010E02D0000EC9
:1081100000D01200BDDF010807E10101018100016B
:10812000DB6B010E08D007D0010101910001010EA7
:10813000DB6F000E00D01200010101A102D0010E80
:1081400002D0000E00D012000101990E305D010E28
:10815000315907E30101680ED88030550E0E3155B4
:1081600002E2FF0E11D00101670ED8803055060ED5
:10817000315508E201019B0E305D090E315902E2D2
:10818000020E02D0FC0E00D0120008013C51E96E34
:10819000EA6AD890E936EA36100EE926010EEA229C
:1081A000EECF3DF8EDCF3EF8200E08013C5D11E228
:1081B0000801F60E3D5D000E3E5907E308010C0E66
:1081C000D8803D550F0E3E5504E2F3687F0EF46EE5
:1081D00014D008013C51E96EEA6AD890E936EA36D3
:1081E000100EE926010EEA22EECF14F0EFCF15F0C3
:1081F00014C0F3FF15C0F4FF00D0120026C13FF8F1
:1082000027C140F80801F60E3F5D000E405907E314
:1082100008010C0ED8803F550F0E405502E2FF0EAC
:108220000DD004012E5108013F5D04012F510801BA
:10823000405902E3010E02D0FC0E00D012000801EA
:108240004151070802E2FF0EABD108014151E96E2E
:10825000EA6AD890E936EA36200EE926040EEA22C8
:10826000EECF46F8EDCF47F808014151E96EEA6AD2
:10827000D890E936EA36400EE926040EEA22EECF1F
:1082800048F8EDCF49F841C808F7BCEC10F00801F8
:108290004A6F08014151070A72E0010A5AE0020AD6
:1082A0004EE0070A42E0010A36E0030A1BE0010A39
:1082B00001E081D00801000E0E6F040E0F6F08015F
:1082C000300E0C6F020E0D6F0801100E0A6F010EBA
:1082D0000B6F0801096B7BEC3BF0F3CF44F8F4CF54
:1082E00045F86BD00801000E0E6F040E0F6F0801E9
:1082F000300E0C6F020E0D6F0801100E0A6F010E8A
:108300000B6F0801010E096F7BEC3BF0F3CF44F8D3
:10831000F4CF45F852D00801020E026F03EC38F09A
:10832000F3CF44F8F4CF45F848D00801030E026FAC
:1083300003EC38F0F3CF44F8F4CF45F83ED0080111
:10834000040E026F03EC38F0F3CF44F8F4CF45F895
:1083500034D00801000EEB6F040EEC6F0801300EF4
:10836000E96F020EEA6F0801100EE76F010EE86F69
:10837000A6EC64F0F3CF44F8F4CF45F81ED0080122
:108380004A5117E03BDF146E156AFF0E141801E125
:10839000155002E1FF0E04D10C0E0C017A5D06E1CE
:1083A0002DDF010803E1010EFBD002D0FE0EF8D054
:1083B00002D024DFF5D0FF0EF3D0FF0E08014419E0
:1083C00002E17F0E451902E1FF0EEAD00801455196
:1083D00008014919E8AE02D0493507D048510801D3
:1083E000445D080149510801455902E3FE0ED8D009
:1083F0000801455108014719E8AE02D0473507D0BA
:1084000046510801445D080147510801455909E2F8
:10841000020E0801415D03E10701010E006F010E2C
:10842000BFD044C842F845C843F80801453504E2C6
:1084300044510008000E455509E344C842F845C8B8
:1084400043F80801426D431F000E4323020E08014A
:10845000415D0DE10801453504E244510008000E7C
:10846000455505E2280E08014B6F4C6B04D0280ED1
:1084700008014B6F4C6B030E0801415D08E0040ED0
:108480000801415D04E0020E0801415D30E1080190
:108490004B510801425D08014C510801435925E246
:1084A0000801800E451509E00001FE0EFB6F7ACC35
:1084B000FAF053EC10F0000911E00801453504E230
:1084C00044510008000E45550DE20001010EFB6FFE
:1084D0007ACCFAF053EC10F0000904E10801010E27
:1084E0003B6F02D008013B6B02D008013B6B0801D7
:1084F0004A51146E156AFE0E141801E115500EE172
:10850000140E080143AF02D0D89003D0425D000E94
:10851000435902E20C0E44D0FE0E42D008014A0537
:108520000EE1140E080143AF02D0D89003D0425D93
:10853000000E435902E20B0E33D0010E31D0080178
:108540004A51146E156A800E141801E1155002E1AB
:10855000000E26D00A0E080143AF02D0D89003D0F7
:10856000425D000E435902E2000E1AD0140E0801BB
:1085700043AF02D0D89003D0425D000E435908E2C9
:108580000801800E451502E0030E0AD0FB0E08D04C
:108590000801800E451502E0020E02D0FC0E00D04C
:1085A000120008014D51060A23E0060A09E0010AFB
:1085B00007E0030A05E0010A03E0070A01E02ED004
:1085C0000801000E0E6F040E0F6F0801300E0C6FC5
:1085D000020E0D6F0801100E0A6F010E0B6F4DC8D1
:1085E00009F87BEC3BF0F3CF00FDF4CF01FD19D08F
:1085F0000801000EEB6F040EEC6F0801300EE96FFE
:10860000020EEA6F0801100EE76F010EE86FA6EC8C
:1086100064F0F3CF00FDF4CF01FD03D0F36AF46AF8
:1086200005D000CDF3FF01CDF4FF00D0120052C100
:1086300000FD53C101FD0D01026B0C017851010ACF
:1086400031E0050A1BE0010A19E0070A03E0010A0C
:1086500001E03CD00D01340ED8800055030E0155C9
:1086600003E20D01080E026F0D01050E005D000E04
:10867000015903E20D01070E026F2BD00D01B40E5C
:10868000D8800055010E015503E20D01080E026F5E
:108690000D01000E005D000E015903E20D01070EF1
:1086A000026F17D00D01340ED8800055030E01550E
:1086B00003E20D01080E026F0D01050E005D000EB4
:1086C000015903E20D01070E026F03D0FF0E1AD00D
:1086D00000D00D01025114E008014E51146E156ACC
:1086E000FF0E141801E1155009E10801020E6A6F2E
:1086F00078CC69F802CD68F804EC59F0FF0E02D08E
:10870000000E00D012000101E60ED8805655000E72
:10871000575509E201011A0E565D010E575903E241
:10872000000E17D016D008014F51146E156AFF0EB7
:10873000141801E115500BE10801010E6A6F0801E0
:10874000140E696F0801010E686F04EC59F0FF0EFA
:1087500000D0120001011A0ED8805855010E59554B
:1087600009E20101B30E585D010E595903E2000EF2
:1087700017D016D008015051146E156AFF0E141848
:1087800001E115500BE10801FA0E6A6F0801130EA2
:10879000696F0801010E686F04EC59F0FF0E00D0FC
:1087A00012000101CD0ED8805055000E515503E244
:1087B000000E17D016D008015151146E156AFF0E25
:1087C000141801E115500BE10801020E6A6F08014F
:1087D000120E696F0801010E686F04EC59F0FF0E6C
:1087E00000D0120054C102FD55C103FD0D019A0EC7
:1087F000025D010E035907E20801356B0801366B73
:10880000376B000EC8D00801362B000E3723080145
:10881000400E365D000E375903E208013551BBD0DA
:108820000801366B376B0D0102510801385D0D01EF
:108830000351080139590DE2080138510D01025D5B
:108840000D01006F080139510D0103590D01016F30
:108850000CD00D0102510801385D0D01006F0D01B2
:108860000351080139590D01016F02CD38F803CDCC
:1088700039F80D01280ED8800055000E015503E28D
:108880000801355188D0020122510801385D0201EA
:1088900023510801395905E20801010E356F010E17
:1088A0007AD0070E0201156A2225146E2351152273
:1088B00008011450385D1550395910E2080135058A
:1088C00004E0020E0801355D04E10801355163D072
:1088D00005D00801010E356F010E5DD00201245153
:1088E0000801385D020125510801395905E20801E6
:1088F000020E356F020E4FD0070E0201156A2425B5
:10890000146E2551152208011450385D155039593F
:1089100011E2020E0801355D04E0030E0801355D29
:1089200004E10801355137D005D00801020E356F3A
:10893000020E31D0020126510801385D0201275193
:108940000801395905E20801030E356F030E23D0E3
:10895000070E0201156A2625146E275115220801FB
:108960001450385D1550395911E2030E0801355D78
:1089700004E0040E0801355D04E1080135510BD017
:1089800005D00801030E356F030E05D00801040E53
:10899000356F040E00D012000801355100D01200CE
:1089A00008013B5120E0030E0C01695D1CE0040E40
:1089B0000C01695D18E0030E0C016C5D14E0040EFF
:1089C0000C016C5D10E01A0E0C01695D0CE01A0ED2
:1089D0000C016C5D08E01B0E0C01695D04E01B0ED0
:1089E0000C016C5D16E10C017E510C01D8807C55A8
:1089F00004E30801576B586B07D00C017E510C0142
:108A00007C5D0801576F586B57C8F3FF58C8F4FFD7
:108A100075D108015251040A19E0070A0DE0010A54
:108A200001E01ED00801020E026F03EC38F0F3CF14
:108A300055F8F4CF56F82AD00801030E026F03EC64
:108A400038F0F3CF55F8F4CF56F820D00801040ED3
:108A5000026F03EC38F0F3CF55F8F4CF56F816D088
:108A60000C017E510C017C5D04E20801576B586BD0
:108A700007D00C017E510C017C5D0801576F586BCB
:108A800057C8F3FF58C8F4FF39D100D055C853F880
:108A900056C854F808015551561103E1F36AF46AB7
:108AA0002DD10801563504E255510008000E5655E7
:108AB00009E355C853F856C854F80801536D541FBC
:108AC000000E542308015251030A71E0070A6FE0B7
:108AD000060A01E0D4D00801563504E255510008D9
:108AE000000E565532E20C017B51146E156A0801D6
:108AF00014C0E8FF5303F3CF57F8F4CF58F85403EA
:108B0000F3500801582715C0E8FF08015303F3503C
:108B1000080158273C0E0D6E0E6A57C808F058C859
:108B200009F027EC68F008C057F809C058F80A0E99
:108B3000080154AF02D0D89003D0535D000E5459B1
:108B400003E2F36AF46ADAD031D00C017B51146E7F
:108B5000156A080114C0E8FF5303F3CF57F8F4CFA8
:108B600058F85403F3500801582715C0E8FF0801CE
:108B70005303F35008015827230E0D6E0E6A57C891
:108B800008F058C809F027EC68F008C057F809C089
:108B900058F80A0E080154AF02D0D89003D0535DA4
:108BA000000E545903E2F36AF46AA8D06CD00801AD
:108BB000800E561532E10C017B51146E156A0801C6
:108BC00014C0E8FF5303F3CF57F8F4CF58F8540319
:108BD000F3500801582715C0E8FF08015303F3506C
:108BE00008015827280E0D6E0E6A57C808F058C89D
:108BF00009F027EC68F008C057F809C058F80A0EC9
:108C0000080154AF02D0D89003D0535D000E5459E0
:108C100003E2F36AF46A72D031D00C017B51146E16
:108C2000156A080114C0E8FF5303F3CF57F8F4CFD7
:108C300058F85403F3500801582715C0E8FF0801FD
:108C40005303F35008015827280E0D6E0E6A57C8BB
:108C500008F058C809F027EC68F008C057F809C0B8
:108C600058F80A0E080154AF02D0D89003D0535DD3
:108C7000000E545903E2F36AF46A40D004D0F36A58
:108C8000F46A3CD000D00801583504E25751FE0880
:108C9000000E585504E2FE0E0801576F586B08018C
:108CA000800E581503E00801576B586B0C017C517E
:108CB000146E156A080115505819E8AE02D05835DF
:108CC00004D05751145C5851155805E20C017C51E1
:108CD0000801576F586B0C017E51080158AF02D044
:108CE000D89003D0575D000E585903E20801576B26
:0E8CF000586B57C8F3FF58C8F4FF00D01200AD
:028CFE0008016B
:108D0000FF0502E0000E64D00001880EC96F010E5D
:108D1000CA6F46EC2CF07F0E0101881504E07F0E2F
:108D20000101891502E1000E53D00001FF6BA5DBA4
:108D30000001FF51146E156A153404E21450F00856
:108D4000000E1554F4E20101786908017C6B0801FA
:108D50007D6B08018A6B08017E6B7F6B08018B6B52
:108D60008CDB0001EC6B8AC8EBF024EC02F0800E87
:108D70000101B65D05E1030E0101D65D01E0FF00D2
:108D8000800E0101B45D05E1030E0101D45D01E037
:108D9000FF00800E0101B55D05E1030E0101D55D07
:108DA00001E0FF00640E0001FF5D11E312D8000135
:108DB000FF6BC0DB14DB08017C6F08017C51146E73
:108DC000156AD30E141801E1155001E1FF00C8D750
:108DD000120008017C51020A01E1D7D00C0A01E11E
:108DE000C8D0030A01E1B9D0010A01E1AAD0070AFB
:108DF00001E19BD0010A01E18CD0030A01E17DD0A1
:108E0000010A6FE00F0A61E0010A4AE0030A33E059
:108E1000010A1CE0070A05E0020A01E028D129D96D
:108E200027D10801020E026F03EC38F0F3CF8CF863
:108E3000F4CF8DF88CC896F88DC897F80801440EC9
:108E4000946F040E956F81DB94DB12D10801020E42
:108E5000026F03EC38F0F3CF8CF8F4CF8DF88CC8A8
:108E600096F88DC897F80801240E946F040E956F3C
:108E70006CDB7FDBFDD00801030E026F03EC38F0E2
:108E8000F3CF8CF8F4CF8DF88CC896F88DC897F88E
:108E90000801460E946F040E956F57DB6ADBE8D02D
:108EA0000801030E026F03EC38F0F3CF8CF8F4CF17
:108EB0008DF88CC896F88DC897F80801260E946F27
:108EC000040E956F42DB55DBD3D05CC196F85DC1D3
:108ED00097F80801420E946F040E956F36DB49DB5C
:108EE000C7D05CC196F85DC197F80801220E946F57
:108EF000040E956F2ADB3DDBBBD05AC196F85BC1EF
:108F000097F80801400E946F040E956F1EDB31DB5D
:108F1000AFD05AC196F85BC197F80801200E946F44
:108F2000040E956F12DB25DBA3D066C196F867C1EE
:108F300097F808014C0E946F040E956F06DB19DB51
:108F400097D066C196F867C197F808012C0E946F08
:108F5000040E956FFADA0DDB8BD064C196F865C10B
:108F600097F808014A0E946F040E956FEEDA01DB54
:108F70007FD064C196F865C197F808012A0E946FF6
:108F8000040E956FE2DAF5DA73D0010101015A514E
:108F90000401002508018E6F010101015B510401EC
:108FA000012108018F6F8EC896F88FC897F80801C5
:108FB000000E946F040E956FC8DA01015C51040134
:108FC000025D08018E6F01015D5104010359080122
:108FD0008F6F8EC896F88FC897F80801020E946FAD
:108FE000040E956FB2DA01015E510401045D0801BF
:108FF0008E6F01015F510401055908018F6F8EC802
:1090000096F88FC897F80801040E946F040E956FB8
:109010009CDA010160510401065D08018E6F0101B7
:1090200061510401075908018F6F8EC896F88FC8E7
:1090300097F80801060E946F040E956F86DA010109
:1090400062510401085D08018E6F01016351040142
:10905000095908018F6F8EC896F88FC897F80801D4
:10906000080E946F040E956F70DA83DA01D000D089
:1090700012000801030E026F03EC38F0F3CF86F8FC
:10908000F4CF87F80801040E026F03EC38F0F3CF39
:1090900088F8F4CF89F8FF0E0801861902E17F0EE7
:1090A000871907E0FF0E0801881902E17F0E891970
:1090B00001E1FF000C01780507E108014E6B17EC98
:1090C00043F0000901E0FF000801900E7E5D010EF3
:1090D0007F5901E3FF0008017D51050A01E150D1EC
:1090E000030A01E14DD1020A01E1FCD0070A01E1C6
:1090F000ABD0010A2AE0030A11E0010A01E05BD1CA
:10910000E6D9000901E0FF000801010E8A6F0101A4
:10911000800EB66F0801010E7D6F4ED10C01010E5D
:10912000786F0801130E9A6F23EC60F0030E83161C
:109130001C0E8312E668010EE66E61EC6AF0E552E1
:10914000E5520801020E7D6F37D10801833504E234
:1091500082511008000E835509E30801853504E2A9
:1091600084511008000E855501E326D1080187516E
:1091700008018919E8AE02D0893507D08851080165
:10918000865D08018951080187592FE2020E080106
:10919000156A8825146E8951152208011550851904
:1091A000E8AE02D0853504D08451145C8551155841
:1091B0001BE388C816F089C817F0020E165E000E71
:1091C000175A080185511718E8AE02D0173404D099
:1091D0001650845D1750855907E30101800EB46F66
:1091E0000801040E7D6FE8D02ED0020E0801156A2A
:1091F0008625146E87511522080115508319E8AE93
:1092000002D0833504D08251145C835115581BE37E
:1092100086C816F087C817F0020E165E000E175AA1
:10922000080183511718E8AE02D0173404D0165045
:10923000825D1750835907E30101800EB56F080165
:10924000030E7D6FB9D0B8D00801893504E288518A
:109250001008000E895501E3AFD0400E0801156AD1
:109260008625146E87511522080189511518E8AE1C
:1092700002D0153404D01450885D1550895906E386
:109280000101B56B0801020E7D6F96D088C814F0FD
:1092900089C815F0080E145E000E155A0801875192
:1092A0001518E8AE02D0153404D01450865D155060
:1092B000875917E3080E0801176A8825166E895129
:1092C0001722080117508719E8AE02D0873504D05D
:1092D0008651165C8751175804E30801050E7D6F0F
:1092E0006BD06AD00801873504E286511008000E61
:1092F000875501E361D0400E0801156A8825146E78
:1093000089511522080187511518E8AE02D015348D
:1093100004D01450865D1550875906E30101B46BE3
:109320000801020E7D6F48D088C814F089C815F076
:10933000080E145E000E155A080187511518E8AE84
:1093400002D0153404D01450865D1550875917E3A8
:10935000080E0801176A8825166E89511722080120
:1093600017508719E8AE02D0873504D08651165CB5
:109370008751175804E30801050E7D6F1DD01CD0DE
:109380000801A56B26EC61F0829A000EE66EE66A93
:1093900061EC6AF0E552E552030E831608017C6B1E
:1093A00008018A6B010178690C01786B0801010ED4
:1093B0008B6FFF0001D000D00801030E026F03EC99
:1093C00038F0F3CF82F8F4CF83F80801040E026F6F
:1093D00003EC38F0F3CF84F8F4CF85F812007F0E59
:1093E00001018815020805E07F0E010189150208B8
:1093F00006E108017C0503E10C01786BFF00080120
:109400007C0502E1010E38D07F0E010188150C08A1
:1094100005E07F0E010189150C082CE10801916B14
:109420007F0E010188150C0803E10801010E916F00
:1094300008019151EA6A880FE96E010EEA22EF50A5
:109440007F0B10080AE108017D6B08017E6B7F6BC2
:109450000101200E786F010E0FD008019151EA6AC8
:10946000880FE96E010EEA22EF507F0B020802E13D
:10947000020E02D0D30E00D012000001880EC96F78
:10948000010ECA6F46EC2CF00701100EA36F010EFF
:10949000A46FE8EC5BF00801D00E9E6F010E9F6F89
:1094A0000801B00E9C6F010E9D6F98EC60F00801F2
:1094B0005A0E006F010E016F5AEC37F008015A0E78
:1094C000E56F010EE66F86EC64F0040012000801FF
:1094D000926B0801936B050E0001FF5D01E2CDDF89
:1094E0000001FF6B0801920508E00001EC6B000130
:1094F000010EEB6F24EC02F013D00801516BD1EC9C
:1095000043F0000903E1000E14D00AD0829A08014A
:109510009351140803E2010E0CD002D00801932BE2
:109520000801922B020E0801925D02E30801926B82
:10953000D2D712000801FF0E7E5DFF0E7F5904E2B4
:1095400008017E2B000E7F23120094C894F895C862
:1095500095F80801000E945F020E955B96C8E9FC31
:1095600097C8EAFC94C8E7FC95C8E8FC03EC5DF0FA
:1095700012000101200E786F0801986B996B140E90
:10958000E66E88EC6BF0E55204000801982B000EA3
:1095900099230801C80ED8809855000E9955EFE21E
:0495A000FF001200B6
:0C95A400010001000200020003000300AF
:1095B000040004000500050006000700070008007D
:1095C0000800090009000A000A000B000C000C004A
:1095D0000D000D000E000E000F000F001000100017
:1095E00011001200120013001300140014001500E3
:1095F00015001600160017001800180019001900B1
:109600001A001A001B001B001C001C001D001E007D
:109610001E001F001F00200020002100210022004A
:109620002300230024002400250025002600260016
:10963000270027002800290029002A002A002B00E3
:109640002B002C002C002D002D002E002F002F00B1
:10965000300030003100310032003200330034007D
:10966000340035003500360036003700370038004A
:10967000380039003A003A003B003B003C003C0017
:109680003D003D003E003E003F00400040004100E4
:1096900041004200420043004300440044004500B2
:1096A000460046004700470048004800490049007E
:1096B0004A004B004B004C004C004D004D004E004A
:1096C0004E004F004F005000510051005200520018
:1096D00053005300540054005500550056005700E5
:1096E000570058005800590059005A005A005B00B2
:1096F0005C005C005D005D005E005E005F005F007E
:10970000600060006100620062006300630064004A
:109710006400650065006600660067006800680018
:10972000690069006A006A006B006B006C006D00E4
:109730006D006E006E006F006F00700070007100B1
:10974000710072007300730074007400750075007E
:1097500076007600770077007800790079007A004B
:109760007A007B007B007C007C007D007D007E0019
:109770007F007F00800080008100810082008200E5
:1097800083008400840085008500860086008700B1
:1097900087008800880089008A008A008B008B007F
:1097A0008C008C008D008D008E008E008F0090004C
:1097B0009000910091009200920093009300940019
:1097C00095009500960096009700970098009800E5
:1097D000990099009A009B009B009C009C009D00B2
:1097E0009D009E009E009F009F00A000A100A10080
:1097F000A200A200A300A300A400A400A500A5004D
:10980000A600A700A700A800A800A900A900AA0018
:10981000AA00AB00AC00AC00AD00AD00AE00AE00E5
:10982000AF00AF00B000B000B100B200B200B300B2
:10983000B300B400B400B500B500B600B600B70080
:10984000B800B800B900B900BA00BA00BB00BB004C
:10985000BC00BD00BD00BE00BE00BF00BF00C00018
:10986000C000C100C100C200C300C300C400C400E6
:10987000C500C500C600C600C700C700C800C900B3
:10988000C900CA00CA00CB00CB00CC00CC00CD0080
:10989000CE00CE00CF00CF00D000D000D100D1004C
:1098A000D200D200D300D400D400D500D500D60019
:1098B000D600D700D700D800D800D900DA00DA00E7
:1098C000DB00DB00DC00DC00DD00DD00DE00DE00B4
:1098D000DF00E000E000E100E100E200E200E30080
:1098E000E300E400E500E500E600E600E700E7004D
:1098F000E800E800E900E900EA00EB00EB00EC001A
:10990000EC00ED00ED00EE00EE00EF00EF00F000E7
:10991000F100F100F200F200F300F300F400F400B3
:10992000F500F600F600F700F700F800F800F9007F
:10993000F900FA00FA00FB00FC00FC00FD00FD004D
:10994000FE00FE00FF00FF00000100010101020116
:1099500002010301030104010401050105010601DF
:109960000601070108010801090109010A010A01AC
:109970000B010B010C010D010D010E010E010F0178
:109980000F01100110011101110112011301130146
:109990001401140115011501160116011701170113
:1099A0001801190119011A011A011B011B011C01DF
:1099B0001C011D011E011E011F011F0120012001AC
:1099C0002101210122012201230124012401250179
:1099D0002501260126012701270128012801290147
:1099E0002A012A012B012B012C012C012D012D0113
:1099F0002E012E012F0130013001310131013201E0
:109A000032013301330134013501350136013601AC
:109A10003701370138013801390139013A013B0179
:109A20003B013C013C013D013D013E013E013F0146
:109A30003F01400141014101420142014301430113
:109A400044014401450146014601470147014801DF
:109A50004801490149014A014A014B014C014C01AD
:109A60004D014D014E014E014F014F01500150017A
:109A70005101520152015301530154015401550146
:109A80005501560156015701580158015901590114
:109A90005A015A015B015B015C015D015D015E01E0
:109AA0005E015F015F0160016001610161016201AE
:109AB000630163016401640165016501660166017A
:109AC000670167016801690169016A016A016B0147
:109AD0006B016C016C016D016E016E016F016F0114
:109AE00070017001710171017201720173017401E1
:109AF00074017501750176017601770177017801AE
:109B0000780179017A017A017B017B017C017C017A
:109B10007D017D017E017F017F0180018001810146
:109B20008101820182018301830184018501850114
:109B300086018601870187018801880189018901E1
:109B40008A018B018B018C018C018D018D018E01AD
:109B50008E018F018F01900191019101920192017B
:109B60009301930194019401950196019601970147
:109B7000970198019801990199019A019A019B0115
:109B80009C019C019D019D019E019E019F019F01E1
:109B9000A001A001A101A201A201A301A301A401AE
:109BA000A401A501A501A601A701A701A801A8017B
:109BB000A901A901AA01AA01AB01AB01AC01AD0148
:109BC000AD01AE01AE01AF01AF01B001B001B10115
:109BD000B101B201B301B301B401B401B501B501E2
:109BE000B601B601B701B701B801B901B901BA01AF
:109BF000BA01BB01BB01BC01BC01BD01BE01BE017C
:109C0000BF01BF01C001C001C101C101C201C20148
:109C1000C301C401C401C501C501C601C601C70114
:109C2000C701C801C801C901CA01CA01CB01CB01E2
:109C3000CC01CC01CD01CD01CE01CF01CF01D001AE
:109C4000D001D101D101D201D201D301D301D4017C
:109C5000D501D501D601D601D701D701D801D80148
:109C6000D901D901DA01DB01DB01DC01DC01DD0115
:109C7000DD01DE01DE01DF01E001E001E101E101E2
:109C8000E201E201E301E301E401E401E501E601AF
:109C9000E601E701E701E801E801E901E901EA017C
:109CA000EA01EB01EC01EC01ED01ED01EE01EE0149
:109CB000EF01EF01F001F001F101F201F201F30116
:109CC000F301F401F401F501F501F601F701F701E3
:109CD000F801F801F901F901FA01FA01FB01FB01B0
:109CE000FC01FD01FD01FE01FE01FF01FF0100027B
:109CF0000002010201020202030203020402040242
:109D0000050205020602060207020802080209020D
:109D100009020A020A020B020B020C020C020D02DB
:109D20000E020E020F020F021002100211021102A7
:109D30001202120213021402140215021502160274
:109D40001602170217021802180219021A021A0242
:109D50001B021B021C021C021D021D021E021F020E
:109D60001F022002200221022102220222022302DB
:109D700023022402250225022602260227022702A8
:109D800028022802290229022A022B022B022C0275
:109D90002C022D022D022E022E022F023002300242
:049DA0003102310259
:0C9DA40000080308060809080B080E0858
:109DB0001108140817081A081D081F08220825088A
:109DC00028082B082E0831083308360839083C08C3
:109DD0003F084208450847084A084D0850085308FC
:109DE000560859085B085E086108640867086A0835
:109DF0006D086F087208750878087B087E0881086E
:109E00008308860889088C088F08920894089708A8
:109E10009A089D08A008A308A608A808AB08AE08E1
:109E2000B108B408B708B908BC08BF08C208C5081B
:109E3000C808CB08CD08D008D308D608D908DC0854
:109E4000DE08E108E408E708EA08ED08EF08F20890
:109E5000F508F808FB08FD080009030906090909C7
:109E60000C090E091109140917091A091D091F09FE
:109E70002209250928092B092D093009330936093A
:109E800039093B093E0941094409470949094C0977
:109E90004F095209550957095A095D0960096309B3
:109EA000650968096B096E097109730976097909F1
:109EB0007C097E098109840987098A098C098F092F
:109EC0009209950997099A099D09A009A309A5096D
:109ED000A809AB09AE09B009B309B609B909BB09AC
:109EE000BE09C109C409C609C909CC09CF09D109EC
:109EF000D409D709DA09DC09DF09E209E409E7092D
:109F0000EA09ED09EF09F209F509F809FA09FD096D
:109F1000000A020A050A080A0B0A0D0A100A130AA7
:109F2000150A180A1B0A1E0A200A230A260A280AEA
:109F30002B0A2E0A300A330A360A380A3B0A3E0A2E
:109F4000400A430A460A480A4B0A4E0A500A530A74
:109F5000560A580A5B0A5E0A600A630A660A680AB9
:109F60006B0A6E0A700A730A760A780A7B0A7E0AFE
:109F7000800A830A850A880A8B0A8D0A900A930A46
:109F8000950A980A9A0A9D0AA00AA20AA50AA70A8F
:109F9000AA0AAD0AAF0AB20AB40AB70ABA0ABC0AD8
:109FA000BF0AC10AC40AC70AC90ACC0ACE0AD10A22
:109FB000D30AD60AD80ADB0ADE0AE00AE30AE50A6F
:109FC000E80AEA0AED0AEF0AF20AF50AF70AFA0ABB
:109FD000FC0AFF0A010B040B060B090B0B0B0E0B03
:109FE000100B130B150B180B1A0B1D0B1F0B220B51
:109FF000240B270B290B2C0B2E0B310B330B360BA1
:10A00000380B3B0B3D0B400B420B440B470B490BF2
:10A010004C0B4E0B510B530B560B580B5B0B5D0B44
:10A020005F0B620B640B670B690B6B0B6E0B700B9A
:10A03000730B750B780B7A0B7C0B7F0B810B840BEE
:10A04000860B880B8B0B8D0B8F0B920B940B970B46
:10A05000990B9B0B9E0BA00BA20BA50BA70BA90B9F
:10A06000AC0BAE0BB00BB30BB50BB70BBA0BBC0BF9
:10A07000BE0BC10BC30BC50BC80BCA0BCC0BCF0B54
:10A08000D10BD30BD50BD80BDA0BDC0BDF0BE10BB1
:10A09000E30BE50BE80BEA0BEC0BEE0BF10BF30B10
:10A0A000F50BF70BFA0BFC0BFE0B000C030C050C6D
:10A0B000070C090C0C0C0E0C100C120C140C170CC9
:10A0C000190C1B0C1D0C1F0C220C240C260C280C2C
:10A0D0002A0C2C0C2F0C310C330C350C370C390C92
:10A0E0003C0C3E0C400C420C440C460C480C4A0CF8
:10A0F0004D0C4F0C510C530C550C570C590C5B0C60
:10A100005D0C5F0C620C640C660C680C6A0C6C0CC9
:10A110006E0C700C720C740C760C780C7A0C7C0C37
:10A120007E0C800C820C850C870C890C8B0C8D0CA2
:10A130008F0C910C930C950C970C990C9B0C9D0C0F
:10A140009F0CA10CA20CA40CA60CA80CAA0CAC0C85
:10A15000AE0CB00CB20CB40CB60CB80CBA0CBC0CF7
:10A16000BE0CC00CC20CC30CC50CC70CC90CCB0C6C
:10A17000CD0CCF0CD10CD30CD50CD60CD80CDA0CE2
:10A18000DC0CDE0CE00CE20CE30CE50CE70CE90C5B
:10A19000EB0CED0CEE0CF00CF20CF40CF60CF70CD6
:10A1A000F90CFB0CFD0CFF0C000D020D040D060D4F
:10A1B000080D090D0B0D0D0D0F0D100D120D140DC9
:10A1C000160D170D190D1B0D1C0D1E0D200D220D4A
:10A1D000230D250D270D280D2A0D2C0D2E0D2F0DCD
:10A1E000310D330D340D360D380D390D3B0D3C0D51
:10A1F0003E0D400D410D430D450D460D480D490DD9
:10A200004B0D4D0D4E0D500D510D530D550D560D61
:10A21000580D590D5B0D5D0D5E0D600D610D630DEB
:10A22000640D660D670D690D6A0D6C0D6D0D6F0D7A
:10A23000700D720D730D750D760D780D790D7B0D0A
:10A240007C0D7E0D7F0D810D820D840D850D870D9A
:10A25000880D890D8B0D8C0D8E0D8F0D910D920D2E
:10A26000930D950D960D980D990D9A0D9C0D9D0DC4
:10A270009E0DA00DA10DA30DA40DA50DA70DA80D5C
:10A28000A90DAB0DAC0DAD0DAF0DB00DB10DB30DF6
:10A29000B40DB50DB60DB80DB90DBA0DBC0DBD0D93
:10A2A000BE0DBF0DC10DC20DC30DC40DC60DC70D32
:10A2B000C80DC90DCA0DCC0DCD0DCE0DCF0DD10DD4
:10A2C000D20DD30DD40DD50DD60DD80DD90DDA0D77
:10A2D000DB0DDC0DDD0DDF0DE00DE10DE20DE30D1D
:10A2E000E40DE50DE60DE70DE90DEA0DEB0DEC0DC6
:10A2F000ED0DEE0DEF0DF00DF10DF20DF30DF40D72
:10A30000F50DF60DF80DF90DFA0DFB0DFC0DFD0D1B
:10A31000FE0DFF0D000E010E020E030E040E050EC3
:10A32000060E070E070E080E090E0A0E0B0E0C0E77
:10A330000D0E0E0E0F0E100E110E120E130E140E29
:10A34000140E150E160E170E180E190E1A0E1B0EE1
:10A350001B0E1C0E1D0E1E0E1F0E200E200E210E9B
:10A36000220E230E240E250E250E260E270E280E55
:10A37000290E290E2A0E2B0E2C0E2C0E2D0E2E0E13
:10A380002F0E2F0E300E310E320E320E330E340ED3
:10A39000340E350E360E360E370E380E380E390E98
:10A3A0003A0E3A0E3B0E3C0E3C0E3D0E3E0E3E0E5D
:10A3B0003F0E400E400E410E410E420E430E430E24
:10A3C000440E440E450E460E460E470E470E480EEE
:10A3D000480E490E490E4A0E4A0E4B0E4B0E4C0EBD
:10A3E0004D0E4D0E4E0E4E0E4F0E4F0E4F0E500E8A
:10A3F000500E510E510E520E520E530E530E540E5D
:10A40000540E540E550E550E560E560E560E570E31
:10A41000570E580E580E580E590E590E590E5A0E08
:10A420005A0E5B0E5B0E5B0E5C0E5C0E5C0E5D0EE0
:10A430005D0E5D0E5D0E5E0E5E0E5E0E5F0E5F0EBD
:10A440005F0E5F0E600E600E600E600E610E610E9C
:10A45000610E610E620E620E620E620E620E630E7D
:10A46000630E630E630E630E640E640E640E640E60
:10A47000640E640E640E650E650E650E650E650E47
:10A48000650E650E650E660E660E660E660E660E2F
:10A49000660E660E660E660E660E660E660E660E1C
:0EA4A000660E660E660E660E660E660E660E82
:02A4AE009D9A75
:10A4B0000701D551030A12E0010A0CE0030A06E085
:10A4C000010A01E00FD00D01006910D00D01810ECD
:10A4D000006F0CD00D01400E006F08D00D01200E52
:10A4E000006F04D00D01400E006F00D000CDFFF7CB
:10A4F0000701B70EFE6F0701AB0EFD6F32EC6CF07B
:10A50000AECF01FDABCF01FDAB98AB880701D48581
:10A510000701D4970701D16B9D8A1200060EAB1478
:10A520000701D66FAECFD7F70701D4A759D00701DF
:10A53000D65109E10701D0510701D75D04E10D0EA5
:10A540000701D75D0EE10701D65102E0AB98AB8859
:10A550000701D4970701D4850701CD6B0701D4917A
:10A560003ED00701CD51EA6AA50FE96E070EEA2237
:10A57000EFCFD0F70701D4B11AD00701CF5104E1D2
:10A5800007010D0ED06F12D00701D0390F0B070154
:10A59000D06F0701D00EDF6F070EE06F0701D00EFE
:10A5A000DD6F070EDE6FF9D80701D48116D00F0ECC
:10A5B0000701D0150701D06F0701D00EDF6F070E1E
:10A5C000E06F0701D00EDD6F070EDE6FE6D80701E2
:10A5D000D4910701CD2B0701CF07D0C7ADFFA7D07E
:10A5E0000701D6510CE0AB98AB880701D12B0701CE
:10A5F000D15102E10701D1070701CD6B98D00701C6
:10A600000701D451040B05E007010701D451100BD9
:10A6100003E00701CD6B8BD00701D351146E156A8F
:10A62000FF0E141801E1155002E00701D32B0701BA
:10A63000D751230A04E0030A01E00FD078D00701C4
:10A64000230EA56F0701010ECD6F0701010ECE6F1E
:10A650000701D4830701D4916AD00701CD5101E1EC
:10A6600066D00D0E0701D75D16E10701CD51EA6AEC
:10A67000A50FE96E070EEA22D7C7EFFF0701CE2B21
:10A680000701D4890701D4950701D4930701D16B41
:10A690000701CD6B4BD00701D4B122D00701D70EF3
:10A6A000DB6F070EDC6F0701D70ED96F070EDA6F6D
:10A6B0003FD8000903E10701CD6B39D00701D73935
:10A6C000F00BE66E0701CD51EA6AA50FE96E070EA1
:10A6D000EA22E552E750EF6E0701D48128D026D058
:10A6E0000701D70EDB6F070EDC6F0701D70ED96F9E
:10A6F000070EDA6F1DD8000903E10701CD6B17D0F3
:10A700000701CD51EA6AA50FE96E070EEA2207019B
:10A71000D751EF120701D4910701CE2B0701CD2BA2
:10A72000270E0701CD5D02E30701CD6B00D01200BB
:10A73000D9C7E9FFDAC7EAFFEF50E66EE66A6FECC9
:10A740006BF0E552E552F3CF14F0F4CF15F014504E
:10A75000151002E1000E20D0D9C7E9FFDAC7EAFFE1
:10A76000EF5039080CE2D9C7E9FFDAC7EAFFEF502A
:10A77000C90FDBC7E9FFDCC7EAFFEF6E0BD0D9C713
:10A78000E9FFDAC7EAFFEF50D00FDBC7E9FFDCC70C
:10A79000EAFFEF6E010E00D01200DDC7E9FFDEC751
:10A7A000EAFFEF50300FDFC7E9FFE0C7EAFFEF6EC7
:10A7B000DFC7E9FFE0C7EAFFEF50390808E2070EFC
:10A7C000146EDFC7E9FFE0C7EAFF1450EF2612005E
:10A7D0000701D151146E156AD890155004E6C80EC1
:10A7E000145C000E15580CE30C01F15104E10C014E
:10A7F000040EF16F02D00C01F107F1CCD5F757DE52
:10A8000012000701D251146E156AD890155004E653
:10A81000FF0E145C000E155802E20701D22B120045
:10A820000701D26B0701D4A713D007010701D45148
:10A83000080B0CE10701D251146E156AD89015501F
:10A8400004E6C80E145C000E155802E20000EDD7B5
:10A850000701CD5102E1000E02D0010E00D012001E
:10A860009D9A0701010ECD6F020E0701CF5F070110
:10A87000D4910701230ED06F230EAD6E0701D4993A
:10A880000701D4950701D4879D8A1200E4C7E9FF28
:10A89000E5C7EAFFEF6A010E0701EA6AE425E96EFF
:10A8A000E551EA22EF6AE1C7E9FFE2C7EAFFEFCF2D
:10A8B00014F0E4C7E9FFE5C7EAFF1450EF1AE1C757
:10A8C000E9FFE2C7EAFFEFCF14F0010E0701EA6AE1
:10A8D000E425E96EE551EA221450EF260701E12B49
:10A8E000000EE2230701E3070701E351DCE1120058
:10A8F0000701D4B902D0000EC9D00701D499060EC1
:10A900000701CE5D01E2BED00C01F2510701A75D47
:10A9100001E0B8D0A6C7A7F7F2CCA6F7A9C702FDF9
:10A92000AAC701FDABC700FD0701040EE46F0D0EC1
:10A93000E56F040E0701CE5D0701E36F0701A60E68
:10A94000E16F070EE26FA2DF030E0701CE5DEA6A38
:10A95000A50FE96E070EEA22EF500D01045D0CE130
:10A96000020E0701CE5DEA6AA50FE96E070EEA2224
:10A97000EF500D01055D17E0030E0701CE5DEA6A99
:10A98000A50FE96E070EEA22EF50550801E07AD0D4
:10A99000020E0701CE5DEA6AA50FE96E070EEA22F4
:10A9A000EF50AA086FE10701A851020A39E0030A33
:10A9B00009E0010A01E060D0070E0701CE5D01E168
:10A9C000FF0060D00A0E0701CE5D01E25BD00D01F1
:10A9D000025104E00D010251100806E207010A0EBF
:10A9E000E66F78D8050E52D002CDC9F80801A90E3D
:10A9F000C76F070EC86F00CDC5F801CDC6F885EC4E
:10AA00005DF00D01036F000906E102CDE7F787D87D
:10AA1000040E3CD005D003CDE6F75CD8050E36D049
:10AA20000B0E0701CE5D01E22DD00D01025104E0B5
:10AA30000D010251100806E207010A0EE66F4AD81E
:10AA4000050E24D002CDCEF80801AC0ECC6F070E57
:10AA5000CD6F00CDCAF801CDCBF80FEC5EF00D0143
:10AA6000036F000904E113D8040E10D005D003CD04
:10AA7000E6F730D8050E0AD007010A0EE66F2AD88D
:10AA8000050E04D00701D485000E00D01200070186
:10AA9000040EA86F0701A90EE46F070EE56F07010A
:10AAA000030EE36F0701A60EE16F070EE26FEEDE05
:10AAB00007010D0EAB6F0701070ECF6FB1DE000966
:10AAC00004E1CEDE000E05D004D00701D485010ECE
:10AAD00000D012000701050EA86FE6C7A9F707010D
:10AAE000AA0EE46F070EE56F0701040EE36F07017E
:10AAF000A60EE16F070EE26FC9DE07010D0EAC6F07
:10AB00000701080ECF6F8CDE000904E1A9DE000EFC
:10AB100005D004D00701D485010E00D01200070132
:10AB2000040EA86F040E0701E7250701E46FE56B2B
:10AB3000A50E0701E427070E0701E523030E070111
:10AB4000E7250701E36F0701A60EE16F070EE26F2D
:10AB50009DDE060E0701E725EA6AA50FE96E070EDE
:10AB6000EA220D0EEF6E070E0701E7250701CF6FF2
:10AB700057DE000904E174DE000E05D004D00701A1
:08AB8000D485010E00D0120083
:08AB88000C0E9312CF0E931680
:10AB9000FC0E9516969ECF0E8116030E8312849E90
:10ABA000010EE66E27EC6CF0E552848E120008016F
:10ABB000EF5101E183900801EF0501E183920D015E
:10ABC000166B800E176F0D01186B196B81880801C9
:10ABD0000801F0510D011615146E08010801F1511C
:10ABE0000D011715156E1450151002E1819A01D050
:10ABF000818A81A608D00D0116510D0118130D018F
:10AC000017510D0119138198D8900D011733163380
:10AC10000D0116511711DAE18380838218CDF3FFFD
:10AC200019CDF4FF00D012000D01006B016B010E75
:10AC30000D01106F116BF2C8E9FFF3C8EAFFEFCF07
:10AC400014F0800E145C08E30D0110510D01001387
:10AC50000D0111510D0101130801F22B000EF32318
:10AC6000010E0D01D89010371137E806FBE10D01F8
:10AC7000105102E1010E1119DEE10D01026B036BAF
:10AC8000010E0D01106F116BF2C8E9FFF3C8EAFF66
:10AC9000EFCF14F0800E145C08E30D0110510D018C
:10ACA00002130D0111510D0103130801F22B000EC7
:10ACB000F323010E0D01D89010371137E806FBE1A0
:10ACC0000D01105102E1010E1119DEE10D01046BBD
:10ACD000056B010E0D01106F116BF2C8E9FFF3C88F
:10ACE000EAFFEFCF14F0800E145C08E30D01105161
:10ACF0000D0104130D0111510D0105130801F22B73
:10AD0000000EF323010E0D01D89010371137E8061D
:10AD1000FBE10D01105102E1010E1119DEE10D01FF
:10AD2000066B076B010E0D01106F116BF2C8E9FF86
:10AD3000F3C8EAFFEFCF14F0800E145C08E30D01B6
:10AD400010510D0106130D0111510D0107130801DA
:10AD5000F22B000EF323010E0D01D890103711379E
:10AD6000E806FBE10D01105102E1010E1119DEE1CF
:10AD70000D0100510801F06F300E0D0101110801A5
:10AD8000F16F0801EF6B13DF0801F06BF16B080145
:10AD9000EF6B0DDFF3CF08FDF4CF09FD0D0102517C
:10ADA0000801F06F3F0E0D0103110801F16F08015A
:10ADB000EF6BFDDE0801F06B0F0EF16F0801EF6B1A
:10ADC000F6DEF3CF0AFDF4CF0BFD0D0104510801AF
:10ADD000F06F300E0D0105110801F16F0801010E31
:10ADE000EF6FE5DE0801F06BF16B0801010EEF6F0C
:10ADF000DEDEF3CF0CFDF4CF0DFD0D010651080191
:10AE0000F06F3F0E0D0107110801F16F0801010EEF
:10AE1000EF6FCDDE0801F06B0F0EF16F0801010E30
:10AE2000EF6FC5DEF3CF0EFDF4CF0FFD0D01080E61
:10AE3000146F0D0E156F010E0D01106F116B0D01CA
:10AE4000126B100E0D01125D3FE214CDE9FF15CD1E
:10AE5000EAFF0D010D011051EE14146E0D010D01EC
:10AE60001151EE14156E145015100FE00D0112B1B2
:10AE700006D0F4C8E9FFF5C8EAFFEF8005D0F4C8B2
:10AE8000E9FFF5C8EAFFEF820ED00D0112B106D03E
:10AE9000F4C8E9FFF5C8EAFFEF9005D0F4C8E9FF70
:10AEA000F5C8EAFFEF92010E0D01D8901037113767
:10AEB000E806FBE10D0112A104D00801F42B000EFD
:10AEC000F5230D01122BBDD70D01020E1427000E24
:10AED00015230D010E0ED88014550D0E1555ABE23D
:04AEE000000012005C
:0CAEE400010EC26E0A0EC16EBE0EC06EE2
:10AEF0001200010EC26E0701F851040DF350C21288
:10AF00001200C28212000701F851E96EEA6AD89075
:10AF1000E936EA36E80EE926070EEA22C350EE24A7
:10AF2000146EC450EE20156E0701F851E96EEA6AFE
:10AF3000D890E936EA36E80EE926070EEA2214C070
:10AF4000EEFF15C0EDFF0701F851EA6AF20FE96E56
:10AF5000070EEA22EF2A0701F851EA6AF20FE96EBA
:10AF6000070EEA22EFCF14F00701F851EA6A050F45
:10AF7000E96E090EEA22EF50145C01E024D10701CA
:10AF8000F851EA6AF20FE96E070EEA22EF6A07014A
:10AF9000F851EA6A050FE96E090EEA22EF50200A1D
:10AFA00001E19AD0300A73E0180A4CE00C0A25E05F
:10AFB000060A01E0B6D00701F851E96EEA6AD890B6
:10AFC000E936EA36E80EE926070EEA22EECF14F05B
:10AFD000EFCF15F0D890153214320701F851E96E11
:10AFE000EA6AD890E936EA36E80EE926070EEA2240
:10AFF00014C0EEFF15C0EDFFB3D00701F851E96EA4
:10B00000EA6AD890E936EA36E80EE926070EEA221F
:10B01000EECF14F0EFCF15F0D89015321432D8904F
:10B02000153214320701F851E96EEA6AD890E93610
:10B03000EA36E80EE926070EEA2214C0EEFF15C034
:10B04000EDFF8ED00701F851E96EEA6AD890E93633
:10B05000EA36E80EE926070EEA22EECF14F0EFCF2B
:10B0600015F0030ED89015321432E804FBE1070105
:10B07000F851E96EEA6AD890E936EA36E80EE92630
:10B08000070EEA2214C0EEFF15C0EDFF69D00701DC
:10B09000F851E96EEA6AD890E936EA36E80EE92610
:10B0A000070EEA22EECF14F0EFCF15F0040ED89081
:10B0B00015321432E804FBE10701F851E96EEA6A3F
:10B0C000D890E936EA36E80EE926070EEA2214C0DF
:10B0D000EEFF15C0EDFF44D00701F851E96EEA6AB2
:10B0E000D890E936EA36E80EE926070EEA22EECFD6
:10B0F00014F0EFCF15F0050ED89015321432E80495
:10B10000FBE10701F851E96EEA6AD890E936EA36C0
:10B11000E80EE926070EEA2214C0EEFF15C0EDFF87
:10B120001FD00701F851E96EEA6AD890E936EA368D
:10B13000E80EE926070EEA22EECF14F0EFCF15F065
:10B140000701F851E96EEA6AD890E936EA36E80E66
:10B15000E926070EEA2214C0EEFF15C0EDFF00D06D
:10B160000701F851020D07010701F951F324070106
:10B17000F96F07010701FA51F4200701FA6F07017F
:10B18000F851E96EEA6AD890E936EA36E80EE9261F
:10B19000070EEA22EECF14F0EFCF15F0F9C7E9FF62
:10B1A000FAC7EAFF14C0EEFF15C0EDFF0701F85122
:10B1B000E96EEA6AD890E936EA36E80EE926070E23
:10B1C000EA22EE6AED6A0701F82B050E0701F85D29
:10B1D00002E10701F86B12000701F72B0701F75195
:10B1E000030A09E0010A05E0030A01E00CD081DE50
:10B1F0000AD087DE08D0FBC7F9F7FCC7FAF783DE71
:08B200000701F76B00D01200FA
:08B2080008016A5120E1010177
:10B21000026B0101036B0D01076B080E0D01075D49
:10B2200013E20D010751EA6A890FE96E0C0EEA225A
:10B23000EF6A0D010751EA6A910FE96E0C0EEA22DE
:10B24000EF6A0D01072BE9D70801676B6BD0020E7F
:10B2500008016A5D04E068C802F169C803F10D01E4
:10B26000076B080E0D01075D24E20D010751EA6A24
:10B27000890FE96E0C0EEA22EF500801685D0CE1BF
:10B280000D010751EA6A910FE96E0C0EEA22EF50A8
:10B290000801695D01E10DD00D010751EA6A890FCE
:10B2A000E96E0C0EEA22EF5001E103D00D01072BED
:10B2B000D8D7080E0D01075D20E20D010751EA6A9B
:10B2C000890FE96E0C0EEA22EF5017E10D010751CC
:10B2D000EA6A890FE96E0C0EEA2268C8EFFF0D01D9
:10B2E0000751EA6A910FE96E0C0EEA2269C8EFFF76
:10B2F00069C86CF868C86BF818D8020E08016A5D56
:10B3000003E10801676B03D00801010E676FFA0EB5
:10B3100008016A5D01E1FF00CA0E08016A5D02E1F1
:10B32000A6EC69F0000E00D012000ED808016D6F77
:10B3300004002AD804006CC877F86BC876F873D874
:10B340000400AAD8040012000801020EAD6F080123
:10B35000590EAB6F080EAC6F0801F00EA96F1F0EEF
:10B36000AA6FB0EC67F059C86EF85AC86FF8AA0E09
:10B3700008016E1902E1550E6F1903E02ED8010E77
:10B3800002D0000E00D012000801040EAD6F0801BB
:10B39000590EAB6F080EAC6F0801F20EA96F1F0EAD
:10B3A000AA6FB0EC67F059C870F85AC871F85BC85A
:10B3B00072F85CC873F8FF0E0801721BFF0E0801DB
:10B3C000731B080172510801701904E108017351DF
:10B3D0000801711901E001D812000801AA0E746F6A
:10B3E000550E756F74C859F875C85AF808015B6B2B
:10B3F00008015C6B08015D6908015E690801060EC1
:10B40000B46F0801590EB26F080EB36F0801F00E49
:10B41000B06F1F0EB16FF6EC67F0140EE66E88EC9D
:10B420006BF0E55212000801020EAD6F0801590ED3
:10B43000AB6F080EAC6F0801F20EA96F1F0EAA6F5A
:10B44000B0EC67F059C878F85AC879F80801070EC7
:10B45000E06F08015B0EDE6F080EDF6F0801DD6B29
:10B46000CAEC61F00801626B76C863F877C864F8CB
:10B4700008010A0EB46F08015B0EB26F080EB36FBD
:10B4800078C8B0F879C8B1F8F6EC67F0280EE66E27
:10B4900088EC6BF0E55212000801020EAD6F080156
:10B4A000590EAB6F080EAC6F0801F20EA96F1F0E9C
:10B4B000AA6FB0EC67F059C87AF85AC87BF8100E3A
:10B4C00008017A2508017A6F000E08017B21080126
:10B4D0007B6F0801300E7A5D1F0E7B5901E37DDF23
:10B4E0007AC859F87BC85AF8FF0E08017A1BFF0E7C
:10B4F00008017B1B7AC85BF87BC85CF80801040E66
:10B50000B46F0801590EB26F080EB36F0801F20E46
:10B51000B06F1F0EB16FF6EC67F0140EE66E88EC9C
:06B520006BF0E552120081
:0AB526000F0E96128F0E9616300ECF
:10B530008412849C12000701575102E0000E47D18B
:10B54000848A0000848C00000000849C00000701B5
:10B550009B6B9C6B07019D6B9E6B07019F6BA06BA8
:10B560000701A16BA26B849A84880000848C000080
:10B570000000849C000084880000848C000000008F
:10B58000849C0000070155B508D084980000848C85
:10B5900000000000849C000007D084880000848C98
:10B5A00000000000849C0000070155B308D0849877
:10B5B0000000848C00000000849C000007D0848878
:10B5C0000000848C00000000849C0000070155B13D
:10B5D00008D084980000848C00000000849C000047
:10B5E00007D084880000848C00000000849C000048
:10B5F00084980000848C00000000849C00000000FF
:10B6000000000000000084980000848C000000000E
:10B61000849C00000701996B080E9A6F0000848CCF
:10B62000000084CF98F7849C0000070198A708D0F9
:10B630000701995107019B1307019A5107019C13B8
:10B64000070198A508D00701995107019D1307012B
:10B650009A5107019E13070198A308D00701995139
:10B6600007019F1307019A510701A013070198A131
:10B6700008D0070199510701A11307019A51070149
:10B68000A213D89007019A339933070199519A115F
:10B6900001E101D0C3D7848A0701565140E1070177
:10B6A0005551E96EEA6AD890E936EA36580EE9262D
:10B6B000070EEA22A1C7EEFFA2C7EDFF080E0701A1
:10B6C0005525E96EEA6AD890E936EA36580EE92639
:10B6D000070EEA229FC7EEFFA0C7EDFF100E07017D
:10B6E0005525E96EEA6AD890E936EA36580EE92619
:10B6F000070EEA229DC7EEFF9EC7EDFF180E070159
:10B700005525E96EEA6AD890E936EA36580EE926F8
:10B71000070EEA229BC7EEFF9CC7EDFF43D007014F
:10B720005551E96EEA6AD890E936EA36580EE926AC
:10B73000070EEA220701A151EE26A251ED22080EC2
:10B7400007015525E96EEA6AD890E936EA36580EBF
:10B75000E926070EEA2207019F51EE26A051ED22AD
:10B76000100E07015525E96EEA6AD890E936EA36E7
:10B77000580EE926070EEA2207019D51EE269E513A
:10B78000ED22180E07015525E96EEA6AD890E936D0
:10B79000EA36580EE926070EEA2207019B51EE26EB
:10B7A0009C51ED220701552B080E0701555D04E35E
:10B7B0000701556B0701562B040E0701565D05E383
:10B7C0000701566B0701010E576F000E00D01200E3
:10B7D0000701575102E1000E32D00D01580E016FE2
:10B7E000070E026F0D01006B200E0D01005D23E2BC
:10B7F00001CDE9FF02CDEAFFEECF14F0EFCF15F057
:10B80000D89015321432D89015321432A3C7E9FFFC
:10B81000A4C7EAFF14C0EEFF15C0EDFF0701020E3A
:10B82000A327000EA4230D01020E0127000E022300
:10B830000D01002BD9D70701576B010E00D0120064
:10B84000A69EA69CA680A8CFD4FC0C01D45100D003
:10B850001200D5CCD2FCD6CCD3FCD2CCA9FFD3CC11
:10B86000AAFFEEDF00D01200A198D7CCD2FCD8CC32
:10B87000D3FCD2CCA9FFD3CCAAFFD9CCA8FFA69EDB
:10B88000A69CA696A684F29EF29C550EA76EAA0EC2
:10B89000A76EA682F28EA1A8FED7A198A694120048
:10B8A000DCCCD9FCDACCD7FCDBCCD8FCDDDFDACCC5
:10B8B000D5FCDBCCD6FCCDDF0C01DC5D02E0010E5B
:10B8C0002AD00C01000EDA5D000EDB5922E30C01D8
:10B8D000DF0ED880DA55030EDB551BE30C01DF0EBB
:10B8E000DF6F030EE06F0C01DD6BDE6B15D8F3CF5D
:10B8F0000DFDF4CF0EFD0DCDE5FC0ECDE6FC0C01EB
:10B90000FC0EE36F030EE46F49D8000902E0010E5C
:10B9100002D0000E00D012000D01066B076BDDCCCB
:10B9200008FDDECC09FD0C01DF510D01085D0C01A5
:10B93000E0510D01095912E208CDD5FC09CDD6FC24
:10B9400088DF146E156A14500D01062715500D017D
:10B9500007230D01082B000E0923E5D706CDF3FFC1
:10B9600007CDF4FF00D01200E1CCD5FCE2CCD6FC30
:10B9700070DF0D01006F010E0C01E1250C01D56F88
:10B98000000E0C01E2210C01D66F63DF0D01016F87
:10B9900000CDF3FF01CDF4FF00D01200E5CC06FD91
:10B9A000E6CC07FD06CDD9FCE3CCD7FCE4CCD8FC33
:10B9B0005BDFE3CCD5FCE4CCD6FC4BDF0D01065DB0
:10B9C00002E0010E1FD007CDD9FC010E0C01E325CA
:10B9D0000C01D76F000E0C01E4210C01D86F44DF7D
:10B9E000010E0C01E3250C01D56F000E0C01E421C2
:10B9F0000C01D66F2EDF0D01075D02E0010E02D0B3
:10BA0000000E00D01200E9CC00FDEACC01FD00CD13
:10BA1000DCFCE7CCDAFCE8CCDBFC42DF000902E02E
:10BA2000010E13D001CDDCFC010E0C01E7250C0149
:10BA3000DA6F000E0C01E8210C01DB6F31DF000929
:10BA400002E0010E02D0000E00D01200EBCCD5FCBB
:10BA5000ECCCD6FCFEDEEDCCE9FFEECCEAFFEF6EDF
:10BA60000C01EB2B000EEC230C01ED2B000EEE2352
:10BA70000C01EF07000EF05B0C01EF51F011E6E155
:10BA800012000C01DF0EDF6F030EE06F0C01DD6BA7
:10BA9000DE6B42DFF3CF02FDF4CF03FD0C01FC0EA1
:10BAA000E16F030EE26F60DFF3CF14F0F4CF15F017
:10BAB0000D010251141802E10351151825E00C0183
:10BAC000FC0EE16F030EE26F4FDFF3CF14F0F4CF03
:10BAD00015F00001141C01E1151C0CE00801010E19
:10BAE0006A6F0801030E696F0801010E686F04ECAC
:10BAF00059F00AD002CDE5FC03CDE6FC0C01FC0EAA
:0ABB0000E36F030EE46F4ADF12004A
:06BB0A000801000EC55DFC
:10BB1000020EC65924E30801FF0ED880C555050E54
:10BB2000C6551DE3C5C8D5FCC6C8D6FC0C01000E21
:10BB3000D55F020ED65B29EC5CF00D01066F0801A3
:10BB4000F00EC55D050EC65909E30801F50ED88053
:10BB5000C555050EC65502E3030E60D049D0080155
:10BB6000000EC55D000EC65920E30801FF0ED88007
:10BB7000C5550F0EC65519E3F29EF29CC5C8E9FFE4
:10BB8000C6C8EAFFEFCF06FDF28E0801060EC55DBE
:10BB9000010EC65909E308010B0ED880C555010EE8
:10BBA000C65502E3030E3AD023D00801000EC55D4E
:10BBB000100EC6591BE30801FF0ED880C5552F0E85
:10BBC000C65514E3C9C8ADF8C7C8ABF8C8C8ACF8C7
:10BBD000C5C8A9F8C6C8AAF80801000EA95F100ECA
:10BBE000AA5BB0EC67F0000E19D002D0010E16D09F
:10BBF000C7C8E9FFC8C8EAFF06CDEFFF0801C907BB
:10BC00000801C52B000EC6230801C72B000EC82350
:10BC10000801C95101E079D7000E00D012000801D7
:10BC2000000ECA5D020ECB592EE30801FF0ED8802C
:10BC3000CA55050ECB5527E3CCC8E9FFCDC8EAFFAE
:10BC4000EFCFDCFCCAC8DAFCCBC8DBFC0C01000E71
:10BC5000DA5F020EDB5B50EC5CF0000902E0020EE2
:10BC600075D00400CCC8E9FFCDC8EAFFEFCF0AFDCC
:10BC7000F29EF29CCAC8E9FFCBC8EAFF0ACDEFFFEB
:10BC8000F28EF28C53D00801000ECA5D000ECB5923
:10BC90002AE30801FF0ED880CA550F0ECB5523E3C7
:10BCA000040E0801CA1902E1010ECB1907E0040EC7
:10BCB0000801CA1902E1010ECB1905E148D80009B3
:10BCC00002E0030E43D0CCC8E9FFCDC8EAFFEFCFB6
:10BCD0000AFDF29EF29CCAC8E9FFCBC8EAFF0ACD72
:10BCE000EFFFF28E23D00801000ECA5D100ECB5973
:10BCF0001BE30801FF0ED880CA552F0ECB5514E365
:10BD0000CEC8B4F8CCC8B2F8CDC8B3F8CAC8B0F839
:10BD1000CBC8B1F80801000EB05F100EB15BF6ECB5
:10BD200067F0000E13D002D0010E10D00801CE072C
:10BD30000801CA2B000ECB230801CC2B000ECD230B
:10BD40000801CE5101E06BD7000E00D012000801AF
:10BD5000CF6B0801D06B0801D051EA6AF00FE96E91
:10BD6000050EEA22EF5003E00801010ECF6F080133
:10BD7000D02B060E0801D05DEEE30801CF5102E1A1
:10BD8000000E1FD00801D06B0801D051EA6AF00FF5
:10BD9000E96E050EEA22EFCF14F00801D051EA6AED
:10BDA000060FE96E010EEA22EF50145C02E0030E6A
:10BDB00008D00801D02B060E0801D05DE5E3000E87
:04BDC00000D012009D
:0CBDC4000C016E0525E1A4EC40F0146EAB
:10BDD000156AFF0E141801E115500DE10801010E5E
:10BDE0006A6F0801100E696F0801020E686F04EC9B
:10BDF00059F0000EE2D040EC40F0000904E19CEC68
:10BE000040F0010802E1000ED8D009010E6B020ECD
:10BE1000D4D0D1D009010E51C80A01E1C6D0CE0A52
:10BE200001E1BAD0030A01E1A5D0010A01E191D0F4
:10BE3000070A71E0010A53E0030A23E0010A01E066
:10BE4000B9D0A4EC40F0020804E10901020E0E6F23
:10BE500016D00C01010E6E6F0C01120E726F0C01E8
:10BE600073690C01010E786F0C01100E7A6F38ECBB
:10BE700002F00C01020E6E6F0901010E0E6F020E30
:10BE80009CD0A4EC40F002081DE00C01020E6E6F85
:10BE900038EC02F0000915E1890E146E0C0E156ED7
:10BEA000145015100BE10801010E6A6F0801100E05
:10BEB000696F0801020E686F04EC59F00901C80EA1
:10BEC0000E6F0BD00C0172690C016E6B38EC02F036
:10BED000000903E10901020E0E6F020E6ED00C0183
:10BEE000110E7A6F0C0172690901115104E10C0104
:10BEF000020E786F03D00C01030E786F0901030E58
:10BF00000E6F0C01010E6E6F38EC02F00C01020E88
:10BF10006E6F020E52D00C016E5109E138EC02F046
:10BF2000000903E10901C80E0E6F020E46D00C0194
:10BF30007F69040E0C016F5D03E30901040E0E6FAF
:10BF400038EC02F0000903E10901C80E0E6F020E81
:10BF500034D0020161510C01805D03E30901050E3B
:10BF60000E6F38EC02F0000903E10901C80E0E6FF4
:10BF7000020E23D00C01120E7A6F0C0172690C01B3
:10BF8000010E6E6F38EC02F00C01020E6E6F0901AB
:10BF9000060E0E6F020E11D038EC02F0000903E11C
:10BFA0000901C80E0E6F020E08D00C01010E796F48
:10BFB000000E03D000D0000E00D012005A0E0C016B
:10BFC000035D02E1000E3ED01A0E0C01035D04E099
:10BFD0001B0E0C01035D05E10901106B09010F6BDC
:10BFE0002FD00C01035104E00101C26B000E2AD0D6
:10BFF00009010F2B09010F51146E156A153404E263
:10C000001450C808000E155404E209010F6B090111
:10C01000102B02016F510901105D12E30101C26B87
:10C020000C0103510DE10C0136510AE1A4EC40F082
:10C03000020806E10C01796B0C01136B0C01466BD5
:06C04000000E00D012000A
:0AC04600130E08019A5D07E17F0E5A
:10C05000E66EDAEC6AF0E552CA80CA92020E080176
:10C060009A5D06E1E668DAEC6AF0E552CA80CA82B7
:10C07000000EE66EE66A61EC6AF0E552E5521200E7
:10C080000C01670541E10C017851020A07E0010A41
:10C0900005E0070A03E0010A01E01BD008019B51FB
:10C0A0000D01006F016B0D01D89000370137D8905A
:10C0B0000037013708019B5103E0030E0D01001307
:10C0C00000CDE6FF01CDE6FF61EC6AF0E552E552F6
:10C0D0001BD008019B510D01006F016B0D01D89021
:10C0E0000037013708019B5106E00D0100810D0169
:10C0F000002B000E012300CDE6FF01CDE6FF61EC31
:10C100006AF0E552E55200D012000801020E9A6F63
:10C110009ADF000EE66EE66A61EC6AF0E552E552DF
:10C12000C4EC55F0030E9516030E8316848E120090
:10C130009EC8F4F89FC8F5F89CC8F2F89DC8F3F8BB
:10C1400014EC56F01200A0C8E9FFA1C8EAFFEF50B6
:10C15000FF0811E0A0C8E9FFA1C8EAFFEF50EA6AB2
:10C16000B00FE96E010EEA22A2C8EFFF0801A02B72
:10C17000000EA123E8D712000D01016BA3C8E9FF4F
:10C18000A4C8EAFFEF50FF0858E0A3C8E9FFA4C81D
:10C19000EAFFEF50EA6AD00FE96E010EEA22EFCF14
:10C1A00000FD030E0D01005D43E00D01005123E091
:10C1B000010A12E0030A01E02DD00801020E6A6FA5
:10C1C000A3C8E9FFA4C8EAFFEFCF69F80801050E8C
:10C1D000686F04EC59F02AD00801020E6A6FA3C8F8
:10C1E000E9FFA4C8EAFFEFCF69F80801040E686F01
:10C1F00004EC59F01BD00801020E6A6FA3C8E9FFD6
:10C20000A4C8EAFFEFCF69F80801060E686F04ECD6
:10C2100059F00CD00801FA0E6A6F0801060E696F1A
:10C220000801010E686F04EC59F000D00D01012BDC
:10C230000801A32B000EA423A1D70D01015103E196
:10C24000000E03D002D0010E00D012000801A66B30
:10C250000801A651EA6AB00FE96E010EEA22A5C8EC
:10C26000EFFF0801A62B200E0801A65DF1E11200E8
:10C270000801A751EA6AB00FE96E010EEA22A8C8C8
:04C28000EFFF1200BA
:0CC28400DBC8E9FFDCC8EAFFEF50820ACB
:10C2900063E0030A4FE0010A3CE0C20A28E0030A17
:10C2A00014E0010A01E06AD00801070EE06F010EF8
:10C2B0000801DB250801DE6F000E0801DC21080102
:10C2C000DF6F0801DD6B66D85FD00801070EE06FF5
:10C2D000010E0801DB250801DE6F000E0801DC21DC
:10C2E0000801DF6F0801070EDD6F54D84DD008013B
:10C2F000070EE06F010E0801DB250801DE6F000E5E
:10C300000801DC210801DF6F08010E0EDD6F42D845
:10C310003BD00801070EE46F010E0801DB25080180
:10C32000E26F000E0801DC210801E36F0801E16BF8
:10C330006DD82AD00801070EE46F010E0801DB2535
:10C340000801E26F000E0801DC210801E36F08011B
:10C35000070EE16F5BD818D00801070EE46F010EDD
:10C360000801DB250801E26F000E0801DC2108014D
:10C37000E36F08010E0EE16F49D806D0DBC8E9FF74
:10C38000DCC8EAFFEF6A00D0DBC8E9FFDCC8EAFFDF
:10C39000EF6A120031EC65F00901D00E036FB5ECC5
:10C3A00065F04DEC65F0DDC803F9B5EC65F04DECDA
:10C3B00065F071EC65F031EC65F00901D10E036FA9
:10C3C000B5EC65F04DEC65F00801E0050801E06FA3
:10C3D000DEC800F9DFC801F98BEC65F00801E05117
:10C3E00003E060EC65F002D04DEC65F0010E080151
:10C3F000DE250801DE6F000E0801DF210801DF6F76
:10C400000801E051E1E171EC65F0120031EC65F0FA
:10C410000901D00E036FB5EC65F04DEC65F0E1C895
:10C4200003F9B5EC65F04DEC65F00801E405080191
:10C43000E46FE2C8E9FFE3C8EAFFEFCF03F9B5EC28
:10C4400065F04DEC65F0010E0801E2250801E26F90
:10C45000000E0801E3210801E36F0801E451E5E162
:02C460001200C8
:0EC462000801FA51030A6CE0010A12E0030A15
:10C4700004E0010A01E0B5D0B4D02A0E0801F81991
:10C4800002E1000EF91903E1FF0EB5D002D0000E53
:10C49000B2D008012A0EF86F000EF96F0801F66B92
:10C4A000F76BF8C8F6FFF9C8F7FF0900F550080167
:10C4B000F6270900F5500801F723020E0801F825B8
:10C4C0000801F86F000E0801F9210801F96FB00E9C
:10C4D0000801F81902E1FD0EF919E3E10801F61D62
:10C4E00001E1F71D01E17DD00C01FE0EE16F030EAD
:10C4F000E26FB4EC5CF0F3CFFBF8F4CFFCF808018A
:10C50000FB1D01E1FC1D10E1F6C8FBF8F7C8FCF8C3
:10C51000FBC8E5FCFCC8E6FC0C01FE0EE36F030E55
:10C52000E46FCEEC5CF00CD00801F6510801FB1969
:10C5300004E10801F7510801FC1902E0010E5BD08B
:10C5400050D0B00E0801F81902E1FD0EF91935E1DD
:10C550000801F61D01E1F71D01E143D00C01FE0EBB
:10C56000E16F030EE26FB4EC5CF0F3CFFBF8F4CFB5
:10C57000FCF80801FB1D01E1FC1D11E1F6C8FBF808
:10C58000F7C8FCF8FBC8E5FCFCC8E6FC0C01FE0E95
:10C59000E36F030EE46FCEEC5CF023D00DD0080106
:10C5A000F6510801FB1904E10801F7510801FC19D3
:10C5B00002E0010E20D015D013D0F8C8F6FFF9C85C
:10C5C000F7FF0900F5500801F6270900F5500801AA
:10C5D000F7230801020EF827000EF923000E0BD0F6
:10C5E00000D008012A0EF86F000EF96F0801F66BF3
:10C5F000F76B000E00D012000901125102E0010E8B
:10C6000014D0550E0901135D02E0020E0ED0AA0EE1
:10C610000901145D02E0030E08D0FF0E0901155D4B
:0CC6200002E0040E02D0000E00D0120058
:04C62C00DACFE4FF7E
:10C63000E2CFDAFFE9CFE4FFEACFE4FFF6CFE4FF91
:10C64000F7CFE4FFF5CFE4FFF3CFE4FFF4CFE4FF4F
:10C65000FACFE4FF00EE00F0140EE80403E3EECF9F
:10C66000E4FFFBD700EE14F00A0EE80403E3EECF7C
:10C67000E4FFFBD7E6529EAA03D09E9A8EEC52F0BE
:10C68000A4A603D0A49698EC68F0E55200EE1DF045
:10C690000A0EE80403E3E5CFEDFFFBD700EE13F04D
:10C6A000140EE80403E3E5CFEDFFFBD7E5CFFAFF77
:10C6B000E5CFF4FFE5CFF3FFE5CFF5FFE5CFF7FFDB
:10C6C000E5CFF6FFE5CFEAFFE5CFE9FFE5CFDAFFFB
:10C6D0001100D8CFE4FFE0CFE4FFE46EDACFE4FF4F
:10C6E000E2CFDAFFE9CFE4FFEACFE4FFF3CFE4FFE4
:10C6F000F4CFE4FF00EE00F0140EE80403E3EECF05
:10C70000E4FFFBD700EE14F00A0EE80403E3EECFDB
:10C71000E4FFFBD7E652E55200EE1DF00A0EE804F6
:10C7200003E3E5CFEDFFFBD700EE13F0140EE804B2
:10C7300003E3E5CFEDFFFBD7E5CFF4FFE5CFF3FF54
:10C74000E5CFEAFFE5CFE9FFE5CFDAFFE550E5CF3A
:10C75000E0FFE5CFD8FF1000F26A800EF16EF06ABC
:10C760009E6AA16A9D6AA06AA36A9F6AA26AD09E15
:10C770001200F294F292F290F090F0929E9E9E9CA3
:10C780009E9A9E989E969E949E929E90A198A19607
:10C79000A194A192A496A1901200D08E9F8AA58602
:02C7A000120085
:0EC7A2000000020003000500070009000A0065
:10C7B0000C000E000F0011001300150016001800E9
:10C7C0001A001B001D001F0020002200240025006D
:10C7D000270029002A002C002D002F0030003200F5
:10C7E000330035003600380039003B003C003E0085
:10C7F0003F0040004100430044004500470048001E
:10C8000049004A004B004D004E004F0050005100BF
:10C81000520053005400550056005600570058006F
:10C8200059005A005A005B005C005D005D005E002C
:10C830005F005F00600060006000610061006200F6
:10C8400062006200630063006300630063006400D1
:10C8500064006400640064006400640064006400B8
:10C8600063006300630063006200620062006100B5
:10C87000610061006000600060005F005F005E00BA
:10C880005D005D005C005B005A005A0059005800D2
:10C8900057005700560055005400530052005100F5
:10C8A00050004F004E004D004B004A004900480028
:10C8B0004700450044004300420040003F003E0066
:10C8C0003C003B00390038003700360034003200AD
:10C8D00030002F002D002C002A0029002700250001
:10C8E0002400220021001F001D001C001A00180057
:10C8F00016001500130011000F000E000C000A00B6
:0CC9000009000700050003000200000011
:04C90C000801000E10
:10C91000EB6F040EEC6F0801300EE96F020EEA6F48
:10C920000801100EE76F010EE86F10D8F3CF14F076
:10C93000F4CF15F00C0E0801EA6AE525E96EE65120
:10C94000EA2214C0EEFF15C0EDFF12001A0E080116
:10C95000EA6AE725E96EE851EA22EECF14F0EFCF5C
:10C9600015F0520E145C000E15580DE31A0E080156
:10C97000EA6AE725E96EE851EA22B00ED880EE5463
:10C980000F0EED5404E2F3687F0EF46E69D00D0EC5
:10C990000801EA6AE925E96EEA51EA22EF0427E193
:10C9A0001A0E0801EA6AE725E96EE851EA22EECF9D
:10C9B000F6FFEFCFF7FFD890F732F632D890F73284
:10C9C000F632000ED880F656040EF756010ED890B7
:10C9D000F636F736E806FBE1A40EF626950EF722AA
:10C9E0000900F5CFEDF80A00F5CFEEF821D01A0EC8
:10C9F0000801EA6AE725E96EE851EA22EECFF6FF80
:10CA0000EFCFF7FFD890F732F632D890F732F63200
:10CA1000010ED890F636F736E806FBE1A40EF626AE
:10CA2000950EF7220900F5CFEDF80A00F5CFEEF8E4
:10CA30000C0E0801EA6AEB25E96EEC51EA220801C6
:10CA40000801ED51EE240801ED6F08010801EE51D7
:10CA5000EE200801EE6FEDC8F3FFEEC8F4FF00D042
:02CA60001200C2
:0ECA6200E70E941682988296100EE66E27EC70
:10CA70006CF0E5528286040EE66E27EC6CF0E5520F
:10CA80008288100EE66E27EC6CF0E5528298100E4C
:10CA9000E66E27EC6CF0E552120082969488040E44
:10CAA000E66E27EC6CF0E552040EE66E27EC6CF0B7
:10CAB000E5528286040EE66E27EC6CF0E552120019
:10CAC0008296100EE66E27EC6CF0E55294988298F0
:10CAD0008286040EE66E27EC6CF0E552829694880E
:10CAE00012008296040EE66E27EC6CF0E5529498E4
:10CAF0008298040EE66E27EC6CF0E5528286040EF6
:10CB0000E66E27EC6CF0E5528288040EE66E27ECA8
:10CB10006CF0E5521200948800C9E9FF01C9EAFFF0
:10CB2000EF6A0901800E026F8296100EE66E27EC06
:10CB30006CF0E5528286040EE66E27EC6CF0E5524E
:10CB400082A80CD000C9E9FF01C9EAFFEF50090132
:10CB5000021100C9E9FF01C9EAFFEF6E0901029164
:10CB6000024309010251E0E112000901800E046F45
:10CB700082969498040EE66E27EC6CF0E55209015B
:10CB800003510901041502E0828801D08298100E39
:10CB9000E66E27EC6CF0E5528286040EE66E27EC1A
:10CBA0006CF0E552090104417F0B0901046F090192
:06CBB0000451DEE1120059
:0ACBB60061D8F28E86800001CF697D
:10CBC000C8EC2CF004000801020EFA6F31EC62F0A0
:10CBD00000090BE00801CA0E6A6F0801010E696FB7
:10CBE0000801010E686F04EC59F041EC5DF008019A
:10CBF000FA6B31EC62F00001880EC96F010ECA6F4A
:10CC000046EC2CF0040EE66E88EC6BF0E552040066
:10CC10000D01052B0D010551146E156AD8901550A4
:10CC200004E6C80E145C000E1558E5E30001CF6B56
:10CC3000C8EC2CF0010180690001880EC96F010E5B
:10CC4000CA6F46EC2CF00001880EC96F010ECA6F46
:10CC500046EC2CF0010188510DE0010189510AE0F8
:10CC60000801010E6A6F88C169F80801090E686F32
:10CC700004EC59F0000E00D01200806A92684F0E4A
:10CC8000816E8F0E936ED00E826E900E946E836ABC
:10CC9000956A846A0F0E966E856A9768866AE40EB6
:10CCA000986E070EB46E0001C06BACEC63F00C0123
:10CCB000EF6B040EF06F0C01000EED6F020EEE6FC5
:10CCC0000C01EB6BEC6B26EC5DF0F29EF29C93ECAE
:10CCD0005AF072EC57F07C0E776ECD0EE66E20ECBB
:10CCE0006BF0E552ACEC63F0CDEC63F0A386F18E13
:10CCF0000701020ED56F57EC52F0828085EC60F090
:06CD0000B9EC63F0120023
:0ACD0600FCEC62F000090BE00801EC
:10CD1000FA0E6A6F0801020E696F0801010E686F52
:10CD200004EC59F00701100EA36F010EA46FE8EC9C
:10CD30005BF078EC54F0040808E10801BF6BC06BAD
:10CD40000801C16BC26B0801C36B0C01010505E052
:10CD50000C01340502E08AEC40F00801D00E9E6F11
:10CD6000010E9F6F0801B00E9C6F010E9D6F98EC35
:10CD700060F00801700EDB6F010EDC6F42EC61F0B9
:10CD800008015A0E006F010E016F5AEC37F00801CE
:10CD90005A0EE56F010EE66F86EC64F00801030E93
:10CDA000FA6F31EC62F000090BE00801CA0E6A6FFD
:10CDB0000801010E696F0801010E686F04EC59F05B
:10CDC0000400120009010A2B000E0B230901400E7A
:10CDD0000A5D380E0B5906E309010A6B0B6B09015A
:10CDE000010E0C6F120009010C512DE00C01F80E20
:10CDF000D56F020ED66F29EC5CF00D01006F0C01AF
:10CE0000F90ED56F020ED66F29EC5CF00D01016FA3
:10CE10000D01002B000E012309010D0514E100CDC9
:10CE2000DCFC0C01F80EDA6F020EDB6F50EC5CF0EC
:10CE300001CDDCFC0C01F90EDA6F020EDB6F50EC59
:08CE40005CF009010C6B12000B
:08CE4800280EE66E88EC6BF089
:10CE5000E55208016A6B0801696B0801686B04EC14
:10CE600059F00801FF6B819C010101830101008BD6
:10CE700055D8050A33E0060A22E0010A14E0060A42
:10CE800006E0050A01E03BD00101008B44D0080117
:10CE9000020E6A6F08013E0E696F0801010E686F8D
:10CEA00004EC59F038D00801010E6A6F08013C0EFD
:10CEB000696F0801010E686F04EC59F02CD008016D
:10CEC000020E6A6F08013D0E696F0801010E686F5E
:10CED00004EC59F00801010EFF6F1DD00801020E8D
:10CEE0006A6F0801400E696F0801010E686F04EC5B
:10CEF00059F00101026B0801010EFF6F0CD008010F
:10CF0000020E6A6F08013F0E696F0801010E686F1B
:10CF100004EC59F000D0000E00D01200D0B204D0C2
:10CF2000D082D080050E1BD0FC50800B03E1FC505A
:10CF3000400B04E0FC9EFC9C040E11D0D0B803D042
:10CF4000D088010E0CD0D0B004D0D080D088030E91
:10CF500006D0D0B602D0020E02D0060E00D01200CB
:10CF6000A9C8AEF8AAC8AFF831EC65F00901A00E67
:10CF7000036FB5EC65F04DEC65F0AFC803F9B5ECA7
:10CF800065F04DEC65F0AEC803F9B5EC65F04DEC1D
:10CF900065F071EC65F031EC65F00901A10E036FED
:10CFA000B5EC65F04DEC65F00801AD050801AD6F1D
:10CFB000ABC800F9ACC801F98BEC65F00801AD51C4
:10CFC00003E060EC65F002D04DEC65F0010E080165
:10CFD000AB250801AB6F000E0801AC210801AC6F56
:10CFE0000801AD51E1E171EC65F01200B0C8B5F88F
:10CFF000B1C8B6F831EC65F00901A00E036FB5ECCD
:10D0000065F04DEC65F0B6C803F9B5EC65F04DEC94
:10D0100065F0B5C803F9B5EC65F04DEC65F00801B5
:10D02000B4050801B46FB2C8E9FFB3C8EAFFEFCF97
:10D0300003F9B5EC65F04DEC65F00801B22B000E7C
:0ED04000B3230801B451EBE171EC65F012006E
:02D04E00006A76
:10D050000EAE30EF68F00D6C0E1EE86A0E22001E58
:10D0600009AE38EF68F0086C091EE86A0922001E54
:10D070009FEC6BF009BE48EF68F000AE000C086C46
:10D08000091EE86A0922046C051EE86A0522000CE4
:10D0900000BE3FEF68F00188FF0C09C013F008C024
:10D0A00012F008500D02F4CF07F0F3CF06F009504C
:10D0B0000E02F4CF09F0F3CF08F00D02F35007266B
:10D0C000F4500822E86A092212500E02F350072693
:10D0D000F4500822E86A09220EAE73EF68F012508D
:10D0E000085E1350095A13AE000C0D50085E0E5026
:10D0F000095A000C08C012F008500D02F4CF07F0D6
:10D10000F3CF06F009500E02F4CF09F0F3CF08F088
:10D110000D02F3500726F4500822E86A0922125043
:10D120000E02F3500726F4500822E86A0922000C88
:10D1300082720801B72B0701500EFB6F010EFC6FC6
:10D14000ECEC58F0010E0801B715010805E1D6EC2A
:10D1500021F0FBEC20F050D00801B82B9BEC5AF0EA
:10D16000FEEC6AF00A0E0801B85D40E30801B86BF6
:10D17000FF0E0801BC5D02E00801BC2BFF0E080198
:10D18000C35D02E00801C32B0CEC40F02AEC40F038
:10D190000801B92B0A0E0801B95D28E30801B96B33
:10D1A000FF0E0801BD5D02E00801BD2B0801BA2B8E
:10D1B0000A0E0801BA5D1AE30801BA6BFF0E0801F6
:10D1C000BE5D02E00801BE2B0801BF1D01E1C01DCC
:10D1D00004E00801BF2B000EC0230801C11D01E1BE
:10D1E000C21D04E00801C12B000EC223FF0E08017E
:0ED1F000BB5D02E00801BB2B1200F17C1200B7
:02D1FE00F29E9F
:10D20000F29CF29AF298F296F096F0989D9E9D9C70
:10D210009D9A9D989D969D949D909D92A098A09674
:10D22000A094A092A396A090806A9268010E816E4D
:10D23000C10E936ED00E826E980E946E836A956ABC
:10D24000846A0F0E966E856A976A220E866EC40EE9
:10D25000986E070EB46E766A0001880EC96F010ED3
:10D26000CA6F46EC2CF00001880EC96F010ECA6F20
:10D2700046EC2CF00400030000000C01F36BD6EC2C
:10D2800021F00C01F32B0C01F3513208F8E20001FC
:10D29000880EC96F010ECA6F46EC2CF0010188514F
:0ED2A000800804E3010189518008E4E21200D5
:02D2AE002C0E44
:10D2B000F66E000EF76E000EF86E08010900F550CC
:10D2C000D66F0900F550D76F03E1D66701D03DD086
:10D2D0000900F550D16F0900F550D26F0900F550E3
:10D2E000D36F09000900F550E96E0900F550EA6EA8
:10D2F000090009000900F550D46F0900F550D56FF9
:10D3000009000900F6CFD8F8F7CFD9F8F8CFDAF846
:10D31000D1C8F6FFD2C8F7FFD3C8F8FF0801D4532D
:10D3200002E1D55307E00900F550EE6ED407F8E2AC
:10D33000D507F9D7D8C8F6FFD9C8F7FFDAC8F8FF7C
:0CD340000801D607000ED75BBFD7120013
:04D34C00F29EF29CBF
:10D35000F29AF298F296F096F0989D9E9D9C9D9A76
:10D360009D989D969D949D909D92A098A096A09426
:10D37000A092A396A090806A92680F0E816E0F0E05
:10D38000936ED00E826E980E946E836A956A846A4C
:10D390000F0E966E856A9768866AE40E986E070E81
:10D3A000B46E9896979085808696040003000000DE
:10D3B0000901162B040E0901165D09E18686140E7B
:10D3C000E66E88EC6BF0E55286960901166BEDD798
:02D3D000120049
:0ED3D2000801FD513DE1030E8316000EE66ECC
:10D3E000E66A61EC6AF0E552E5520801FE6B08015D
:10D3F000FE51EA6AB00FE96E010EEA22EF6A0801F7
:10D40000FE2B200E0801FE5DF2E1040EE66E88ECB4
:10D410006BF0E552829A0101F26B0101F16B01019F
:10D42000F06B0101046B0101056B0C01016B0C0138
:10D43000346B0C01036B0C01366B0C01696B0C0136
:10D44000796B0C01136B0C01466B819C0801010E7A
:04D45000FD6F12005A
:0CD454000C016E5117E0020A05E0030A0B
:10D4600001E02CD0020E2CD0F0C17CFCF1C178FC84
:10D47000800E0101F25D04E10C01800E796F02D093
:10D480000C01796B020E1CD00C017C6B0C01166B2D
:10D490000C01496B0C01796B0C01136B0C01466B91
:10D4A0000801A56B26EC61F00101F16B0101F06B45
:10D4B0000101F26B0101F36B000E02D0000E00D0EF
:02D4C000120058
:0ED4C200D9CFE6FFDACFE6FFE1CFD9FFE2CF08
:10D4D000DAFFE652E652FC0EDBCF14F0FD0EDBCF96
:10D4E00015F0060ED89014361536E804FBE114C08A
:10D4F000DEFF15C0DDFF010EDB50BE6EDF50E840E1
:10D50000E8403F0B300B146ECF0EBD141410BD6EEF
:10D51000E552E552E552E5CFDAFFE7CFD9FF120039
:10D52000660E600E4E0E2F0E040ECD0D8B0D3E0DB1
:10D53000E70C870C1D0CAC0B330BB40A300AA8099E
:10D540001D098F0800087107E3065806D0054C0531
:10D55000CD045404E30379031903C20275023302B4
:0AD56000FC01D101B201A0019A0103
:06D56A00840352032003BC
:10D57000EE02BC028A0258022602F401C2019001A6
:10D580005E012C01FA00C800960064003200000021
:10D59000CEFF9CFF6AFF38FF06FFD4FEA2FE70FE9E
:10D5A0003EFE0CFEDAFDA8FD76FD44FD12FDE0FC1A
:04D5B000AEFC7CFC55
:0CD5B400D9CFE6FFDACFE6FFE1CFD9FFC8
:10D5C000E2CFDAFF0C0EBD129494B150400B09E08B
:10D5D000B150080B06E07694FD0EDB50776E768432
:10D5E00005D0CA94FD0EDB50CB6ECA84E552E5CF60
:0CD5F000DAFFE7CFD9FF1200949412007C
:04D5FC00FF0E00011D
:10D60000FF5D02E20001FF2B1200050E0001FF5D2D
:10D6100004E283EC66F0000E12D095EC2DF0FEC013
:10D62000CCFCC3EC2DF00001FE2B020E0001FE5DD0
:10D6300002E30001FE6B0001FF6B010E00D012003F
:10D64000D9CFE6FFDACFE6FFE1CFD9FFE2CFDAFFAD
:10D65000FD0EDB50FB0B766E786AA496FD0EDBAEFA
:10D6600002D0A38601D0A3967684E552E5CFDAFFF7
:06D67000E7CFD9FF120014
:0AD676000000050009000E0013007B
:10D6800017001C00200025002A002F00330038005E
:10D690003D00410046004A004F00540058005C0025
:0AD6A0006200650069006E00720070
:06D6AA0024EC67F0DBEC4C
:10D6B00065F0819C0801FF0502E17FEC46F083ECF8
:10D6C00066F08AEC40F0010803E10001DB6B03D057
:0ED6D0000001010EDB6F05EC6BF0FDD71200C0
:02D6DE00F36AED
:10D6E000F46AFF0EE124E96EFF0EE220EA6EED66B9
:10D6F0000ED02F0EEF640BD0390EEF6407D0EF9AE7
:10D70000400EEF6404D0470EEF6001D0F32A120000
:10D71000FF0EE3501F6EEF0E01D0F30EE76EE72E03
:10D720008FEF6BF00C0E1E6EE76AE72E95EF6BF035
:0ED730001E2E94EF6BF01F2E8DEF6BF012008B
:02D73E00056A7A
:10D74000046A100EE76ED89008360936043605369E
:10D750000D50045C0E50055805E30D50045E0E504C
:0AD76000055A082AE72EF0D7120040
:06D76A00B6FEB6FEB6FE9D
:10D77000B6FEB6FEB6FEB6FEB6FEB6FEB6FEB6FE09
:10D78000B6FEB6FECFFED4FED9FEE3FEF7FE10FFD6
:04D7900074FF74FFAF
:0CD794004A014A014A014A014A014A01C7
:10D7A0004A014A014A014A014A014A014A014A0121
:0ED7B0004A014A014A012201C800820082009B
:02D7BE004A011E
:10D7C0004A014A014A014A014A014A014A014A0101
:10D7D0004A014A014A014A014A014A014A014A01F1
:08D7E0001801D2008200820052
:08D7E800B6FEB6FEB6FEB6FE69
:10D7F000B6FEB6FEB6FEB6FEB6FEB6FEB6FEB6FE89
:10D80000B6FEB6FED4FEE8FEFCFE24FF6AFFCEFFA5
:02D81000CEFF49
:0ED812001EEE00F02EEE00F0F86A019C39ECDC
:10D820006CF057EC69F040EC6CF055EC6BF0FBD70A
:02D830001200E4
:0ED83200056A080EE76ED890093605360E50CE
:0ED84000055C02E3056E092AE72EF7D71200F9
:02D84E00FF0ECB
:10D85000E350E84E1200000000D000D000D0E82EC7
:04D86000FAD71200E1
:0CD86400FFC7AFFFFDC7ACFFFEC7ABFF66
:02D870001200A4
:0ED8720000EE00F00F0EEE6AEA62FDD7120023
:02D88000120094
:04D882000055AAFFA4
:02D8860002019D
:05D88800080204040485
:02FDB000AA5552
:020000040030CA
:0100010026D8
:0100020006F7
:0100030009F3
:0100050003F7
:010006008178
:0100080000F7
:0100090000F6
:01000A000FE6
:01000B00E014
:01000C000FE4
:01000D0040B2
:0200000400F00A
:10000000304F7065726F6E2044373530000000301D
:100010003030303030303030313034300264181508
:080020001815A902CC02E5024B
:1000300001000000000100000000000101010000BB
:1000400000000000000000000000000000000000B0
:100050000606505028282828282828280C08282850
:100060000505FF00282828280000000000000005E2
:10007000666680804D4D808080808080808080801A
:10008000FF80FF00808080800000000000000000F2
:100090006666FFFF6173FFFFFFFFFFFF6666FFFFFE
:1000A000FFFFFF00FFFFFFFF000000000000000057
:0200B0000064EA
:10010000191919191919191919191919191919195F
:10011000196464001919191900000000000000009A
:10012000191919191919191919191919191919193F
:10013000196464001919191900000000000000007A
:10014000500A0A0A0A0A0A0A0A0A0A0A0A0A0A0AC9
:100150000A0A0A000A0A0A0A000000000000000059
:10016000500A0A0A0A0A0A0A0A0A0A0A0A0A0A0AA9
:100170000A0A0A000A0A0A0A000000000000000039
:1002000000000000000000000000FCFE91FE000065
:1002100000000000000000000000000000000000DE
:1002200038FFF2FE3EFEE6FBE6FB24FFBFFE010ABE
:1002300000000000000000000000000000000000BE
:10024000C80022015C0316011601BE001C0000005C
:10025000000000000000000000000000000000009E
:100280006F026F021002A003EA01FF013B01C300ED
:10029000C201960018016801E4023601F0003A023A
:0802A000A6FFBE005F00D002C2
:0803F000000000000000000005
:0603FA000000FFFFFFFF01
:00000001FF
